{
  "contractName": "APYCalcualte",
  "abi": [
    {
      "inputs": [
        {
          "internalType": "address",
          "name": "_USD",
          "type": "address"
        },
        {
          "internalType": "address",
          "name": "_LBRE",
          "type": "address"
        },
        {
          "internalType": "address",
          "name": "_factory",
          "type": "address"
        },
        {
          "internalType": "address payable",
          "name": "_chef",
          "type": "address"
        }
      ],
      "stateMutability": "nonpayable",
      "type": "constructor"
    },
    {
      "inputs": [],
      "name": "LBRE",
      "outputs": [
        {
          "internalType": "address",
          "name": "",
          "type": "address"
        }
      ],
      "stateMutability": "view",
      "type": "function"
    },
    {
      "inputs": [],
      "name": "USD",
      "outputs": [
        {
          "internalType": "address",
          "name": "",
          "type": "address"
        }
      ],
      "stateMutability": "view",
      "type": "function"
    },
    {
      "inputs": [],
      "name": "chef",
      "outputs": [
        {
          "internalType": "contract MasterChef",
          "name": "",
          "type": "address"
        }
      ],
      "stateMutability": "view",
      "type": "function"
    },
    {
      "inputs": [],
      "name": "factory",
      "outputs": [
        {
          "internalType": "contract IUniswapFactory",
          "name": "",
          "type": "address"
        }
      ],
      "stateMutability": "view",
      "type": "function"
    },
    {
      "inputs": [
        {
          "internalType": "address",
          "name": "_token0",
          "type": "address"
        }
      ],
      "name": "USDToToken0",
      "outputs": [
        {
          "internalType": "uint256",
          "name": "",
          "type": "uint256"
        }
      ],
      "stateMutability": "view",
      "type": "function"
    },
    {
      "inputs": [
        {
          "internalType": "uint256",
          "name": "input",
          "type": "uint256"
        }
      ],
      "name": "LbreToUSD",
      "outputs": [
        {
          "internalType": "uint256",
          "name": "",
          "type": "uint256"
        }
      ],
      "stateMutability": "view",
      "type": "function"
    },
    {
      "inputs": [
        {
          "internalType": "uint8",
          "name": "_pid",
          "type": "uint8"
        }
      ],
      "name": "APYC",
      "outputs": [
        {
          "internalType": "uint256",
          "name": "lpOutput",
          "type": "uint256"
        },
        {
          "internalType": "uint256",
          "name": "rewardPerBlock",
          "type": "uint256"
        }
      ],
      "stateMutability": "view",
      "type": "function"
    },
    {
      "inputs": [
        {
          "internalType": "address",
          "name": "lp",
          "type": "address"
        }
      ],
      "name": "LPtoUSD",
      "outputs": [
        {
          "internalType": "uint256",
          "name": "LPToUSD",
          "type": "uint256"
        },
        {
          "internalType": "uint256",
          "name": "totalLP",
          "type": "uint256"
        },
        {
          "internalType": "uint256",
          "name": "token0",
          "type": "uint256"
        },
        {
          "internalType": "uint256",
          "name": "token1",
          "type": "uint256"
        },
        {
          "internalType": "string",
          "name": "token0Symbol",
          "type": "string"
        },
        {
          "internalType": "string",
          "name": "token1Symbol",
          "type": "string"
        }
      ],
      "stateMutability": "view",
      "type": "function"
    },
    {
      "inputs": [
        {
          "internalType": "address",
          "name": "token",
          "type": "address"
        }
      ],
      "name": "tokenToUSD",
      "outputs": [
        {
          "internalType": "uint256",
          "name": "",
          "type": "uint256"
        }
      ],
      "stateMutability": "view",
      "type": "function"
    }
  ],
  "bytecode": "0x608060405234801561001057600080fd5b50604051613a6c380380613a6c8339818101604052608081101561003357600080fd5b8101908080519060200190929190805190602001909291908051906020019092919080519060200190929190505050836000806101000a81548173ffffffffffffffffffffffffffffffffffffffff021916908373ffffffffffffffffffffffffffffffffffffffff16021790555082600160006101000a81548173ffffffffffffffffffffffffffffffffffffffff021916908373ffffffffffffffffffffffffffffffffffffffff16021790555081600260006101000a81548173ffffffffffffffffffffffffffffffffffffffff021916908373ffffffffffffffffffffffffffffffffffffffff16021790555080600360006101000a81548173ffffffffffffffffffffffffffffffffffffffff021916908373ffffffffffffffffffffffffffffffffffffffff160217905550505050506138f4806101786000396000f3fe608060405234801561001057600080fd5b50600436106100935760003560e01c80636781b4c7116100665780636781b4c71461018c5780636d45a9c2146101e4578063b7ce2c7914610230578063c45a015514610272578063f497473b146102a657610093565b8063126eba97146100985780631bf6c21b146100cc5780631fc8bc5d146101005780634642d66d14610134575b600080fd5b6100a06103eb565b604051808273ffffffffffffffffffffffffffffffffffffffff16815260200191505060405180910390f35b6100d4610411565b604051808273ffffffffffffffffffffffffffffffffffffffff16815260200191505060405180910390f35b610108610435565b604051808273ffffffffffffffffffffffffffffffffffffffff16815260200191505060405180910390f35b6101766004803603602081101561014a57600080fd5b81019080803573ffffffffffffffffffffffffffffffffffffffff16906020019092919050505061045b565b6040518082815260200191505060405180910390f35b6101ce600480360360208110156101a257600080fd5b81019080803573ffffffffffffffffffffffffffffffffffffffff169060200190929190505050610ec7565b6040518082815260200191505060405180910390f35b610213600480360360208110156101fa57600080fd5b81019080803560ff169060200190929190505050611933565b604051808381526020018281526020019250505060405180910390f35b61025c6004803603602081101561024657600080fd5b810190808035906020019092919050505061218d565b6040518082815260200191505060405180910390f35b61027a612b6c565b604051808273ffffffffffffffffffffffffffffffffffffffff16815260200191505060405180910390f35b6102e8600480360360208110156102bc57600080fd5b81019080803573ffffffffffffffffffffffffffffffffffffffff169060200190929190505050612b92565b604051808781526020018681526020018581526020018481526020018060200180602001838103835285818151815260200191508051906020019080838360005b83811015610344578082015181840152602081019050610329565b50505050905090810190601f1680156103715780820380516001836020036101000a031916815260200191505b50838103825284818151815260200191508051906020019080838360005b838110156103aa57808201518184015260208101905061038f565b50505050905090810190601f1680156103d75780820380516001836020036101000a031916815260200191505b509850505050505050505060405180910390f35b600160009054906101000a900473ffffffffffffffffffffffffffffffffffffffff1681565b60008054906101000a900473ffffffffffffffffffffffffffffffffffffffff1681565b600360009054906101000a900473ffffffffffffffffffffffffffffffffffffffff1681565b60008060009054906101000a900473ffffffffffffffffffffffffffffffffffffffff1673ffffffffffffffffffffffffffffffffffffffff168273ffffffffffffffffffffffffffffffffffffffff161415610503576040517f08c379a00000000000000000000000000000000000000000000000000000000081526004018080602001828103825260268152602001806138516026913960400191505060405180910390fd5b6000600260009054906101000a900473ffffffffffffffffffffffffffffffffffffffff1673ffffffffffffffffffffffffffffffffffffffff1663e6a439058460008054906101000a900473ffffffffffffffffffffffffffffffffffffffff166040518363ffffffff1660e01b8152600401808373ffffffffffffffffffffffffffffffffffffffff1681526020018273ffffffffffffffffffffffffffffffffffffffff1681526020019250505060206040518083038186803b1580156105cc57600080fd5b505afa1580156105e0573d6000803e3d6000fd5b505050506040513d60208110156105f657600080fd5b81019080805190602001909291905050509050600081905060008060009054906101000a900473ffffffffffffffffffffffffffffffffffffffff1673ffffffffffffffffffffffffffffffffffffffff168273ffffffffffffffffffffffffffffffffffffffff16630dfe16816040518163ffffffff1660e01b815260040160206040518083038186803b15801561068e57600080fd5b505afa1580156106a2573d6000803e3d6000fd5b505050506040513d60208110156106b857600080fd5b810190808051906020019092919050505073ffffffffffffffffffffffffffffffffffffffff161461076a578173ffffffffffffffffffffffffffffffffffffffff1663d21220a76040518163ffffffff1660e01b815260040160206040518083038186803b15801561072a57600080fd5b505afa15801561073e573d6000803e3d6000fd5b505050506040513d602081101561075457600080fd5b81019080805190602001909291905050506107ec565b8173ffffffffffffffffffffffffffffffffffffffff16630dfe16816040518163ffffffff1660e01b815260040160206040518083038186803b1580156107b057600080fd5b505afa1580156107c4573d6000803e3d6000fd5b505050506040513d60208110156107da57600080fd5b81019080805190602001909291905050505b905060008060009054906101000a900473ffffffffffffffffffffffffffffffffffffffff1673ffffffffffffffffffffffffffffffffffffffff168373ffffffffffffffffffffffffffffffffffffffff16630dfe16816040518163ffffffff1660e01b815260040160206040518083038186803b15801561086e57600080fd5b505afa158015610882573d6000803e3d6000fd5b505050506040513d602081101561089857600080fd5b810190808051906020019092919050505073ffffffffffffffffffffffffffffffffffffffff161461094a578273ffffffffffffffffffffffffffffffffffffffff16630dfe16816040518163ffffffff1660e01b815260040160206040518083038186803b15801561090a57600080fd5b505afa15801561091e573d6000803e3d6000fd5b505050506040513d602081101561093457600080fd5b81019080805190602001909291905050506109cc565b8273ffffffffffffffffffffffffffffffffffffffff1663d21220a76040518163ffffffff1660e01b815260040160206040518083038186803b15801561099057600080fd5b505afa1580156109a4573d6000803e3d6000fd5b505050506040513d60208110156109ba57600080fd5b81019080805190602001909291905050505b90506000808473ffffffffffffffffffffffffffffffffffffffff16630902f1ac6040518163ffffffff1660e01b815260040160606040518083038186803b158015610a1757600080fd5b505afa158015610a2b573d6000803e3d6000fd5b505050506040513d6060811015610a4157600080fd5b81019080805190602001909291908051906020019092919080519060200190929190505050509150915060008060009054906101000a900473ffffffffffffffffffffffffffffffffffffffff1673ffffffffffffffffffffffffffffffffffffffff168673ffffffffffffffffffffffffffffffffffffffff16630dfe16816040518163ffffffff1660e01b815260040160206040518083038186803b158015610aeb57600080fd5b505afa158015610aff573d6000803e3d6000fd5b505050506040513d6020811015610b1557600080fd5b810190808051906020019092919050505073ffffffffffffffffffffffffffffffffffffffff1614610bdf578473ffffffffffffffffffffffffffffffffffffffff1663313ce5676040518163ffffffff1660e01b815260040160206040518083038186803b158015610b8757600080fd5b505afa158015610b9b573d6000803e3d6000fd5b505050506040513d6020811015610bb157600080fd5b810190808051906020019092919050505060ff16600a0a836dffffffffffffffffffffffffffff1602610c79565b8473ffffffffffffffffffffffffffffffffffffffff1663313ce5676040518163ffffffff1660e01b815260040160206040518083038186803b158015610c2557600080fd5b505afa158015610c39573d6000803e3d6000fd5b505050506040513d6020811015610c4f57600080fd5b810190808051906020019092919050505060ff16600a0a826dffffffffffffffffffffffffffff16025b905060008060009054906101000a900473ffffffffffffffffffffffffffffffffffffffff1673ffffffffffffffffffffffffffffffffffffffff168773ffffffffffffffffffffffffffffffffffffffff16630dfe16816040518163ffffffff1660e01b815260040160206040518083038186803b158015610cfb57600080fd5b505afa158015610d0f573d6000803e3d6000fd5b505050506040513d6020811015610d2557600080fd5b810190808051906020019092919050505073ffffffffffffffffffffffffffffffffffffffff1614610def578473ffffffffffffffffffffffffffffffffffffffff1663313ce5676040518163ffffffff1660e01b815260040160206040518083038186803b158015610d9757600080fd5b505afa158015610dab573d6000803e3d6000fd5b505050506040513d6020811015610dc157600080fd5b810190808051906020019092919050505060ff16600a0a836dffffffffffffffffffffffffffff1602610e89565b8473ffffffffffffffffffffffffffffffffffffffff1663313ce5676040518163ffffffff1660e01b815260040160206040518083038186803b158015610e3557600080fd5b505afa158015610e49573d6000803e3d6000fd5b505050506040513d6020811015610e5f57600080fd5b810190808051906020019092919050505060ff16600a0a846dffffffffffffffffffffffffffff16025b9050610eb882610eaa670de0b6b3a76400008461363290919063ffffffff16565b6136b890919063ffffffff16565b98505050505050505050919050565b60008060009054906101000a900473ffffffffffffffffffffffffffffffffffffffff1673ffffffffffffffffffffffffffffffffffffffff168273ffffffffffffffffffffffffffffffffffffffff161415610f6f576040517f08c379a00000000000000000000000000000000000000000000000000000000081526004018080602001828103825260278152602001806138986027913960400191505060405180910390fd5b6000600260009054906101000a900473ffffffffffffffffffffffffffffffffffffffff1673ffffffffffffffffffffffffffffffffffffffff1663e6a439058460008054906101000a900473ffffffffffffffffffffffffffffffffffffffff166040518363ffffffff1660e01b8152600401808373ffffffffffffffffffffffffffffffffffffffff1681526020018273ffffffffffffffffffffffffffffffffffffffff1681526020019250505060206040518083038186803b15801561103857600080fd5b505afa15801561104c573d6000803e3d6000fd5b505050506040513d602081101561106257600080fd5b81019080805190602001909291905050509050600081905060008060009054906101000a900473ffffffffffffffffffffffffffffffffffffffff1673ffffffffffffffffffffffffffffffffffffffff168273ffffffffffffffffffffffffffffffffffffffff16630dfe16816040518163ffffffff1660e01b815260040160206040518083038186803b1580156110fa57600080fd5b505afa15801561110e573d6000803e3d6000fd5b505050506040513d602081101561112457600080fd5b810190808051906020019092919050505073ffffffffffffffffffffffffffffffffffffffff16146111d6578173ffffffffffffffffffffffffffffffffffffffff1663d21220a76040518163ffffffff1660e01b815260040160206040518083038186803b15801561119657600080fd5b505afa1580156111aa573d6000803e3d6000fd5b505050506040513d60208110156111c057600080fd5b8101908080519060200190929190505050611258565b8173ffffffffffffffffffffffffffffffffffffffff16630dfe16816040518163ffffffff1660e01b815260040160206040518083038186803b15801561121c57600080fd5b505afa158015611230573d6000803e3d6000fd5b505050506040513d602081101561124657600080fd5b81019080805190602001909291905050505b905060008060009054906101000a900473ffffffffffffffffffffffffffffffffffffffff1673ffffffffffffffffffffffffffffffffffffffff168373ffffffffffffffffffffffffffffffffffffffff16630dfe16816040518163ffffffff1660e01b815260040160206040518083038186803b1580156112da57600080fd5b505afa1580156112ee573d6000803e3d6000fd5b505050506040513d602081101561130457600080fd5b810190808051906020019092919050505073ffffffffffffffffffffffffffffffffffffffff16146113b6578273ffffffffffffffffffffffffffffffffffffffff16630dfe16816040518163ffffffff1660e01b815260040160206040518083038186803b15801561137657600080fd5b505afa15801561138a573d6000803e3d6000fd5b505050506040513d60208110156113a057600080fd5b8101908080519060200190929190505050611438565b8273ffffffffffffffffffffffffffffffffffffffff1663d21220a76040518163ffffffff1660e01b815260040160206040518083038186803b1580156113fc57600080fd5b505afa158015611410573d6000803e3d6000fd5b505050506040513d602081101561142657600080fd5b81019080805190602001909291905050505b90506000808473ffffffffffffffffffffffffffffffffffffffff16630902f1ac6040518163ffffffff1660e01b815260040160606040518083038186803b15801561148357600080fd5b505afa158015611497573d6000803e3d6000fd5b505050506040513d60608110156114ad57600080fd5b81019080805190602001909291908051906020019092919080519060200190929190505050509150915060008060009054906101000a900473ffffffffffffffffffffffffffffffffffffffff1673ffffffffffffffffffffffffffffffffffffffff168673ffffffffffffffffffffffffffffffffffffffff16630dfe16816040518163ffffffff1660e01b815260040160206040518083038186803b15801561155757600080fd5b505afa15801561156b573d6000803e3d6000fd5b505050506040513d602081101561158157600080fd5b810190808051906020019092919050505073ffffffffffffffffffffffffffffffffffffffff161461164b578473ffffffffffffffffffffffffffffffffffffffff1663313ce5676040518163ffffffff1660e01b815260040160206040518083038186803b1580156115f357600080fd5b505afa158015611607573d6000803e3d6000fd5b505050506040513d602081101561161d57600080fd5b810190808051906020019092919050505060ff16600a0a836dffffffffffffffffffffffffffff16026116e5565b8473ffffffffffffffffffffffffffffffffffffffff1663313ce5676040518163ffffffff1660e01b815260040160206040518083038186803b15801561169157600080fd5b505afa1580156116a5573d6000803e3d6000fd5b505050506040513d60208110156116bb57600080fd5b810190808051906020019092919050505060ff16600a0a826dffffffffffffffffffffffffffff16025b905060008060009054906101000a900473ffffffffffffffffffffffffffffffffffffffff1673ffffffffffffffffffffffffffffffffffffffff168773ffffffffffffffffffffffffffffffffffffffff16630dfe16816040518163ffffffff1660e01b815260040160206040518083038186803b15801561176757600080fd5b505afa15801561177b573d6000803e3d6000fd5b505050506040513d602081101561179157600080fd5b810190808051906020019092919050505073ffffffffffffffffffffffffffffffffffffffff161461185b578473ffffffffffffffffffffffffffffffffffffffff1663313ce5676040518163ffffffff1660e01b815260040160206040518083038186803b15801561180357600080fd5b505afa158015611817573d6000803e3d6000fd5b505050506040513d602081101561182d57600080fd5b810190808051906020019092919050505060ff16600a0a836dffffffffffffffffffffffffffff16026118f5565b8473ffffffffffffffffffffffffffffffffffffffff1663313ce5676040518163ffffffff1660e01b815260040160206040518083038186803b1580156118a157600080fd5b505afa1580156118b5573d6000803e3d6000fd5b505050506040513d60208110156118cb57600080fd5b810190808051906020019092919050505060ff16600a0a846dffffffffffffffffffffffffffff16025b905061192481611916670de0b6b3a76400008561363290919063ffffffff16565b6136b890919063ffffffff16565b98505050505050505050919050565b600080600060606000600360009054906101000a900473ffffffffffffffffffffffffffffffffffffffff1673ffffffffffffffffffffffffffffffffffffffff16633abb7810876040518263ffffffff1660e01b8152600401808260ff16815260200191505060006040518083038186803b1580156119b257600080fd5b505afa1580156119c6573d6000803e3d6000fd5b505050506040513d6000823e3d601f19601f8201168201806040525060608110156119f057600080fd5b810190808051906020019092919080516040519392919084640100000000821115611a1a57600080fd5b83820191506020820185811115611a3057600080fd5b8251866020820283011164010000000082111715611a4d57600080fd5b8083526020830192505050908051906020019060200280838360005b83811015611a84578082015181840152602081019050611a69565b50505050905001604052602001805190602001909291905050509250925092506000600360009054906101000a900473ffffffffffffffffffffffffffffffffffffffff1673ffffffffffffffffffffffffffffffffffffffff166317caf6f16040518163ffffffff1660e01b815260040160206040518083038186803b158015611b0e57600080fd5b505afa158015611b22573d6000803e3d6000fd5b505050506040513d6020811015611b3857600080fd5b810190808051906020019092919050505090506000600360009054906101000a900473ffffffffffffffffffffffffffffffffffffffff1673ffffffffffffffffffffffffffffffffffffffff1663b17005036040518163ffffffff1660e01b815260040160206040518083038186803b158015611bb557600080fd5b505afa158015611bc9573d6000803e3d6000fd5b505050506040513d6020811015611bdf57600080fd5b81019080805190602001909291905050509050600084600081518110611c0157fe5b6020026020010151905060008960ff161461207f57600086905060008060009054906101000a900473ffffffffffffffffffffffffffffffffffffffff1673ffffffffffffffffffffffffffffffffffffffff168373ffffffffffffffffffffffffffffffffffffffff1614611c7f57611c7a83610ec7565b611c89565b670de0b6b3a76400005b90506000611ca16002836136b890919063ffffffff16565b90506000808473ffffffffffffffffffffffffffffffffffffffff16630902f1ac6040518163ffffffff1660e01b815260040160606040518083038186803b158015611cec57600080fd5b505afa158015611d00573d6000803e3d6000fd5b505050506040513d6060811015611d1657600080fd5b81019080805190602001909291908051906020019092919080519060200190929190505050509150915060008573ffffffffffffffffffffffffffffffffffffffff16630dfe16816040518163ffffffff1660e01b815260040160206040518083038186803b158015611d8857600080fd5b505afa158015611d9c573d6000803e3d6000fd5b505050506040513d6020811015611db257600080fd5b810190808051906020019092919050505073ffffffffffffffffffffffffffffffffffffffff168b600081518110611de657fe5b602002602001015173ffffffffffffffffffffffffffffffffffffffff1614611eaa57816dffffffffffffffffffffffffffff168673ffffffffffffffffffffffffffffffffffffffff166318160ddd6040518163ffffffff1660e01b815260040160206040518083038186803b158015611e6057600080fd5b505afa158015611e74573d6000803e3d6000fd5b505050506040513d6020811015611e8a57600080fd5b8101908080519060200190929190505050850281611ea457fe5b04611f47565b826dffffffffffffffffffffffffffff168673ffffffffffffffffffffffffffffffffffffffff166318160ddd6040518163ffffffff1660e01b815260040160206040518083038186803b158015611f0157600080fd5b505afa158015611f15573d6000803e3d6000fd5b505050506040513d6020811015611f2b57600080fd5b8101908080519060200190929190505050850281611f4557fe5b045b905060006120338d73ffffffffffffffffffffffffffffffffffffffff166370a08231600360009054906101000a900473ffffffffffffffffffffffffffffffffffffffff166040518263ffffffff1660e01b8152600401808273ffffffffffffffffffffffffffffffffffffffff16815260200191505060206040518083038186803b158015611fd757600080fd5b505afa158015611feb573d6000803e3d6000fd5b505050506040513d602081101561200157600080fd5b81019080805190602001909291905050506120258b8561363290919063ffffffff16565b6136b890919063ffffffff16565b905061205a8a61204c8d8461363290919063ffffffff16565b6136b890919063ffffffff16565b90506120658161218d565b905081819e509e5050505050505050505050505050612188565b6000670de0b6b3a76400009050612153600360009054906101000a900473ffffffffffffffffffffffffffffffffffffffff1673ffffffffffffffffffffffffffffffffffffffff1663817b1cd26040518163ffffffff1660e01b815260040160206040518083038186803b1580156120f757600080fd5b505afa15801561210b573d6000803e3d6000fd5b505050506040513d602081101561212157600080fd5b8101908080519060200190929190505050612145858461363290919063ffffffff16565b6136b890919063ffffffff16565b975061217a8461216c878b61363290919063ffffffff16565b6136b890919063ffffffff16565b975060009850505050505050505b915091565b600080600260009054906101000a900473ffffffffffffffffffffffffffffffffffffffff1673ffffffffffffffffffffffffffffffffffffffff1663e6a4390560008054906101000a900473ffffffffffffffffffffffffffffffffffffffff16600160009054906101000a900473ffffffffffffffffffffffffffffffffffffffff166040518363ffffffff1660e01b8152600401808373ffffffffffffffffffffffffffffffffffffffff1681526020018273ffffffffffffffffffffffffffffffffffffffff1681526020019250505060206040518083038186803b15801561227957600080fd5b505afa15801561228d573d6000803e3d6000fd5b505050506040513d60208110156122a357600080fd5b81019080805190602001909291905050509050600081905060008060009054906101000a900473ffffffffffffffffffffffffffffffffffffffff1673ffffffffffffffffffffffffffffffffffffffff168273ffffffffffffffffffffffffffffffffffffffff16630dfe16816040518163ffffffff1660e01b815260040160206040518083038186803b15801561233b57600080fd5b505afa15801561234f573d6000803e3d6000fd5b505050506040513d602081101561236557600080fd5b810190808051906020019092919050505073ffffffffffffffffffffffffffffffffffffffff1614612417578173ffffffffffffffffffffffffffffffffffffffff1663d21220a76040518163ffffffff1660e01b815260040160206040518083038186803b1580156123d757600080fd5b505afa1580156123eb573d6000803e3d6000fd5b505050506040513d602081101561240157600080fd5b8101908080519060200190929190505050612499565b8173ffffffffffffffffffffffffffffffffffffffff16630dfe16816040518163ffffffff1660e01b815260040160206040518083038186803b15801561245d57600080fd5b505afa158015612471573d6000803e3d6000fd5b505050506040513d602081101561248757600080fd5b81019080805190602001909291905050505b905060008060009054906101000a900473ffffffffffffffffffffffffffffffffffffffff1673ffffffffffffffffffffffffffffffffffffffff168373ffffffffffffffffffffffffffffffffffffffff16630dfe16816040518163ffffffff1660e01b815260040160206040518083038186803b15801561251b57600080fd5b505afa15801561252f573d6000803e3d6000fd5b505050506040513d602081101561254557600080fd5b810190808051906020019092919050505073ffffffffffffffffffffffffffffffffffffffff16146125f7578273ffffffffffffffffffffffffffffffffffffffff16630dfe16816040518163ffffffff1660e01b815260040160206040518083038186803b1580156125b757600080fd5b505afa1580156125cb573d6000803e3d6000fd5b505050506040513d60208110156125e157600080fd5b8101908080519060200190929190505050612679565b8273ffffffffffffffffffffffffffffffffffffffff1663d21220a76040518163ffffffff1660e01b815260040160206040518083038186803b15801561263d57600080fd5b505afa158015612651573d6000803e3d6000fd5b505050506040513d602081101561266757600080fd5b81019080805190602001909291905050505b90506000808473ffffffffffffffffffffffffffffffffffffffff16630902f1ac6040518163ffffffff1660e01b815260040160606040518083038186803b1580156126c457600080fd5b505afa1580156126d8573d6000803e3d6000fd5b505050506040513d60608110156126ee57600080fd5b81019080805190602001909291908051906020019092919080519060200190929190505050509150915060008060009054906101000a900473ffffffffffffffffffffffffffffffffffffffff1673ffffffffffffffffffffffffffffffffffffffff168673ffffffffffffffffffffffffffffffffffffffff16630dfe16816040518163ffffffff1660e01b815260040160206040518083038186803b15801561279857600080fd5b505afa1580156127ac573d6000803e3d6000fd5b505050506040513d60208110156127c257600080fd5b810190808051906020019092919050505073ffffffffffffffffffffffffffffffffffffffff161461288c578473ffffffffffffffffffffffffffffffffffffffff1663313ce5676040518163ffffffff1660e01b815260040160206040518083038186803b15801561283457600080fd5b505afa158015612848573d6000803e3d6000fd5b505050506040513d602081101561285e57600080fd5b810190808051906020019092919050505060ff16600a0a836dffffffffffffffffffffffffffff1602612926565b8473ffffffffffffffffffffffffffffffffffffffff1663313ce5676040518163ffffffff1660e01b815260040160206040518083038186803b1580156128d257600080fd5b505afa1580156128e6573d6000803e3d6000fd5b505050506040513d60208110156128fc57600080fd5b810190808051906020019092919050505060ff16600a0a826dffffffffffffffffffffffffffff16025b905060008060009054906101000a900473ffffffffffffffffffffffffffffffffffffffff1673ffffffffffffffffffffffffffffffffffffffff168773ffffffffffffffffffffffffffffffffffffffff16630dfe16816040518163ffffffff1660e01b815260040160206040518083038186803b1580156129a857600080fd5b505afa1580156129bc573d6000803e3d6000fd5b505050506040513d60208110156129d257600080fd5b810190808051906020019092919050505073ffffffffffffffffffffffffffffffffffffffff1614612a9c578473ffffffffffffffffffffffffffffffffffffffff1663313ce5676040518163ffffffff1660e01b815260040160206040518083038186803b158015612a4457600080fd5b505afa158015612a58573d6000803e3d6000fd5b505050506040513d6020811015612a6e57600080fd5b810190808051906020019092919050505060ff16600a0a836dffffffffffffffffffffffffffff1602612b36565b8473ffffffffffffffffffffffffffffffffffffffff1663313ce5676040518163ffffffff1660e01b815260040160206040518083038186803b158015612ae257600080fd5b505afa158015612af6573d6000803e3d6000fd5b505050506040513d6020811015612b0c57600080fd5b810190808051906020019092919050505060ff16600a0a846dffffffffffffffffffffffffffff16025b9050612b5d82612b4f838d61363290919063ffffffff16565b6136b890919063ffffffff16565b98505050505050505050919050565b600260009054906101000a900473ffffffffffffffffffffffffffffffffffffffff1681565b600080600080606080600087905060008173ffffffffffffffffffffffffffffffffffffffff16630dfe16816040518163ffffffff1660e01b815260040160206040518083038186803b158015612be857600080fd5b505afa158015612bfc573d6000803e3d6000fd5b505050506040513d6020811015612c1257600080fd5b8101908080519060200190929190505050905060008273ffffffffffffffffffffffffffffffffffffffff1663d21220a76040518163ffffffff1660e01b815260040160206040518083038186803b158015612c6d57600080fd5b505afa158015612c81573d6000803e3d6000fd5b505050506040513d6020811015612c9757600080fd5b810190808051906020019092919050505090506000808473ffffffffffffffffffffffffffffffffffffffff16630902f1ac6040518163ffffffff1660e01b815260040160606040518083038186803b158015612cf357600080fd5b505afa158015612d07573d6000803e3d6000fd5b505050506040513d6060811015612d1d57600080fd5b8101908080519060200190929190805190602001909291908051906020019092919050505050915091506000806000808873ffffffffffffffffffffffffffffffffffffffff166318160ddd6040518163ffffffff1660e01b815260040160206040518083038186803b158015612d9357600080fd5b505afa158015612da7573d6000803e3d6000fd5b505050506040513d6020811015612dbd57600080fd5b810190808051906020019092919050505090506000866dffffffffffffffffffffffffffff1614158015612e0257506000856dffffffffffffffffffffffffffff1614155b1561335f5760008054906101000a900473ffffffffffffffffffffffffffffffffffffffff1673ffffffffffffffffffffffffffffffffffffffff168873ffffffffffffffffffffffffffffffffffffffff161415612e7157856dffffffffffffffffffffffffffff16612eb7565b612eb6670de0b6b3a7640000612ea8612e898b61045b565b896dffffffffffffffffffffffffffff1661363290919063ffffffff16565b6136b890919063ffffffff16565b5b935060008054906101000a900473ffffffffffffffffffffffffffffffffffffffff1673ffffffffffffffffffffffffffffffffffffffff168773ffffffffffffffffffffffffffffffffffffffff161415612f2357846dffffffffffffffffffffffffffff16612f69565b612f68670de0b6b3a7640000612f5a612f3b8a61045b565b886dffffffffffffffffffffffffffff1661363290919063ffffffff16565b6136b890919063ffffffff16565b5b92508673ffffffffffffffffffffffffffffffffffffffff1663313ce5676040518163ffffffff1660e01b815260040160206040518083038186803b158015612fb157600080fd5b505afa158015612fc5573d6000803e3d6000fd5b505050506040513d6020811015612fdb57600080fd5b810190808051906020019092919050505060ff168873ffffffffffffffffffffffffffffffffffffffff1663313ce5676040518163ffffffff1660e01b815260040160206040518083038186803b15801561303557600080fd5b505afa158015613049573d6000803e3d6000fd5b505050506040513d602081101561305f57600080fd5b810190808051906020019092919050505060ff1614613318576131118773ffffffffffffffffffffffffffffffffffffffff1663313ce5676040518163ffffffff1660e01b815260040160206040518083038186803b1580156130c157600080fd5b505afa1580156130d5573d6000803e3d6000fd5b505050506040513d60208110156130eb57600080fd5b810190808051906020019092919050505060ff16600a0a8561363290919063ffffffff16565b93506131ac8873ffffffffffffffffffffffffffffffffffffffff1663313ce5676040518163ffffffff1660e01b815260040160206040518083038186803b15801561315c57600080fd5b505afa158015613170573d6000803e3d6000fd5b505050506040513d602081101561318657600080fd5b810190808051906020019092919050505060ff16600a0a8461363290919063ffffffff16565b9250613311816133038973ffffffffffffffffffffffffffffffffffffffff1663313ce5676040518163ffffffff1660e01b815260040160206040518083038186803b1580156131fb57600080fd5b505afa15801561320f573d6000803e3d6000fd5b505050506040513d602081101561322557600080fd5b810190808051906020019092919050505060ff168b73ffffffffffffffffffffffffffffffffffffffff1663313ce5676040518163ffffffff1660e01b815260040160206040518083038186803b15801561327f57600080fd5b505afa158015613293573d6000803e3d6000fd5b505050506040513d60208110156132a957600080fd5b810190808051906020019092919050505060ff1601600a0a6132f56ec097ce7bc90715b34b9f10000000006132e7898b61370290919063ffffffff16565b61363290919063ffffffff16565b6136b890919063ffffffff16565b6136b890919063ffffffff16565b915061335a565b61335781613349670de0b6b3a764000061333b878961370290919063ffffffff16565b61363290919063ffffffff16565b6136b890919063ffffffff16565b91505b61336c565b6000935060009250600091505b818187878b73ffffffffffffffffffffffffffffffffffffffff166395d89b416040518163ffffffff1660e01b815260040160006040518083038186803b1580156133b657600080fd5b505afa1580156133ca573d6000803e3d6000fd5b505050506040513d6000823e3d601f19601f8201168201806040525060208110156133f457600080fd5b810190808051604051939291908464010000000082111561341457600080fd5b8382019150602082018581111561342a57600080fd5b825186600182028301116401000000008211171561344757600080fd5b8083526020830192505050908051906020019080838360005b8381101561347b578082015181840152602081019050613460565b50505050905090810190601f1680156134a85780820380516001836020036101000a031916815260200191505b506040525050508b73ffffffffffffffffffffffffffffffffffffffff166395d89b416040518163ffffffff1660e01b815260040160006040518083038186803b1580156134f557600080fd5b505afa158015613509573d6000803e3d6000fd5b505050506040513d6000823e3d601f19601f82011682018060405250602081101561353357600080fd5b810190808051604051939291908464010000000082111561355357600080fd5b8382019150602082018581111561356957600080fd5b825186600182028301116401000000008211171561358657600080fd5b8083526020830192505050908051906020019080838360005b838110156135ba57808201518184015260208101905061359f565b50505050905090810190601f1680156135e75780820380516001836020036101000a031916815260200191505b50604052505050836dffffffffffffffffffffffffffff169350826dffffffffffffffffffffffffffff1692509e509e509e509e509e509e5050505050505050505091939550919395565b60008083141561364557600090506136b2565b600082840290508284828161365657fe5b04146136ad576040517f08c379a00000000000000000000000000000000000000000000000000000000081526004018080602001828103825260218152602001806138776021913960400191505060405180910390fd5b809150505b92915050565b60006136fa83836040518060400160405280601a81526020017f536166654d6174683a206469766973696f6e206279207a65726f00000000000081525061378a565b905092915050565b600080828401905083811015613780576040517f08c379a000000000000000000000000000000000000000000000000000000000815260040180806020018281038252601b8152602001807f536166654d6174683a206164646974696f6e206f766572666c6f77000000000081525060200191505060405180910390fd5b8091505092915050565b60008083118290613836576040517f08c379a00000000000000000000000000000000000000000000000000000000081526004018080602001828103825283818151815260200191508051906020019080838360005b838110156137fb5780820151818401526020810190506137e0565b50505050905090810190601f1680156138285780820380516001836020036101000a031916815260200191505b509250505060405180910390fd5b50600083858161384257fe5b04905080915050939250505056fe746f6b656e546f55534420696e7075742063616e6e6f74206265205553442061646472657373536166654d6174683a206d756c7469706c69636174696f6e206f766572666c6f77555344546f546f6b656e3020696e7075742063616e6e6f74206265205553442061646472657373a2646970667358221220345b6d7498c838b3ab4a17ba5b38def0e01c539f28ceb74ad7a6b59e17f1265c64736f6c634300060c0033",
  "immutableReferences": {},
  "source": "pragma solidity 0.6.12;\r\n\r\nimport './interface/IUniswapFactory.sol';\r\nimport './MasterChef.sol';\r\ncontract APYCalcualte{\r\n    \r\n    using SafeMath for uint256;\r\n    using SafeMath for uint112;\r\n    address public USD;\r\n    address public LBRE;\r\n    IUniswapFactory public factory;\r\n    MasterChef public chef;\r\n\r\n    constructor(address _USD, address _LBRE, address _factory, address payable _chef)public{\r\n        USD = _USD;\r\n        LBRE = _LBRE;\r\n        factory = IUniswapFactory(_factory);\r\n        chef = MasterChef(_chef);\r\n    }\r\n   function USDToToken0(address _token0)public view returns(uint256){\r\n        require(_token0 != USD, \"USDToToken0 input cannot be USD address\");\r\n        address token0USD = factory.getPair(_token0, USD);\r\n        IUniswapPair token0USDPair = IUniswapPair(token0USD);\r\n        IERC20 usd = token0USDPair.token0() == USD ?IERC20(token0USDPair.token0()) :IERC20(token0USDPair.token1());\r\n        IERC20 token0 = token0USDPair.token0() == USD ?IERC20(token0USDPair.token1()) :IERC20(token0USDPair.token0());\r\n        (uint112 reserve0, uint112 reserve1,) = token0USDPair.getReserves(); \r\n        uint256 res0 = token0USDPair.token0() == USD ?uint256(reserve1) * (10**uint256(usd.decimals())) :uint256(reserve0) * (10**uint256(usd.decimals()));\r\n        uint256 resUSD = token0USDPair.token0() == USD ?uint256(reserve0) * (10**uint256(token0.decimals())) :uint256(reserve1) * (10**uint256(token0.decimals()));\r\n        return res0.mul(1e18).div(resUSD);\r\n    }\r\n    function LbreToUSD(uint256 input)public view returns(uint256){\r\n        address lbreUSD = factory.getPair(USD, LBRE);\r\n        IUniswapPair lbreUSDPair = IUniswapPair(lbreUSD);\r\n        IERC20 usd = lbreUSDPair.token0() == USD ?IERC20(lbreUSDPair.token0()) :IERC20(lbreUSDPair.token1());\r\n        IERC20 lbre = lbreUSDPair.token0() == USD ?IERC20(lbreUSDPair.token1()) :IERC20(lbreUSDPair.token0());\r\n        (uint112 reserve0, uint112 reserve1,) = lbreUSDPair.getReserves(); \r\n        uint256 res0 = lbreUSDPair.token0() == USD ?uint256(reserve1) * (10**uint256(usd.decimals())) :uint256(reserve0) * (10**uint256(usd.decimals()));\r\n        uint256 resUSD = lbreUSDPair.token0() == USD ?uint256(reserve0) * (10**uint256(lbre.decimals())) :uint256(reserve1) * (10**uint256(lbre.decimals()));\r\n        return input.mul(resUSD).div(res0);\r\n    }\r\n    function APYC(uint8 _pid) public view returns(uint256 lpOutput, uint256 rewardPerBlock){\r\n        // PoolInfo storage pool = chef.poolInfo[_pid];\r\n        (IERC20 lp,address[]memory lpPath,uint256 allocPoint) = chef.forAPYC(_pid);\r\n        uint256 totalAllocPoint = chef.totalAllocPoint(); \r\n        uint256 libPerBlock = chef.libPerBlock();\r\n        IERC20 token0 = IERC20(lpPath[0]);\r\n        if(_pid != 0){\r\n            IUniswapPair pair = IUniswapPair(address(lp));\r\n            uint256 USDToToken0 = address(token0) == USD ?1e18 :USDToToken0(address(token0));\r\n            uint256 token0input = USDToToken0.div(2);\r\n            (uint112 reserve0, uint112 reserve1,) = pair.getReserves(); \r\n            uint256 lpOutput = (lpPath[0] == pair.token0()) ?token0input * pair.totalSupply() / uint256(reserve0) \r\n            :token0input * pair.totalSupply() / uint256(reserve1);\r\n            uint256 rewardPerBlock = lpOutput.mul(libPerBlock).div(lp.balanceOf(address(chef)));\r\n            rewardPerBlock = rewardPerBlock.mul(allocPoint).div(totalAllocPoint);\r\n            rewardPerBlock = LbreToUSD(rewardPerBlock);\r\n            return (lpOutput, rewardPerBlock);\r\n        }else{\r\n            uint256 libInput = 1e18;\r\n            rewardPerBlock = libInput.mul(libPerBlock).div(chef.totalStaked());\r\n            rewardPerBlock = rewardPerBlock.mul(allocPoint).div(totalAllocPoint);\r\n            return (0, rewardPerBlock);\r\n        }\r\n    }\r\n    function LPtoUSD(address lp)public view returns(uint256 LPToUSD, uint256 totalLP, uint256 token0, uint256 token1, string memory token0Symbol, string memory token1Symbol){\r\n        IUniswapPair pair = IUniswapPair(lp);\r\n        IERC20 token0 = IERC20(pair.token0());\r\n        IERC20 token1 = IERC20(pair.token1());\r\n        (uint112 res0, uint112 res1,)=pair.getReserves();\r\n        uint256 token0Value;\r\n        uint256 token1Value;\r\n        uint256 LPToUSD;\r\n        uint256 totalLP = pair.totalSupply();\r\n        if(res0 != 0 && res1 != 0){\r\n            token0Value = address(token0) != USD ?res0.mul(tokenToUSD(address(token0))).div(1e18) : res0;\r\n            token1Value = address(token1) != USD ?res1.mul(tokenToUSD(address(token1))).div(1e18) : res1;\r\n            if(token0.decimals() != token1.decimals()){\r\n                token0Value = token0Value.mul(10 ** uint256(token1.decimals()));\r\n                token1Value = token1Value.mul(10 ** uint256(token0.decimals()));\r\n                LPToUSD = (token0Value.add(token1Value)).mul(1e36).div(10 ** (uint256(token0.decimals())+uint256(token1.decimals()))).div(totalLP);\r\n            }else{\r\n                LPToUSD = (token0Value.add(token1Value)).mul(1e18).div(totalLP);\r\n            }\r\n\r\n        }else{\r\n            token0Value = 0;\r\n            token1Value = 0;\r\n            LPToUSD = 0;\r\n        }\r\n        return (LPToUSD, totalLP,res0, res1, token0.symbol(), token1.symbol());\r\n    }\r\n\r\n    function tokenToUSD(address token)public view returns(uint256){\r\n        require(token != USD, \"tokenToUSD input cannot be USD address\");\r\n        address tokenUSD = factory.getPair(token, USD);\r\n        IUniswapPair tokenUSDPair = IUniswapPair(tokenUSD);\r\n        IERC20 usd = tokenUSDPair.token0() == USD ?IERC20(tokenUSDPair.token0()) :IERC20(tokenUSDPair.token1());\r\n        IERC20 token0 = tokenUSDPair.token0() == USD ?IERC20(tokenUSDPair.token1()) :IERC20(tokenUSDPair.token0());\r\n        (uint112 reserve0, uint112 reserve1,) = tokenUSDPair.getReserves(); \r\n        uint256 res0 = tokenUSDPair.token0() == USD ?uint256(reserve1) * (10**uint256(usd.decimals())) :uint256(reserve0) * (10**uint256(usd.decimals()));\r\n        uint256 resUSD = tokenUSDPair.token0() == USD ?uint256(reserve0) * (10**uint256(token0.decimals())) :uint256(reserve1) * (10**uint256(token0.decimals()));\r\n        return resUSD.mul(1e18).div(res0);\r\n    }\r\n}",
  "sourcePath": "D:/User/Ethereum/LibreV2/contracts/APYCalculate.sol",
  "compiler": {
    "name": "solc",
    "version": "0.6.12+commit.27d51765.Emscripten.clang"
  },
  "schemaVersion": "3.3.4",
  "updatedAt": "2021-12-04T13:09:51.940Z",
  "devdoc": {
    "kind": "dev",
    "methods": {},
    "version": 1
  },
  "userdoc": {
    "kind": "user",
    "methods": {},
    "version": 1
  }
}