{
  "contractName": "MasterChefV2",
  "abi": [
    {
      "inputs": [
        {
          "internalType": "address[]",
          "name": "_lib",
          "type": "address[]"
        },
        {
          "internalType": "address",
          "name": "_devaddr",
          "type": "address"
        },
        {
          "internalType": "address",
          "name": "_libRouter",
          "type": "address"
        },
        {
          "internalType": "address",
          "name": "_uniRouter",
          "type": "address"
        },
        {
          "internalType": "uint256",
          "name": "_libPerBlock",
          "type": "uint256"
        }
      ],
      "stateMutability": "nonpayable",
      "type": "constructor"
    },
    {
      "anonymous": false,
      "inputs": [
        {
          "indexed": true,
          "internalType": "address",
          "name": "user",
          "type": "address"
        },
        {
          "indexed": true,
          "internalType": "uint256",
          "name": "pid",
          "type": "uint256"
        },
        {
          "indexed": false,
          "internalType": "uint256",
          "name": "amount",
          "type": "uint256"
        },
        {
          "indexed": false,
          "internalType": "uint256",
          "name": "token1Amount",
          "type": "uint256"
        }
      ],
      "name": "Deposit",
      "type": "event"
    },
    {
      "anonymous": false,
      "inputs": [
        {
          "indexed": true,
          "internalType": "address",
          "name": "user",
          "type": "address"
        },
        {
          "indexed": true,
          "internalType": "uint256",
          "name": "pid",
          "type": "uint256"
        },
        {
          "indexed": false,
          "internalType": "uint256",
          "name": "amount",
          "type": "uint256"
        }
      ],
      "name": "EmergencyWithdraw",
      "type": "event"
    },
    {
      "anonymous": false,
      "inputs": [
        {
          "indexed": true,
          "internalType": "address",
          "name": "previousOwner",
          "type": "address"
        },
        {
          "indexed": true,
          "internalType": "address",
          "name": "newOwner",
          "type": "address"
        }
      ],
      "name": "OwnershipTransferred",
      "type": "event"
    },
    {
      "anonymous": false,
      "inputs": [
        {
          "indexed": true,
          "internalType": "address",
          "name": "user",
          "type": "address"
        },
        {
          "indexed": true,
          "internalType": "uint256",
          "name": "pid",
          "type": "uint256"
        },
        {
          "indexed": false,
          "internalType": "uint256",
          "name": "amount",
          "type": "uint256"
        }
      ],
      "name": "Withdraw",
      "type": "event"
    },
    {
      "inputs": [],
      "name": "WETH",
      "outputs": [
        {
          "internalType": "contract IWETH",
          "name": "",
          "type": "address"
        }
      ],
      "stateMutability": "view",
      "type": "function"
    },
    {
      "inputs": [],
      "name": "devaddr",
      "outputs": [
        {
          "internalType": "address",
          "name": "",
          "type": "address"
        }
      ],
      "stateMutability": "view",
      "type": "function"
    },
    {
      "inputs": [],
      "name": "lib",
      "outputs": [
        {
          "internalType": "contract ILibre",
          "name": "",
          "type": "address"
        }
      ],
      "stateMutability": "view",
      "type": "function"
    },
    {
      "inputs": [],
      "name": "libPerBlock",
      "outputs": [
        {
          "internalType": "uint256",
          "name": "",
          "type": "uint256"
        }
      ],
      "stateMutability": "view",
      "type": "function"
    },
    {
      "inputs": [],
      "name": "libreRouter",
      "outputs": [
        {
          "internalType": "contract IUniswapRouter",
          "name": "",
          "type": "address"
        }
      ],
      "stateMutability": "view",
      "type": "function"
    },
    {
      "inputs": [],
      "name": "owner",
      "outputs": [
        {
          "internalType": "address",
          "name": "",
          "type": "address"
        }
      ],
      "stateMutability": "view",
      "type": "function"
    },
    {
      "inputs": [
        {
          "internalType": "address",
          "name": "",
          "type": "address"
        }
      ],
      "name": "pidMapping",
      "outputs": [
        {
          "internalType": "uint256",
          "name": "",
          "type": "uint256"
        }
      ],
      "stateMutability": "view",
      "type": "function"
    },
    {
      "inputs": [
        {
          "internalType": "uint256",
          "name": "",
          "type": "uint256"
        }
      ],
      "name": "poolInfo",
      "outputs": [
        {
          "internalType": "contract IERC20",
          "name": "lpToken",
          "type": "address"
        },
        {
          "internalType": "uint256",
          "name": "allocPoint",
          "type": "uint256"
        },
        {
          "internalType": "uint256",
          "name": "lastRewardBlock",
          "type": "uint256"
        },
        {
          "internalType": "address",
          "name": "routerAddress",
          "type": "address"
        },
        {
          "internalType": "uint256",
          "name": "accLibPerShare",
          "type": "uint256"
        },
        {
          "internalType": "bool",
          "name": "isETHPair",
          "type": "bool"
        }
      ],
      "stateMutability": "view",
      "type": "function"
    },
    {
      "inputs": [],
      "name": "renounceOwnership",
      "outputs": [],
      "stateMutability": "nonpayable",
      "type": "function"
    },
    {
      "inputs": [],
      "name": "startBlock",
      "outputs": [
        {
          "internalType": "uint256",
          "name": "",
          "type": "uint256"
        }
      ],
      "stateMutability": "view",
      "type": "function"
    },
    {
      "inputs": [],
      "name": "totalAllocPoint",
      "outputs": [
        {
          "internalType": "uint256",
          "name": "",
          "type": "uint256"
        }
      ],
      "stateMutability": "view",
      "type": "function"
    },
    {
      "inputs": [],
      "name": "totalStaked",
      "outputs": [
        {
          "internalType": "uint256",
          "name": "",
          "type": "uint256"
        }
      ],
      "stateMutability": "view",
      "type": "function"
    },
    {
      "inputs": [
        {
          "internalType": "address",
          "name": "newOwner",
          "type": "address"
        }
      ],
      "name": "transferOwnership",
      "outputs": [],
      "stateMutability": "nonpayable",
      "type": "function"
    },
    {
      "inputs": [],
      "name": "uniRouter",
      "outputs": [
        {
          "internalType": "contract IUniswapRouter",
          "name": "",
          "type": "address"
        }
      ],
      "stateMutability": "view",
      "type": "function"
    },
    {
      "inputs": [
        {
          "internalType": "uint256",
          "name": "",
          "type": "uint256"
        },
        {
          "internalType": "address",
          "name": "",
          "type": "address"
        }
      ],
      "name": "userInfo",
      "outputs": [
        {
          "internalType": "uint256",
          "name": "amount",
          "type": "uint256"
        },
        {
          "internalType": "uint256",
          "name": "rewardDebt",
          "type": "uint256"
        }
      ],
      "stateMutability": "view",
      "type": "function"
    },
    {
      "stateMutability": "payable",
      "type": "receive"
    },
    {
      "inputs": [
        {
          "internalType": "uint256",
          "name": "_libPerBlock",
          "type": "uint256"
        }
      ],
      "name": "setLibrePerBlock",
      "outputs": [],
      "stateMutability": "nonpayable",
      "type": "function"
    },
    {
      "inputs": [],
      "name": "poolLength",
      "outputs": [
        {
          "internalType": "uint256",
          "name": "",
          "type": "uint256"
        }
      ],
      "stateMutability": "view",
      "type": "function"
    },
    {
      "inputs": [
        {
          "internalType": "uint256",
          "name": "_pid",
          "type": "uint256"
        }
      ],
      "name": "getPoolInfo",
      "outputs": [
        {
          "internalType": "address",
          "name": "lp",
          "type": "address"
        },
        {
          "internalType": "uint256",
          "name": "allocPoint",
          "type": "uint256"
        },
        {
          "internalType": "uint256",
          "name": "lastRewardBlock",
          "type": "uint256"
        },
        {
          "internalType": "address[]",
          "name": "lpPath",
          "type": "address[]"
        },
        {
          "internalType": "uint256",
          "name": "accLibPerShare",
          "type": "uint256"
        },
        {
          "internalType": "bool",
          "name": "isETHpair",
          "type": "bool"
        },
        {
          "internalType": "address",
          "name": "router",
          "type": "address"
        }
      ],
      "stateMutability": "view",
      "type": "function"
    },
    {
      "inputs": [
        {
          "internalType": "address",
          "name": "_router",
          "type": "address"
        },
        {
          "internalType": "uint8",
          "name": "index",
          "type": "uint8"
        }
      ],
      "name": "setRouter",
      "outputs": [],
      "stateMutability": "nonpayable",
      "type": "function"
    },
    {
      "inputs": [
        {
          "internalType": "uint8",
          "name": "_pid",
          "type": "uint8"
        }
      ],
      "name": "forAPYC",
      "outputs": [
        {
          "internalType": "contract IERC20",
          "name": "",
          "type": "address"
        },
        {
          "internalType": "address[]",
          "name": "",
          "type": "address[]"
        },
        {
          "internalType": "uint256",
          "name": "",
          "type": "uint256"
        }
      ],
      "stateMutability": "view",
      "type": "function"
    },
    {
      "inputs": [
        {
          "internalType": "uint256",
          "name": "_allocPoint",
          "type": "uint256"
        },
        {
          "internalType": "contract IERC20",
          "name": "_lpToken",
          "type": "address"
        },
        {
          "internalType": "address[]",
          "name": "_lpPath",
          "type": "address[]"
        },
        {
          "internalType": "bool",
          "name": "_withUpdate",
          "type": "bool"
        },
        {
          "internalType": "bool",
          "name": "_isETHPair",
          "type": "bool"
        }
      ],
      "name": "add",
      "outputs": [],
      "stateMutability": "nonpayable",
      "type": "function"
    },
    {
      "inputs": [
        {
          "internalType": "uint256",
          "name": "_pid",
          "type": "uint256"
        },
        {
          "internalType": "uint256",
          "name": "_allocPoint",
          "type": "uint256"
        },
        {
          "internalType": "address[]",
          "name": "_lpPath",
          "type": "address[]"
        },
        {
          "internalType": "address",
          "name": "_router",
          "type": "address"
        },
        {
          "internalType": "bool",
          "name": "_withUpdate",
          "type": "bool"
        }
      ],
      "name": "set",
      "outputs": [],
      "stateMutability": "nonpayable",
      "type": "function"
    },
    {
      "inputs": [
        {
          "internalType": "uint256",
          "name": "_pid",
          "type": "uint256"
        },
        {
          "internalType": "address",
          "name": "_user",
          "type": "address"
        }
      ],
      "name": "pendingLib",
      "outputs": [
        {
          "internalType": "uint256",
          "name": "",
          "type": "uint256"
        }
      ],
      "stateMutability": "view",
      "type": "function"
    },
    {
      "inputs": [],
      "name": "massUpdatePools",
      "outputs": [],
      "stateMutability": "nonpayable",
      "type": "function"
    },
    {
      "inputs": [
        {
          "internalType": "uint256",
          "name": "_pid",
          "type": "uint256"
        }
      ],
      "name": "updatePool",
      "outputs": [],
      "stateMutability": "nonpayable",
      "type": "function"
    },
    {
      "inputs": [
        {
          "internalType": "uint256",
          "name": "_amount",
          "type": "uint256"
        }
      ],
      "name": "stake",
      "outputs": [],
      "stateMutability": "nonpayable",
      "type": "function"
    },
    {
      "inputs": [
        {
          "internalType": "uint256",
          "name": "_amount",
          "type": "uint256"
        }
      ],
      "name": "unstake",
      "outputs": [],
      "stateMutability": "nonpayable",
      "type": "function"
    },
    {
      "inputs": [
        {
          "internalType": "uint256",
          "name": "_pid",
          "type": "uint256"
        }
      ],
      "name": "claimReward",
      "outputs": [],
      "stateMutability": "nonpayable",
      "type": "function"
    },
    {
      "inputs": [],
      "name": "restake",
      "outputs": [],
      "stateMutability": "nonpayable",
      "type": "function"
    },
    {
      "inputs": [
        {
          "internalType": "uint256",
          "name": "_pid",
          "type": "uint256"
        },
        {
          "internalType": "uint256",
          "name": "_amount",
          "type": "uint256"
        }
      ],
      "name": "depositLP",
      "outputs": [],
      "stateMutability": "nonpayable",
      "type": "function"
    },
    {
      "inputs": [
        {
          "internalType": "uint256",
          "name": "_pid",
          "type": "uint256"
        },
        {
          "internalType": "uint256",
          "name": "_amount",
          "type": "uint256"
        },
        {
          "internalType": "uint8",
          "name": "_slippage",
          "type": "uint8"
        },
        {
          "internalType": "bool",
          "name": "_revert",
          "type": "bool"
        }
      ],
      "name": "deposit",
      "outputs": [],
      "stateMutability": "payable",
      "type": "function"
    },
    {
      "inputs": [
        {
          "internalType": "uint256",
          "name": "_pid",
          "type": "uint256"
        },
        {
          "internalType": "uint256",
          "name": "_amount",
          "type": "uint256"
        }
      ],
      "name": "withdraw",
      "outputs": [],
      "stateMutability": "payable",
      "type": "function"
    },
    {
      "inputs": [
        {
          "internalType": "uint256",
          "name": "_pid",
          "type": "uint256"
        }
      ],
      "name": "emergencyWithdraw",
      "outputs": [],
      "stateMutability": "nonpayable",
      "type": "function"
    },
    {
      "inputs": [
        {
          "internalType": "address",
          "name": "_devaddr",
          "type": "address"
        }
      ],
      "name": "dev",
      "outputs": [],
      "stateMutability": "nonpayable",
      "type": "function"
    }
  ],
  "bytecode": "0x60806040526000600b556000600d553480156200001b57600080fd5b5060405162007f2f38038062007f2f833981810160405260a08110156200004157600080fd5b81019080805160405193929190846401000000008211156200006257600080fd5b838201915060208201858111156200007957600080fd5b82518660208202830111640100000000821117156200009757600080fd5b8083526020830192505050908051906020019060200280838360005b83811015620000d0578082015181840152602081019050620000b3565b505050509050016040526020018051906020019092919080519060200190929190805190602001909291908051906020019092919050505060006200011a6200063860201b60201c565b9050806000806101000a81548173ffffffffffffffffffffffffffffffffffffffff021916908373ffffffffffffffffffffffffffffffffffffffff1602179055508073ffffffffffffffffffffffffffffffffffffffff16600073ffffffffffffffffffffffffffffffffffffffff167f8be0079c531659141344cd1fd0a4f28419497f9722a3daafe3b4186f6b6457e060405160405180910390a3506001600281905550600073ffffffffffffffffffffffffffffffffffffffff168473ffffffffffffffffffffffffffffffffffffffff16141562000264576040517f08c379a00000000000000000000000000000000000000000000000000000000081526004018080602001828103825260148152602001807f5f646576616464722063616e6e6f74206265203000000000000000000000000081525060200191505060405180910390fd5b846000815181106200027257fe5b6020026020010151600360006101000a81548173ffffffffffffffffffffffffffffffffffffffff021916908373ffffffffffffffffffffffffffffffffffffffff16021790555082600760006101000a81548173ffffffffffffffffffffffffffffffffffffffff021916908373ffffffffffffffffffffffffffffffffffffffff16021790555081600660006101000a81548173ffffffffffffffffffffffffffffffffffffffff021916908373ffffffffffffffffffffffffffffffffffffffff16021790555083600460006101000a81548173ffffffffffffffffffffffffffffffffffffffff021916908373ffffffffffffffffffffffffffffffffffffffff16021790555080600581905550620003a1600a600b546200064060201b620056731790919060201c565b600b81905550600660009054906101000a900473ffffffffffffffffffffffffffffffffffffffff1673ffffffffffffffffffffffffffffffffffffffff1663ad5c46486040518163ffffffff1660e01b815260040160206040518083038186803b1580156200041057600080fd5b505afa15801562000425573d6000803e3d6000fd5b505050506040513d60208110156200043c57600080fd5b8101908080519060200190929190505050600e60006101000a81548173ffffffffffffffffffffffffffffffffffffffff021916908373ffffffffffffffffffffffffffffffffffffffff16021790555060086040518060e00160405280600360009054906101000a900473ffffffffffffffffffffffffffffffffffffffff1673ffffffffffffffffffffffffffffffffffffffff168152602001600a815260200160008152602001878152602001600073ffffffffffffffffffffffffffffffffffffffff1681526020016000815260200160001515815250908060018154018082558091505060019003906000526020600020906007020160009091909190915060008201518160000160006101000a81548173ffffffffffffffffffffffffffffffffffffffff021916908373ffffffffffffffffffffffffffffffffffffffff16021790555060208201518160010155604082015181600201556060820151816003019080519060200190620005b9929190620006c9565b5060808201518160040160006101000a81548173ffffffffffffffffffffffffffffffffffffffff021916908373ffffffffffffffffffffffffffffffffffffffff16021790555060a0820151816005015560c08201518160060160006101000a81548160ff0219169083151502179055505050505050505062000795565b600033905090565b600080828401905083811015620006bf576040517f08c379a000000000000000000000000000000000000000000000000000000000815260040180806020018281038252601b8152602001807f536166654d6174683a206164646974696f6e206f766572666c6f77000000000081525060200191505060405180910390fd5b8091505092915050565b82805482825590600052602060002090810192821562000745579160200282015b82811115620007445782518260006101000a81548173ffffffffffffffffffffffffffffffffffffffff021916908373ffffffffffffffffffffffffffffffffffffffff16021790555091602001919060010190620006ea565b5b50905062000754919062000758565b5090565b5b808211156200079157600081816101000a81549073ffffffffffffffffffffffffffffffffffffffff02191690555060010162000759565b5090565b61778a80620007a56000396000f3fe6080604052600436106101fd5760003560e01c80638d88a90e1161010d578063ae169a50116100a0578063c31ed3971161006f578063c31ed39714610b4d578063ccb7499714610b9e578063d49e77cd14610ca3578063d603320614610ce4578063f2fde38b14610d1f57610204565b8063ae169a5014610a3d578063b170050314610a78578063b7521b7f14610aa3578063bfe50f7214610b0857610204565b806393f1a40b116100dc57806393f1a40b1461090a578063a0e47bf614610980578063a694fc3a146109c1578063ad5c4648146109fc57610204565b80638d88a90e146107c85780638da5cb5b14610819578063928012301461085a5780639381ff581461089b57610204565b80634f91440d11610190578063630b5ba11161015f578063630b5ba1146106d0578063715018a6146106e757806371663c8a146106fe578063817b1cd21461073f57806383f1d6811461076a57610204565b80634f91440d1461053c57806351eb05a6146105535780635312ea8e1461058e5780635de98a01146105c957610204565b80632f380b35116101cc5780632f380b351461033a5780633abb781014610422578063441a3e70146104d957806348cd4cb11461051157610204565b8063081e3eda146102095780631526fe271461023457806317caf6f1146102d45780632e17de78146102ff57610204565b3661020457005b600080fd5b34801561021557600080fd5b5061021e610d70565b6040518082815260200191505060405180910390f35b34801561024057600080fd5b5061026d6004803603602081101561025757600080fd5b8101908080359060200190929190505050610d7d565b604051808773ffffffffffffffffffffffffffffffffffffffff1681526020018681526020018581526020018473ffffffffffffffffffffffffffffffffffffffff1681526020018381526020018215158152602001965050505050505060405180910390f35b3480156102e057600080fd5b506102e9610e13565b6040518082815260200191505060405180910390f35b34801561030b57600080fd5b506103386004803603602081101561032257600080fd5b8101908080359060200190929190505050610e19565b005b34801561034657600080fd5b506103736004803603602081101561035d57600080fd5b8101908080359060200190929190505050611203565b604051808873ffffffffffffffffffffffffffffffffffffffff1681526020018781526020018681526020018060200185815260200184151581526020018373ffffffffffffffffffffffffffffffffffffffff168152602001828103825286818151815260200191508051906020019060200280838360005b838110156104085780820151818401526020810190506103ed565b505050509050019850505050505050505060405180910390f35b34801561042e57600080fd5b5061045e6004803603602081101561044557600080fd5b81019080803560ff16906020019092919050505061133e565b604051808473ffffffffffffffffffffffffffffffffffffffff16815260200180602001838152602001828103825284818151815260200191508051906020019060200280838360005b838110156104c35780820151818401526020810190506104a8565b5050505090500194505050505060405180910390f35b61050f600480360360408110156104ef57600080fd5b81019080803590602001909291908035906020019092919050505061145e565b005b34801561051d57600080fd5b50610526611fcc565b6040518082815260200191505060405180910390f35b34801561054857600080fd5b50610551611fd2565b005b34801561055f57600080fd5b5061058c6004803603602081101561057657600080fd5b810190808035906020019092919050505061235d565b005b34801561059a57600080fd5b506105c7600480360360208110156105b157600080fd5b8101908080359060200190929190505050612655565b005b3480156105d557600080fd5b506106ce600480360360a08110156105ec57600080fd5b8101908080359060200190929190803573ffffffffffffffffffffffffffffffffffffffff1690602001909291908035906020019064010000000081111561063357600080fd5b82018360208201111561064557600080fd5b8035906020019184602083028401116401000000008311171561066757600080fd5b919080806020026020016040519081016040528093929190818152602001838360200280828437600081840152601f19601f82011690508083019250505050505050919291929080351515906020019092919080351515906020019092919050505061284a565b005b3480156106dc57600080fd5b506106e56135a8565b005b3480156106f357600080fd5b506106fc6135d5565b005b34801561070a57600080fd5b5061071361375b565b604051808273ffffffffffffffffffffffffffffffffffffffff16815260200191505060405180910390f35b34801561074b57600080fd5b50610754613781565b6040518082815260200191505060405180910390f35b34801561077657600080fd5b506107c66004803603604081101561078d57600080fd5b81019080803573ffffffffffffffffffffffffffffffffffffffff169060200190929190803560ff169060200190929190505050613787565b005b3480156107d457600080fd5b50610817600480360360208110156107eb57600080fd5b81019080803573ffffffffffffffffffffffffffffffffffffffff169060200190929190505050613997565b005b34801561082557600080fd5b5061082e613a9e565b604051808273ffffffffffffffffffffffffffffffffffffffff16815260200191505060405180910390f35b34801561086657600080fd5b5061086f613ac7565b604051808273ffffffffffffffffffffffffffffffffffffffff16815260200191505060405180910390f35b3480156108a757600080fd5b506108f4600480360360408110156108be57600080fd5b8101908080359060200190929190803573ffffffffffffffffffffffffffffffffffffffff169060200190929190505050613aed565b6040518082815260200191505060405180910390f35b34801561091657600080fd5b506109636004803603604081101561092d57600080fd5b8101908080359060200190929190803573ffffffffffffffffffffffffffffffffffffffff169060200190929190505050613db0565b604051808381526020018281526020019250505060405180910390f35b34801561098c57600080fd5b50610995613de1565b604051808273ffffffffffffffffffffffffffffffffffffffff16815260200191505060405180910390f35b3480156109cd57600080fd5b506109fa600480360360208110156109e457600080fd5b8101908080359060200190929190505050613e07565b005b348015610a0857600080fd5b50610a1161419a565b604051808273ffffffffffffffffffffffffffffffffffffffff16815260200191505060405180910390f35b348015610a4957600080fd5b50610a7660048036036020811015610a6057600080fd5b81019080803590602001909291905050506141c0565b005b348015610a8457600080fd5b50610a8d614590565b6040518082815260200191505060405180910390f35b348015610aaf57600080fd5b50610af260048036036020811015610ac657600080fd5b81019080803573ffffffffffffffffffffffffffffffffffffffff169060200190929190505050614596565b6040518082815260200191505060405180910390f35b348015610b1457600080fd5b50610b4b60048036036040811015610b2b57600080fd5b8101908080359060200190929190803590602001909291905050506145ae565b005b610b9c60048036036080811015610b6357600080fd5b810190808035906020019092919080359060200190929190803560ff169060200190929190803515159060200190929190505050614956565b005b348015610baa57600080fd5b50610ca1600480360360a0811015610bc157600080fd5b81019080803590602001909291908035906020019092919080359060200190640100000000811115610bf257600080fd5b820183602082011115610c0457600080fd5b80359060200191846020830284011164010000000083111715610c2657600080fd5b919080806020026020016040519081016040528093929190818152602001838360200280828437600081840152601f19601f820116905080830192505050505050509192919290803573ffffffffffffffffffffffffffffffffffffffff16906020019092919080351515906020019092919050505061524f565b005b348015610caf57600080fd5b50610cb86154a7565b604051808273ffffffffffffffffffffffffffffffffffffffff16815260200191505060405180910390f35b348015610cf057600080fd5b50610d1d60048036036020811015610d0757600080fd5b81019080803590602001909291905050506154cd565b005b348015610d2b57600080fd5b50610d6e60048036036020811015610d4257600080fd5b81019080803573ffffffffffffffffffffffffffffffffffffffff16906020019092919050505061559f565b005b6000600880549050905090565b60088181548110610d8a57fe5b90600052602060002090600702016000915090508060000160009054906101000a900473ffffffffffffffffffffffffffffffffffffffff16908060010154908060020154908060040160009054906101000a900473ffffffffffffffffffffffffffffffffffffffff16908060050154908060060160009054906101000a900460ff16905086565b600b5481565b600280541415610e91576040517f08c379a000000000000000000000000000000000000000000000000000000000815260040180806020018281038252601f8152602001807f5265656e7472616e637947756172643a207265656e7472616e742063616c6c0081525060200191505060405180910390fd5b6002808190555060006008600081548110610ea857fe5b9060005260206000209060070201905060006009600080815260200190815260200160002060003373ffffffffffffffffffffffffffffffffffffffff1673ffffffffffffffffffffffffffffffffffffffff16815260200190815260200160002090503073ffffffffffffffffffffffffffffffffffffffff16600360009054906101000a900473ffffffffffffffffffffffffffffffffffffffff1673ffffffffffffffffffffffffffffffffffffffff16631fc8bc5d6040518163ffffffff1660e01b815260040160206040518083038186803b158015610f8b57600080fd5b505afa158015610f9f573d6000803e3d6000fd5b505050506040513d6020811015610fb557600080fd5b810190808051906020019092919050505073ffffffffffffffffffffffffffffffffffffffff161415610fed57610fec600061235d565b5b61100283600d546156fb90919063ffffffff16565b600d819055508281600001541015611082576040517f08c379a00000000000000000000000000000000000000000000000000000000081526004018080602001828103825260128152602001807f77697468647261773a206e6f7420676f6f64000000000000000000000000000081525060200191505060405180910390fd5b60006110cc82600101546110be64e8d4a510006110b08760050154876000015461574590919063ffffffff16565b6157cb90919063ffffffff16565b6156fb90919063ffffffff16565b905060006110f760646110e960028561574590919063ffffffff16565b6157cb90919063ffffffff16565b90506111108584600001546156fb90919063ffffffff16565b83600001819055506111343361112f83856156fb90919063ffffffff16565b615815565b611160600460009054906101000a900473ffffffffffffffffffffffffffffffffffffffff1682615815565b61119264e8d4a510006111848660050154866000015461574590919063ffffffff16565b6157cb90919063ffffffff16565b83600101819055506111a43386615815565b60003373ffffffffffffffffffffffffffffffffffffffff167ff279e6a1f5e320cca91135676d9cb6e44ca8a08c0b88342bcdb1144f6511b568876040518082815260200191505060405180910390a350505050600160028190555050565b600080600060606000806000806008898154811061121d57fe5b906000526020600020906007020190508060000160009054906101000a900473ffffffffffffffffffffffffffffffffffffffff16816001015482600201548360030184600501548560060160009054906101000a900460ff168660040160009054906101000a900473ffffffffffffffffffffffffffffffffffffffff168380548060200260200160405190810160405280929190818152602001828054801561131d57602002820191906000526020600020905b8160009054906101000a900473ffffffffffffffffffffffffffffffffffffffff1673ffffffffffffffffffffffffffffffffffffffff16815260200190600101908083116112d3575b50505050509350975097509750975097509750975050919395979092949650565b60006060600060088460ff168154811061135457fe5b906000526020600020906007020160000160009054906101000a900473ffffffffffffffffffffffffffffffffffffffff1660088560ff168154811061139657fe5b906000526020600020906007020160030160088660ff16815481106113b757fe5b9060005260206000209060070201600101548180548060200260200160405190810160405280929190818152602001828054801561144a57602002820191906000526020600020905b8160009054906101000a900473ffffffffffffffffffffffffffffffffffffffff1673ffffffffffffffffffffffffffffffffffffffff1681526020019060010190808311611400575b505050505091509250925092509193909250565b8160088054905081106114d9576040517f08c379a00000000000000000000000000000000000000000000000000000000081526004018080602001828103825260138152602001807f506f6f6c20646f6573206e6f742065786973740000000000000000000000000081525060200191505060405180910390fd5b600280541415611551576040517f08c379a000000000000000000000000000000000000000000000000000000000815260040180806020018281038252601f8152602001807f5265656e7472616e637947756172643a207265656e7472616e742063616c6c0081525060200191505060405180910390fd5b60028081905550600083116115ce576040517f08c379a00000000000000000000000000000000000000000000000000000000081526004018080602001828103825260158152602001807f706f6f6c203020697320666f72207374616b696e67000000000000000000000081525060200191505060405180910390fd5b6000600884815481106115dd57fe5b9060005260206000209060070201905060006009600086815260200190815260200160002060003373ffffffffffffffffffffffffffffffffffffffff1673ffffffffffffffffffffffffffffffffffffffff168152602001908152602001600020905060008260030160008154811061165357fe5b9060005260206000200160009054906101000a900473ffffffffffffffffffffffffffffffffffffffff16905060008360030160018154811061169257fe5b9060005260206000200160009054906101000a900473ffffffffffffffffffffffffffffffffffffffff1690508583600001541015611739576040517f08c379a00000000000000000000000000000000000000000000000000000000081526004018080602001828103825260128152602001807f77697468647261773a206e6f7420676f6f64000000000000000000000000000081525060200191505060405180910390fd5b3073ffffffffffffffffffffffffffffffffffffffff16600360009054906101000a900473ffffffffffffffffffffffffffffffffffffffff1673ffffffffffffffffffffffffffffffffffffffff16631fc8bc5d6040518163ffffffff1660e01b815260040160206040518083038186803b1580156117b857600080fd5b505afa1580156117cc573d6000803e3d6000fd5b505050506040513d60208110156117e257600080fd5b810190808051906020019092919050505073ffffffffffffffffffffffffffffffffffffffff161415611819576118188761235d565b5b6000611863846001015461185564e8d4a510006118478960050154896000015461574590919063ffffffff16565b6157cb90919063ffffffff16565b6156fb90919063ffffffff16565b9050600061188e606461188060028561574590919063ffffffff16565b6157cb90919063ffffffff16565b905060008473ffffffffffffffffffffffffffffffffffffffff166370a08231306040518263ffffffff1660e01b8152600401808273ffffffffffffffffffffffffffffffffffffffff16815260200191505060206040518083038186803b1580156118f957600080fd5b505afa15801561190d573d6000803e3d6000fd5b505050506040513d602081101561192357600080fd5b8101908080519060200190929190505050905060008473ffffffffffffffffffffffffffffffffffffffff166370a08231306040518263ffffffff1660e01b8152600401808273ffffffffffffffffffffffffffffffffffffffff16815260200191505060206040518083038186803b15801561199f57600080fd5b505afa1580156119b3573d6000803e3d6000fd5b505050506040513d60208110156119c957600080fd5b81019080805190602001909291905050509050600760009054906101000a900473ffffffffffffffffffffffffffffffffffffffff1673ffffffffffffffffffffffffffffffffffffffff1663baa2abde87878d60008030426040518863ffffffff1660e01b8152600401808873ffffffffffffffffffffffffffffffffffffffff1681526020018773ffffffffffffffffffffffffffffffffffffffff1681526020018681526020018581526020018481526020018373ffffffffffffffffffffffffffffffffffffffff1681526020018281526020019750505050505050506040805180830381600087803b158015611ac357600080fd5b505af1158015611ad7573d6000803e3d6000fd5b505050506040513d6040811015611aed57600080fd5b81019080805190602001909291908051906020019092919050505050506000611bc0838873ffffffffffffffffffffffffffffffffffffffff166370a08231306040518263ffffffff1660e01b8152600401808273ffffffffffffffffffffffffffffffffffffffff16815260200191505060206040518083038186803b158015611b7757600080fd5b505afa158015611b8b573d6000803e3d6000fd5b505050506040513d6020811015611ba157600080fd5b81019080805190602001909291905050506156fb90919063ffffffff16565b90506000611c78838873ffffffffffffffffffffffffffffffffffffffff166370a08231306040518263ffffffff1660e01b8152600401808273ffffffffffffffffffffffffffffffffffffffff16815260200191505060206040518083038186803b158015611c2f57600080fd5b505afa158015611c43573d6000803e3d6000fd5b505050506040513d6020811015611c5957600080fd5b81019080805190602001909291905050506156fb90919063ffffffff16565b9050611c918c8a600001546156fb90919063ffffffff16565b8960000181905550611cb533611cb087896156fb90919063ffffffff16565b615815565b611ce1600460009054906101000a900473ffffffffffffffffffffffffffffffffffffffff1686615815565b611d1364e8d4a51000611d058c600501548c6000015461574590919063ffffffff16565b6157cb90919063ffffffff16565b89600101819055508960060160009054906101000a900460ff1615611e0b57600e60009054906101000a900473ffffffffffffffffffffffffffffffffffffffff1673ffffffffffffffffffffffffffffffffffffffff16632e1a7d4d836040518263ffffffff1660e01b815260040180828152602001915050600060405180830381600087803b158015611da757600080fd5b505af1158015611dbb573d6000803e3d6000fd5b505050503373ffffffffffffffffffffffffffffffffffffffff166108fc839081150290604051600060405180830381858888f19350505050158015611e05573d6000803e3d6000fd5b50611eb9565b8773ffffffffffffffffffffffffffffffffffffffff1663a9059cbb33846040518363ffffffff1660e01b8152600401808373ffffffffffffffffffffffffffffffffffffffff16815260200182815260200192505050602060405180830381600087803b158015611e7c57600080fd5b505af1158015611e90573d6000803e3d6000fd5b505050506040513d6020811015611ea657600080fd5b8101908080519060200190929190505050505b8673ffffffffffffffffffffffffffffffffffffffff1663a9059cbb33836040518363ffffffff1660e01b8152600401808373ffffffffffffffffffffffffffffffffffffffff16815260200182815260200192505050602060405180830381600087803b158015611f2a57600080fd5b505af1158015611f3e573d6000803e3d6000fd5b505050506040513d6020811015611f5457600080fd5b8101908080519060200190929190505050508c3373ffffffffffffffffffffffffffffffffffffffff167ff279e6a1f5e320cca91135676d9cb6e44ca8a08c0b88342bcdb1144f6511b5688e6040518082815260200191505060405180910390a3505050505050505050506001600281905550505050565b600c5481565b60028054141561204a576040517f08c379a000000000000000000000000000000000000000000000000000000000815260040180806020018281038252601f8152602001807f5265656e7472616e637947756172643a207265656e7472616e742063616c6c0081525060200191505060405180910390fd5b600280819055506000600860008154811061206157fe5b9060005260206000209060070201905060006009600080815260200190815260200160002060003373ffffffffffffffffffffffffffffffffffffffff1673ffffffffffffffffffffffffffffffffffffffff16815260200190815260200160002090503073ffffffffffffffffffffffffffffffffffffffff16600360009054906101000a900473ffffffffffffffffffffffffffffffffffffffff1673ffffffffffffffffffffffffffffffffffffffff16631fc8bc5d6040518163ffffffff1660e01b815260040160206040518083038186803b15801561214457600080fd5b505afa158015612158573d6000803e3d6000fd5b505050506040513d602081101561216e57600080fd5b810190808051906020019092919050505073ffffffffffffffffffffffffffffffffffffffff1614612208576040517f08c379a00000000000000000000000000000000000000000000000000000000081526004018080602001828103825260158152602001807f4c696272653a204661726d20697320636c6f736564000000000000000000000081525060200191505060405180910390fd5b612212600061235d565b600081600001541115612317576000612269826001015461225b64e8d4a5100061224d8760050154876000015461574590919063ffffffff16565b6157cb90919063ffffffff16565b6156fb90919063ffffffff16565b90506000612294606461228660028561574590919063ffffffff16565b6157cb90919063ffffffff16565b90506122c2600460009054906101000a900473ffffffffffffffffffffffffffffffffffffffff1682615815565b60006122d782846156fb90919063ffffffff16565b90506122f081856000015461567390919063ffffffff16565b846000018190555061230d81600d5461567390919063ffffffff16565b600d819055505050505b61234964e8d4a5100061233b8460050154846000015461574590919063ffffffff16565b6157cb90919063ffffffff16565b816001018190555050506001600281905550565b8060088054905081106123d8576040517f08c379a00000000000000000000000000000000000000000000000000000000081526004018080602001828103825260138152602001807f506f6f6c20646f6573206e6f742065786973740000000000000000000000000081525060200191505060405180910390fd5b6000600883815481106123e757fe5b90600052602060002090600702019050806002015443116124085750612651565b60008084146124dc578160000160009054906101000a900473ffffffffffffffffffffffffffffffffffffffff1673ffffffffffffffffffffffffffffffffffffffff166370a08231306040518263ffffffff1660e01b8152600401808273ffffffffffffffffffffffffffffffffffffffff16815260200191505060206040518083038186803b15801561249c57600080fd5b505afa1580156124b0573d6000803e3d6000fd5b505050506040513d60208110156124c657600080fd5b81019080805190602001909291905050506124e0565b600d545b905060008114156124fb574382600201819055505050612651565b600061250b836002015443615a8e565b9050600061254e600b5461254086600101546125326005548761574590919063ffffffff16565b61574590919063ffffffff16565b6157cb90919063ffffffff16565b9050600360009054906101000a900473ffffffffffffffffffffffffffffffffffffffff1673ffffffffffffffffffffffffffffffffffffffff166340c10f1930836040518363ffffffff1660e01b8152600401808373ffffffffffffffffffffffffffffffffffffffff16815260200182815260200192505050600060405180830381600087803b1580156125e357600080fd5b505af11580156125f7573d6000803e3d6000fd5b5050505061263b6126288461261a64e8d4a510008561574590919063ffffffff16565b6157cb90919063ffffffff16565b856005015461567390919063ffffffff16565b8460050181905550438460020181905550505050505b5050565b6002805414156126cd576040517f08c379a000000000000000000000000000000000000000000000000000000000815260040180806020018281038252601f8152602001807f5265656e7472616e637947756172643a207265656e7472616e742063616c6c0081525060200191505060405180910390fd5b600280819055506000600882815481106126e357fe5b9060005260206000209060070201905060006009600084815260200190815260200160002060003373ffffffffffffffffffffffffffffffffffffffff1673ffffffffffffffffffffffffffffffffffffffff168152602001908152602001600020905060008311156127a8576127a33382600001548460000160009054906101000a900473ffffffffffffffffffffffffffffffffffffffff1673ffffffffffffffffffffffffffffffffffffffff16615b069092919063ffffffff16565b6127d6565b6127b6338260000154615815565b6127cf8160000154600d546156fb90919063ffffffff16565b600d819055505b823373ffffffffffffffffffffffffffffffffffffffff167fbb757047c2b5f3974fe26b7c10f732e7bce710b0952a71082702781e62ae059583600001546040518082815260200191505060405180910390a360008160000181905550600081600101819055505050600160028190555050565b612852615ba8565b73ffffffffffffffffffffffffffffffffffffffff1660008054906101000a900473ffffffffffffffffffffffffffffffffffffffff1673ffffffffffffffffffffffffffffffffffffffff1614612912576040517f08c379a00000000000000000000000000000000000000000000000000000000081526004018080602001828103825260208152602001807f4f776e61626c653a2063616c6c6572206973206e6f7420746865206f776e657281525060200191505060405180910390fd5b6000600a60008673ffffffffffffffffffffffffffffffffffffffff1673ffffffffffffffffffffffffffffffffffffffff16815260200190815260200160002054146129c7576040517f08c379a00000000000000000000000000000000000000000000000000000000081526004018080602001828103825260128152602001807f4c5020616c726561647920696e20706f6f6c000000000000000000000000000081525060200191505060405180910390fd5b600360009054906101000a900473ffffffffffffffffffffffffffffffffffffffff1673ffffffffffffffffffffffffffffffffffffffff168473ffffffffffffffffffffffffffffffffffffffff161415612a8b576040517f08c379a00000000000000000000000000000000000000000000000000000000081526004018080602001828103825260128152602001807f4c502063616e6e6f74206265204c49425245000000000000000000000000000081525060200191505060405180910390fd5b600880549050600a60008673ffffffffffffffffffffffffffffffffffffffff1673ffffffffffffffffffffffffffffffffffffffff168152602001908152602001600020819055508115612ae357612ae26135a8565b5b6000600c544311612af657600c54612af8565b435b9050612b0f86600b5461567390919063ffffffff16565b600b81905550600084600081518110612b2457fe5b60200260200101519050600085600181518110612b3d57fe5b60200260200101519050600087905086600081518110612b5957fe5b602002602001015173ffffffffffffffffffffffffffffffffffffffff168173ffffffffffffffffffffffffffffffffffffffff16630dfe16816040518163ffffffff1660e01b815260040160206040518083038186803b158015612bbd57600080fd5b505afa158015612bd1573d6000803e3d6000fd5b505050506040513d6020811015612be757600080fd5b810190808051906020019092919050505073ffffffffffffffffffffffffffffffffffffffff16148015612cda575086600181518110612c2357fe5b602002602001015173ffffffffffffffffffffffffffffffffffffffff168173ffffffffffffffffffffffffffffffffffffffff1663d21220a76040518163ffffffff1660e01b815260040160206040518083038186803b158015612c8757600080fd5b505afa158015612c9b573d6000803e3d6000fd5b505050506040513d6020811015612cb157600080fd5b810190808051906020019092919050505073ffffffffffffffffffffffffffffffffffffffff16145b80612e6f575086600181518110612ced57fe5b602002602001015173ffffffffffffffffffffffffffffffffffffffff168173ffffffffffffffffffffffffffffffffffffffff16630dfe16816040518163ffffffff1660e01b815260040160206040518083038186803b158015612d5157600080fd5b505afa158015612d65573d6000803e3d6000fd5b505050506040513d6020811015612d7b57600080fd5b810190808051906020019092919050505073ffffffffffffffffffffffffffffffffffffffff16148015612e6e575086600081518110612db757fe5b602002602001015173ffffffffffffffffffffffffffffffffffffffff168173ffffffffffffffffffffffffffffffffffffffff1663d21220a76040518163ffffffff1660e01b815260040160206040518083038186803b158015612e1b57600080fd5b505afa158015612e2f573d6000803e3d6000fd5b505050506040513d6020811015612e4557600080fd5b810190808051906020019092919050505073ffffffffffffffffffffffffffffffffffffffff16145b5b612ee1576040517f08c379a00000000000000000000000000000000000000000000000000000000081526004018080602001828103825260138152602001807f7061697220646f6573206e6f742065786973740000000000000000000000000081525060200191505060405180910390fd5b8273ffffffffffffffffffffffffffffffffffffffff1663095ea7b3600660009054906101000a900473ffffffffffffffffffffffffffffffffffffffff166b8000000000000000000000006040518363ffffffff1660e01b8152600401808373ffffffffffffffffffffffffffffffffffffffff16815260200182815260200192505050602060405180830381600087803b158015612f8057600080fd5b505af1158015612f94573d6000803e3d6000fd5b505050506040513d6020811015612faa57600080fd5b8101908080519060200190929190505050508173ffffffffffffffffffffffffffffffffffffffff1663095ea7b3600660009054906101000a900473ffffffffffffffffffffffffffffffffffffffff166b8000000000000000000000006040518363ffffffff1660e01b8152600401808373ffffffffffffffffffffffffffffffffffffffff16815260200182815260200192505050602060405180830381600087803b15801561305b57600080fd5b505af115801561306f573d6000803e3d6000fd5b505050506040513d602081101561308557600080fd5b8101908080519060200190929190505050508273ffffffffffffffffffffffffffffffffffffffff1663095ea7b3600760009054906101000a900473ffffffffffffffffffffffffffffffffffffffff166b8000000000000000000000006040518363ffffffff1660e01b8152600401808373ffffffffffffffffffffffffffffffffffffffff16815260200182815260200192505050602060405180830381600087803b15801561313657600080fd5b505af115801561314a573d6000803e3d6000fd5b505050506040513d602081101561316057600080fd5b8101908080519060200190929190505050508173ffffffffffffffffffffffffffffffffffffffff1663095ea7b3600760009054906101000a900473ffffffffffffffffffffffffffffffffffffffff166b8000000000000000000000006040518363ffffffff1660e01b8152600401808373ffffffffffffffffffffffffffffffffffffffff16815260200182815260200192505050602060405180830381600087803b15801561321157600080fd5b505af1158015613225573d6000803e3d6000fd5b505050506040513d602081101561323b57600080fd5b8101908080519060200190929190505050508773ffffffffffffffffffffffffffffffffffffffff1663095ea7b3600660009054906101000a900473ffffffffffffffffffffffffffffffffffffffff166b8000000000000000000000006040518363ffffffff1660e01b8152600401808373ffffffffffffffffffffffffffffffffffffffff16815260200182815260200192505050602060405180830381600087803b1580156132ec57600080fd5b505af1158015613300573d6000803e3d6000fd5b505050506040513d602081101561331657600080fd5b8101908080519060200190929190505050508773ffffffffffffffffffffffffffffffffffffffff1663095ea7b3600760009054906101000a900473ffffffffffffffffffffffffffffffffffffffff166b8000000000000000000000006040518363ffffffff1660e01b8152600401808373ffffffffffffffffffffffffffffffffffffffff16815260200182815260200192505050602060405180830381600087803b1580156133c757600080fd5b505af11580156133db573d6000803e3d6000fd5b505050506040513d60208110156133f157600080fd5b81019080805190602001909291905050505060086040518060e001604052808a73ffffffffffffffffffffffffffffffffffffffff1681526020018b8152602001868152602001898152602001600660009054906101000a900473ffffffffffffffffffffffffffffffffffffffff1673ffffffffffffffffffffffffffffffffffffffff16815260200160008152602001871515815250908060018154018082558091505060019003906000526020600020906007020160009091909190915060008201518160000160006101000a81548173ffffffffffffffffffffffffffffffffffffffff021916908373ffffffffffffffffffffffffffffffffffffffff160217905550602082015181600101556040820151816002015560608201518160030190805190602001906135299291906175d9565b5060808201518160040160006101000a81548173ffffffffffffffffffffffffffffffffffffffff021916908373ffffffffffffffffffffffffffffffffffffffff16021790555060a0820151816005015560c08201518160060160006101000a81548160ff0219169083151502179055505050505050505050505050565b6000600880549050905060005b818110156135d1576135c68161235d565b8060010190506135b5565b5050565b6135dd615ba8565b73ffffffffffffffffffffffffffffffffffffffff1660008054906101000a900473ffffffffffffffffffffffffffffffffffffffff1673ffffffffffffffffffffffffffffffffffffffff161461369d576040517f08c379a00000000000000000000000000000000000000000000000000000000081526004018080602001828103825260208152602001807f4f776e61626c653a2063616c6c6572206973206e6f7420746865206f776e657281525060200191505060405180910390fd5b600073ffffffffffffffffffffffffffffffffffffffff1660008054906101000a900473ffffffffffffffffffffffffffffffffffffffff1673ffffffffffffffffffffffffffffffffffffffff167f8be0079c531659141344cd1fd0a4f28419497f9722a3daafe3b4186f6b6457e060405160405180910390a360008060006101000a81548173ffffffffffffffffffffffffffffffffffffffff021916908373ffffffffffffffffffffffffffffffffffffffff160217905550565b600760009054906101000a900473ffffffffffffffffffffffffffffffffffffffff1681565b600d5481565b61378f615ba8565b73ffffffffffffffffffffffffffffffffffffffff1660008054906101000a900473ffffffffffffffffffffffffffffffffffffffff1673ffffffffffffffffffffffffffffffffffffffff161461384f576040517f08c379a00000000000000000000000000000000000000000000000000000000081526004018080602001828103825260208152602001807f4f776e61626c653a2063616c6c6572206973206e6f7420746865206f776e657281525060200191505060405180910390fd5b600073ffffffffffffffffffffffffffffffffffffffff168273ffffffffffffffffffffffffffffffffffffffff1614156138f2576040517f08c379a00000000000000000000000000000000000000000000000000000000081526004018080602001828103825260168152602001807f5f756e69526f757465722063616e6e6f7420626520300000000000000000000081525060200191505060405180910390fd5b60008160ff1614156139445781600660006101000a81548173ffffffffffffffffffffffffffffffffffffffff021916908373ffffffffffffffffffffffffffffffffffffffff160217905550613993565b60018160ff1614156139925781600760006101000a81548173ffffffffffffffffffffffffffffffffffffffff021916908373ffffffffffffffffffffffffffffffffffffffff1602179055505b5b5050565b600460009054906101000a900473ffffffffffffffffffffffffffffffffffffffff1673ffffffffffffffffffffffffffffffffffffffff163373ffffffffffffffffffffffffffffffffffffffff1614613a5a576040517f08c379a00000000000000000000000000000000000000000000000000000000081526004018080602001828103825260098152602001807f6465763a207775743f000000000000000000000000000000000000000000000081525060200191505060405180910390fd5b80600460006101000a81548173ffffffffffffffffffffffffffffffffffffffff021916908373ffffffffffffffffffffffffffffffffffffffff16021790555050565b60008060009054906101000a900473ffffffffffffffffffffffffffffffffffffffff16905090565b600360009054906101000a900473ffffffffffffffffffffffffffffffffffffffff1681565b6000826008805490508110613b6a576040517f08c379a00000000000000000000000000000000000000000000000000000000081526004018080602001828103825260138152602001807f506f6f6c20646f6573206e6f742065786973740000000000000000000000000081525060200191505060405180910390fd5b600060088581548110613b7957fe5b9060005260206000209060070201905060006009600087815260200190815260200160002060008673ffffffffffffffffffffffffffffffffffffffff1673ffffffffffffffffffffffffffffffffffffffff168152602001908152602001600020905060008260050154905060008360000160009054906101000a900473ffffffffffffffffffffffffffffffffffffffff1673ffffffffffffffffffffffffffffffffffffffff166370a08231306040518263ffffffff1660e01b8152600401808273ffffffffffffffffffffffffffffffffffffffff16815260200191505060206040518083038186803b158015613c7357600080fd5b505afa158015613c87573d6000803e3d6000fd5b505050506040513d6020811015613c9d57600080fd5b81019080805190602001909291905050509050836002015443118015613cc4575060008114155b15613d5f576000613cd9856002015443615a8e565b90506000613d1c600b54613d0e8860010154613d006005548761574590919063ffffffff16565b61574590919063ffffffff16565b6157cb90919063ffffffff16565b9050613d5a613d4b84613d3d64e8d4a510008561574590919063ffffffff16565b6157cb90919063ffffffff16565b8561567390919063ffffffff16565b935050505b613da38360010154613d9564e8d4a51000613d8786886000015461574590919063ffffffff16565b6157cb90919063ffffffff16565b6156fb90919063ffffffff16565b9550505050505092915050565b6009602052816000526040600020602052806000526040600020600091509150508060000154908060010154905082565b600660009054906101000a900473ffffffffffffffffffffffffffffffffffffffff1681565b600280541415613e7f576040517f08c379a000000000000000000000000000000000000000000000000000000000815260040180806020018281038252601f8152602001807f5265656e7472616e637947756172643a207265656e7472616e742063616c6c0081525060200191505060405180910390fd5b60028081905550600360009054906101000a900473ffffffffffffffffffffffffffffffffffffffff1673ffffffffffffffffffffffffffffffffffffffff166323b872dd3330846040518463ffffffff1660e01b8152600401808473ffffffffffffffffffffffffffffffffffffffff1681526020018373ffffffffffffffffffffffffffffffffffffffff1681526020018281526020019350505050602060405180830381600087803b158015613f3757600080fd5b505af1158015613f4b573d6000803e3d6000fd5b505050506040513d6020811015613f6157600080fd5b810190808051906020019092919050505050613f7d600061235d565b613f9281600d5461567390919063ffffffff16565b600d8190555060006008600081548110613fa857fe5b9060005260206000209060070201905060006009600080815260200190815260200160002060003373ffffffffffffffffffffffffffffffffffffffff1673ffffffffffffffffffffffffffffffffffffffff16815260200190815260200160002090506000816000015411156140db576000614063826001015461405564e8d4a510006140478760050154876000015461574590919063ffffffff16565b6157cb90919063ffffffff16565b6156fb90919063ffffffff16565b9050600061408e606461408060028561574590919063ffffffff16565b6157cb90919063ffffffff16565b90506140ac336140a783856156fb90919063ffffffff16565b615815565b6140d8600460009054906101000a900473ffffffffffffffffffffffffffffffffffffffff1682615815565b50505b6140f283826000015461567390919063ffffffff16565b816000018190555061412c64e8d4a5100061411e8460050154846000015461574590919063ffffffff16565b6157cb90919063ffffffff16565b816001018190555060003373ffffffffffffffffffffffffffffffffffffffff167f36af321ec8d3c75236829c5317affd40ddb308863a1236d2d277a4025cccee1e856000604051808381526020018281526020019250505060405180910390a35050600160028190555050565b600e60009054906101000a900473ffffffffffffffffffffffffffffffffffffffff1681565b80600880549050811061423b576040517f08c379a00000000000000000000000000000000000000000000000000000000081526004018080602001828103825260138152602001807f506f6f6c20646f6573206e6f742065786973740000000000000000000000000081525060200191505060405180910390fd5b6002805414156142b3576040517f08c379a000000000000000000000000000000000000000000000000000000000815260040180806020018281038252601f8152602001807f5265656e7472616e637947756172643a207265656e7472616e742063616c6c0081525060200191505060405180910390fd5b600280819055506000600883815481106142c957fe5b9060005260206000209060070201905060006009600085815260200190815260200160002060003373ffffffffffffffffffffffffffffffffffffffff1673ffffffffffffffffffffffffffffffffffffffff16815260200190815260200160002090503073ffffffffffffffffffffffffffffffffffffffff16600360009054906101000a900473ffffffffffffffffffffffffffffffffffffffff1673ffffffffffffffffffffffffffffffffffffffff16631fc8bc5d6040518163ffffffff1660e01b815260040160206040518083038186803b1580156143ac57600080fd5b505afa1580156143c0573d6000803e3d6000fd5b505050506040513d60208110156143d657600080fd5b810190808051906020019092919050505073ffffffffffffffffffffffffffffffffffffffff1614614470576040517f08c379a00000000000000000000000000000000000000000000000000000000081526004018080602001828103825260158152602001807f4c696272653a204661726d20697320636c6f736564000000000000000000000081525060200191505060405180910390fd5b6144798461235d565b6000816000015411156145485760006144d082600101546144c264e8d4a510006144b48760050154876000015461574590919063ffffffff16565b6157cb90919063ffffffff16565b6156fb90919063ffffffff16565b905060006144fb60646144ed60028561574590919063ffffffff16565b6157cb90919063ffffffff16565b90506145193361451483856156fb90919063ffffffff16565b615815565b614545600460009054906101000a900473ffffffffffffffffffffffffffffffffffffffff1682615815565b50505b61457a64e8d4a5100061456c8460050154846000015461574590919063ffffffff16565b6157cb90919063ffffffff16565b8160010181905550505060016002819055505050565b60055481565b600a6020528060005260406000206000915090505481565b816008805490508110614629576040517f08c379a00000000000000000000000000000000000000000000000000000000081526004018080602001828103825260138152602001807f506f6f6c20646f6573206e6f742065786973740000000000000000000000000081525060200191505060405180910390fd5b6002805414156146a1576040517f08c379a000000000000000000000000000000000000000000000000000000000815260040180806020018281038252601f8152602001807f5265656e7472616e637947756172643a207265656e7472616e742063616c6c0081525060200191505060405180910390fd5b600280819055506000831161471e576040517f08c379a00000000000000000000000000000000000000000000000000000000081526004018080602001828103825260158152602001807f706f6f6c203020697320666f72207374616b696e67000000000000000000000081525060200191505060405180910390fd5b60006008848154811061472d57fe5b9060005260206000209060070201905060006009600086815260200190815260200160002060003373ffffffffffffffffffffffffffffffffffffffff1673ffffffffffffffffffffffffffffffffffffffff168152602001908152602001600020905060008260000160009054906101000a900473ffffffffffffffffffffffffffffffffffffffff1690506147c38661235d565b60008260000154111561489257600061481a836001015461480c64e8d4a510006147fe8860050154886000015461574590919063ffffffff16565b6157cb90919063ffffffff16565b6156fb90919063ffffffff16565b90506000614845606461483760028561574590919063ffffffff16565b6157cb90919063ffffffff16565b90506148633361485e83856156fb90919063ffffffff16565b615815565b61488f600460009054906101000a900473ffffffffffffffffffffffffffffffffffffffff1682615815565b50505b600085111561490c576148ec3330878660000160009054906101000a900473ffffffffffffffffffffffffffffffffffffffff1673ffffffffffffffffffffffffffffffffffffffff16615bb0909392919063ffffffff16565b61490385836000015461567390919063ffffffff16565b82600001819055505b61493e64e8d4a510006149308560050154856000015461574590919063ffffffff16565b6157cb90919063ffffffff16565b82600101819055505050506001600281905550505050565b8360088054905081106149d1576040517f08c379a00000000000000000000000000000000000000000000000000000000081526004018080602001828103825260138152602001807f506f6f6c20646f6573206e6f742065786973740000000000000000000000000081525060200191505060405180910390fd5b600280541415614a49576040517f08c379a000000000000000000000000000000000000000000000000000000000815260040180806020018281038252601f8152602001807f5265656e7472616e637947756172643a207265656e7472616e742063616c6c0081525060200191505060405180910390fd5b6002808190555060008511614ac6576040517f08c379a00000000000000000000000000000000000000000000000000000000081526004018080602001828103825260158152602001807f706f6f6c203020697320666f72207374616b696e67000000000000000000000081525060200191505060405180910390fd5b60148360ff161115614b23576040517f08c379a00000000000000000000000000000000000000000000000000000000081526004018080602001828103825260228152602001806176ef6022913960400191505060405180910390fd5b600060088681548110614b3257fe5b9060005260206000209060070201905060006009600088815260200190815260200160002060003373ffffffffffffffffffffffffffffffffffffffff1673ffffffffffffffffffffffffffffffffffffffff1681526020019081526020016000209050614b9f8761235d565b600081600001541115614c6e576000614bf68260010154614be864e8d4a51000614bda8760050154876000015461574590919063ffffffff16565b6157cb90919063ffffffff16565b6156fb90919063ffffffff16565b90506000614c216064614c1360028561574590919063ffffffff16565b6157cb90919063ffffffff16565b9050614c3f33614c3a83856156fb90919063ffffffff16565b615815565b614c6b600460009054906101000a900473ffffffffffffffffffffffffffffffffffffffff1682615815565b50505b60008260000160009054906101000a900473ffffffffffffffffffffffffffffffffffffffff1673ffffffffffffffffffffffffffffffffffffffff166370a08231306040518263ffffffff1660e01b8152600401808273ffffffffffffffffffffffffffffffffffffffff16815260200191505060206040518083038186803b158015614cfb57600080fd5b505afa158015614d0f573d6000803e3d6000fd5b505050506040513d6020811015614d2557600080fd5b81019080805190602001909291905050509050600034118015614d5657508260060160009054906101000a900460ff165b8015614d60575084155b15614d69573496505b6060600267ffffffffffffffff81118015614d8357600080fd5b50604051908082528060200260200182016040528015614db25781602001602082028036833780820191505090505b50905085614dfa5783600301600081548110614dca57fe5b9060005260206000200160009054906101000a900473ffffffffffffffffffffffffffffffffffffffff16614e36565b83600301600181548110614e0a57fe5b9060005260206000200160009054906101000a900473ffffffffffffffffffffffffffffffffffffffff165b81600081518110614e4357fe5b602002602001019073ffffffffffffffffffffffffffffffffffffffff16908173ffffffffffffffffffffffffffffffffffffffff168152505085614ec25783600301600181548110614e9257fe5b9060005260206000200160009054906101000a900473ffffffffffffffffffffffffffffffffffffffff16614efe565b83600301600081548110614ed257fe5b9060005260206000200160009054906101000a900473ffffffffffffffffffffffffffffffffffffffff165b81600181518110614f0b57fe5b602002602001019073ffffffffffffffffffffffffffffffffffffffff16908173ffffffffffffffffffffffffffffffffffffffff16815250506000614f7833838b8b8960040160009054906101000a900473ffffffffffffffffffffffffffffffffffffffff16615c71565b90506000615054848760000160009054906101000a900473ffffffffffffffffffffffffffffffffffffffff1673ffffffffffffffffffffffffffffffffffffffff166370a08231306040518263ffffffff1660e01b8152600401808273ffffffffffffffffffffffffffffffffffffffff16815260200191505060206040518083038186803b15801561500b57600080fd5b505afa15801561501f573d6000803e3d6000fd5b505050506040513d602081101561503557600080fd5b81019080805190602001909291905050506156fb90919063ffffffff16565b9050600061507f606461507160028561574590919063ffffffff16565b6157cb90919063ffffffff16565b905061509481836156fb90919063ffffffff16565b91508660000160009054906101000a900473ffffffffffffffffffffffffffffffffffffffff1673ffffffffffffffffffffffffffffffffffffffff1663a9059cbb600460009054906101000a900473ffffffffffffffffffffffffffffffffffffffff16836040518363ffffffff1660e01b8152600401808373ffffffffffffffffffffffffffffffffffffffff16815260200182815260200192505050602060405180830381600087803b15801561514d57600080fd5b505af1158015615161573d6000803e3d6000fd5b505050506040513d602081101561517757600080fd5b8101908080519060200190929190505050506151a082876000015461567390919063ffffffff16565b86600001819055506151da64e8d4a510006151cc8960050154896000015461574590919063ffffffff16565b6157cb90919063ffffffff16565b86600101819055508b3373ffffffffffffffffffffffffffffffffffffffff167f36af321ec8d3c75236829c5317affd40ddb308863a1236d2d277a4025cccee1e8d86604051808381526020018281526020019250505060405180910390a35050505050505060016002819055505050505050565b615257615ba8565b73ffffffffffffffffffffffffffffffffffffffff1660008054906101000a900473ffffffffffffffffffffffffffffffffffffffff1673ffffffffffffffffffffffffffffffffffffffff1614615317576040517f08c379a00000000000000000000000000000000000000000000000000000000081526004018080602001828103825260208152602001807f4f776e61626c653a2063616c6c6572206973206e6f7420746865206f776e657281525060200191505060405180910390fd5b846008805490508110615392576040517f08c379a00000000000000000000000000000000000000000000000000000000081526004018080602001828103825260138152602001807f506f6f6c20646f6573206e6f742065786973740000000000000000000000000081525060200191505060405180910390fd5b81156153a1576153a06135a8565b5b6153e6856153d8600889815481106153b557fe5b906000526020600020906007020160010154600b546156fb90919063ffffffff16565b61567390919063ffffffff16565b600b8190555084600887815481106153fa57fe5b906000526020600020906007020160010181905550836008878154811061541d57fe5b906000526020600020906007020160030190805190602001906154419291906175d9565b50826008878154811061545057fe5b906000526020600020906007020160040160006101000a81548173ffffffffffffffffffffffffffffffffffffffff021916908373ffffffffffffffffffffffffffffffffffffffff160217905550505050505050565b600460009054906101000a900473ffffffffffffffffffffffffffffffffffffffff1681565b6154d5615ba8565b73ffffffffffffffffffffffffffffffffffffffff1660008054906101000a900473ffffffffffffffffffffffffffffffffffffffff1673ffffffffffffffffffffffffffffffffffffffff1614615595576040517f08c379a00000000000000000000000000000000000000000000000000000000081526004018080602001828103825260208152602001807f4f776e61626c653a2063616c6c6572206973206e6f7420746865206f776e657281525060200191505060405180910390fd5b8060058190555050565b6155a7615ba8565b73ffffffffffffffffffffffffffffffffffffffff1660008054906101000a900473ffffffffffffffffffffffffffffffffffffffff1673ffffffffffffffffffffffffffffffffffffffff1614615667576040517f08c379a00000000000000000000000000000000000000000000000000000000081526004018080602001828103825260208152602001807f4f776e61626c653a2063616c6c6572206973206e6f7420746865206f776e657281525060200191505060405180910390fd5b6156708161668b565b50565b6000808284019050838110156156f1576040517f08c379a000000000000000000000000000000000000000000000000000000000815260040180806020018281038252601b8152602001807f536166654d6174683a206164646974696f6e206f766572666c6f77000000000081525060200191505060405180910390fd5b8091505092915050565b600061573d83836040518060400160405280601e81526020017f536166654d6174683a207375627472616374696f6e206f766572666c6f7700008152506167ce565b905092915050565b60008083141561575857600090506157c5565b600082840290508284828161576957fe5b04146157c0576040517f08c379a00000000000000000000000000000000000000000000000000000000081526004018080602001828103825260218152602001806177116021913960400191505060405180910390fd5b809150505b92915050565b600061580d83836040518060400160405280601a81526020017f536166654d6174683a206469766973696f6e206279207a65726f00000000000081525061688e565b905092915050565b6000600360009054906101000a900473ffffffffffffffffffffffffffffffffffffffff1673ffffffffffffffffffffffffffffffffffffffff166370a08231306040518263ffffffff1660e01b8152600401808273ffffffffffffffffffffffffffffffffffffffff16815260200191505060206040518083038186803b1580156158a057600080fd5b505afa1580156158b4573d6000803e3d6000fd5b505050506040513d60208110156158ca57600080fd5b81019080805190602001909291905050509050808211156159b957600360009054906101000a900473ffffffffffffffffffffffffffffffffffffffff1673ffffffffffffffffffffffffffffffffffffffff1663a9059cbb84836040518363ffffffff1660e01b8152600401808373ffffffffffffffffffffffffffffffffffffffff16815260200182815260200192505050602060405180830381600087803b15801561597857600080fd5b505af115801561598c573d6000803e3d6000fd5b505050506040513d60208110156159a257600080fd5b810190808051906020019092919050505050615a89565b600360009054906101000a900473ffffffffffffffffffffffffffffffffffffffff1673ffffffffffffffffffffffffffffffffffffffff1663a9059cbb84846040518363ffffffff1660e01b8152600401808373ffffffffffffffffffffffffffffffffffffffff16815260200182815260200192505050602060405180830381600087803b158015615a4c57600080fd5b505af1158015615a60573d6000803e3d6000fd5b505050506040513d6020811015615a7657600080fd5b8101908080519060200190929190505050505b505050565b6000600c54831015615aeb576040517f08c379a00000000000000000000000000000000000000000000000000000000081526004018080602001828103825260238152602001806177326023913960400191505060405180910390fd5b615afe83836156fb90919063ffffffff16565b905092915050565b615ba38363a9059cbb60e01b8484604051602401808373ffffffffffffffffffffffffffffffffffffffff16815260200182815260200192505050604051602081830303815290604052907bffffffffffffffffffffffffffffffffffffffffffffffffffffffff19166020820180517bffffffffffffffffffffffffffffffffffffffffffffffffffffffff8381831617835250505050616954565b505050565b600033905090565b615c6b846323b872dd60e01b858585604051602401808473ffffffffffffffffffffffffffffffffffffffff1681526020018373ffffffffffffffffffffffffffffffffffffffff1681526020018281526020019350505050604051602081830303815290604052907bffffffffffffffffffffffffffffffffffffffffffffffffffffffff19166020820180517bffffffffffffffffffffffffffffffffffffffffffffffffffffffff8381831617835250505050616954565b50505050565b60008085600081518110615c8157fe5b60200260200101519050600086600181518110615c9a57fe5b602002602001015190506000600e60009054906101000a900473ffffffffffffffffffffffffffffffffffffffff1673ffffffffffffffffffffffffffffffffffffffff1688600081518110615cec57fe5b602002602001015173ffffffffffffffffffffffffffffffffffffffff1614615db6578273ffffffffffffffffffffffffffffffffffffffff166370a08231306040518263ffffffff1660e01b8152600401808273ffffffffffffffffffffffffffffffffffffffff16815260200191505060206040518083038186803b158015615d7657600080fd5b505afa158015615d8a573d6000803e3d6000fd5b505050506040513d6020811015615da057600080fd5b8101908080519060200190929190505050615db8565b475b9050600e60009054906101000a900473ffffffffffffffffffffffffffffffffffffffff1673ffffffffffffffffffffffffffffffffffffffff1688600081518110615e0057fe5b602002602001015173ffffffffffffffffffffffffffffffffffffffff1614615eef578273ffffffffffffffffffffffffffffffffffffffff166323b872dd8a308a6040518463ffffffff1660e01b8152600401808473ffffffffffffffffffffffffffffffffffffffff1681526020018373ffffffffffffffffffffffffffffffffffffffff1681526020018281526020019350505050602060405180830381600087803b158015615eb257600080fd5b505af1158015615ec6573d6000803e3d6000fd5b505050506040513d6020811015615edc57600080fd5b8101908080519060200190929190505050505b6000600e60009054906101000a900473ffffffffffffffffffffffffffffffffffffffff1673ffffffffffffffffffffffffffffffffffffffff1689600181518110615f3757fe5b602002602001015173ffffffffffffffffffffffffffffffffffffffff1614616001578273ffffffffffffffffffffffffffffffffffffffff166370a08231306040518263ffffffff1660e01b8152600401808273ffffffffffffffffffffffffffffffffffffffff16815260200191505060206040518083038186803b158015615fc157600080fd5b505afa158015615fd5573d6000803e3d6000fd5b505050506040513d6020811015615feb57600080fd5b8101908080519060200190929190505050616003565b475b90506000616027858561602060028d6157cb90919063ffffffff16565b8b8b616a43565b9050600e60009054906101000a900473ffffffffffffffffffffffffffffffffffffffff1673ffffffffffffffffffffffffffffffffffffffff168a60008151811061606f57fe5b602002602001015173ffffffffffffffffffffffffffffffffffffffff161415616244578673ffffffffffffffffffffffffffffffffffffffff16637ff36ab56160c360028c6157cb90919063ffffffff16565b838d30426040518663ffffffff1660e01b815260040180858152602001806020018473ffffffffffffffffffffffffffffffffffffffff168152602001838152602001828103825285818151815260200191508051906020019060200280838360005b83811015616141578082015181840152602081019050616126565b50505050905001955050505050506000604051808303818588803b15801561616857600080fd5b505af115801561617c573d6000803e3d6000fd5b50505050506040513d6000823e3d601f19601f8201168201806040525060208110156161a757600080fd5b81019080805160405193929190846401000000008211156161c757600080fd5b838201915060208201858111156161dd57600080fd5b82518660208202830111640100000000821117156161fa57600080fd5b8083526020830192505050908051906020019060200280838360005b83811015616231578082015181840152602081019050616216565b50505050905001604052505050506163f8565b8673ffffffffffffffffffffffffffffffffffffffff166338ed173961627460028c6157cb90919063ffffffff16565b838d30426040518663ffffffff1660e01b815260040180868152602001858152602001806020018473ffffffffffffffffffffffffffffffffffffffff168152602001838152602001828103825285818151815260200191508051906020019060200280838360005b838110156162f85780820151818401526020810190506162dd565b505050509050019650505050505050600060405180830381600087803b15801561632157600080fd5b505af1158015616335573d6000803e3d6000fd5b505050506040513d6000823e3d601f19601f82011682018060405250602081101561635f57600080fd5b810190808051604051939291908464010000000082111561637f57600080fd5b8382019150602082018581111561639557600080fd5b82518660208202830111640100000000821117156163b257600080fd5b8083526020830192505050908051906020019060200280838360005b838110156163e95780820151818401526020810190506163ce565b50505050905001604052505050505b6000600e60009054906101000a900473ffffffffffffffffffffffffffffffffffffffff1673ffffffffffffffffffffffffffffffffffffffff168b60008151811061644057fe5b602002602001015173ffffffffffffffffffffffffffffffffffffffff161461652e576165298673ffffffffffffffffffffffffffffffffffffffff166370a08231306040518263ffffffff1660e01b8152600401808273ffffffffffffffffffffffffffffffffffffffff16815260200191505060206040518083038186803b1580156164cd57600080fd5b505afa1580156164e1573d6000803e3d6000fd5b505050506040513d60208110156164f757600080fd5b810190808051906020019092919050505061651b8c8761567390919063ffffffff16565b6156fb90919063ffffffff16565b616543565b61654260028b6157cb90919063ffffffff16565b5b905060006165fb848773ffffffffffffffffffffffffffffffffffffffff166370a08231306040518263ffffffff1660e01b8152600401808273ffffffffffffffffffffffffffffffffffffffff16815260200191505060206040518083038186803b1580156165b257600080fd5b505afa1580156165c6573d6000803e3d6000fd5b505050506040513d60208110156165dc57600080fd5b81019080805190602001909291905050506156fb90919063ffffffff16565b90506000600e60009054906101000a900473ffffffffffffffffffffffffffffffffffffffff1673ffffffffffffffffffffffffffffffffffffffff168d60008151811061664557fe5b602002602001015173ffffffffffffffffffffffffffffffffffffffff161490506166778e828e8b8b8b8b8a8a616ce1565b819850505050505050505095945050505050565b600073ffffffffffffffffffffffffffffffffffffffff168173ffffffffffffffffffffffffffffffffffffffff161415616711576040517f08c379a00000000000000000000000000000000000000000000000000000000081526004018080602001828103825260268152602001806176c96026913960400191505060405180910390fd5b8073ffffffffffffffffffffffffffffffffffffffff1660008054906101000a900473ffffffffffffffffffffffffffffffffffffffff1673ffffffffffffffffffffffffffffffffffffffff167f8be0079c531659141344cd1fd0a4f28419497f9722a3daafe3b4186f6b6457e060405160405180910390a3806000806101000a81548173ffffffffffffffffffffffffffffffffffffffff021916908373ffffffffffffffffffffffffffffffffffffffff16021790555050565b600083831115829061687b576040517f08c379a00000000000000000000000000000000000000000000000000000000081526004018080602001828103825283818151815260200191508051906020019080838360005b83811015616840578082015181840152602081019050616825565b50505050905090810190601f16801561686d5780820380516001836020036101000a031916815260200191505b509250505060405180910390fd5b5060008385039050809150509392505050565b6000808311829061693a576040517f08c379a00000000000000000000000000000000000000000000000000000000081526004018080602001828103825283818151815260200191508051906020019080838360005b838110156168ff5780820151818401526020810190506168e4565b50505050905090810190601f16801561692c5780820380516001836020036101000a031916815260200191505b509250505060405180910390fd5b50600083858161694657fe5b049050809150509392505050565b60606169b6826040518060400160405280602081526020017f5361666542455032303a206c6f772d6c6576656c2063616c6c206661696c65648152508573ffffffffffffffffffffffffffffffffffffffff166173709092919063ffffffff16565b9050600081511115616a3e578080602001905160208110156169d757600080fd5b8101908080519060200190929190505050616a3d576040517f08c379a000000000000000000000000000000000000000000000000000000000815260040180806020018281038252602a81526020018061769f602a913960400191505060405180910390fd5b5b505050565b60006060600267ffffffffffffffff81118015616a5f57600080fd5b50604051908082528060200260200182016040528015616a8e5781602001602082028036833780820191505090505b5090508681600081518110616a9f57fe5b602002602001019073ffffffffffffffffffffffffffffffffffffffff16908173ffffffffffffffffffffffffffffffffffffffff16815250508581600181518110616ae757fe5b602002602001019073ffffffffffffffffffffffffffffffffffffffff16908173ffffffffffffffffffffffffffffffffffffffff1681525050616cd56103e8616cc78660ff166103e80361ffff168673ffffffffffffffffffffffffffffffffffffffff1663d06ca61f8a876040518363ffffffff1660e01b81526004018083815260200180602001828103825283818151815260200191508051906020019060200280838360005b83811015616bac578082015181840152602081019050616b91565b50505050905001935050505060006040518083038186803b158015616bd057600080fd5b505afa158015616be4573d6000803e3d6000fd5b505050506040513d6000823e3d601f19601f820116820180604052506020811015616c0e57600080fd5b8101908080516040519392919084640100000000821115616c2e57600080fd5b83820191506020820185811115616c4457600080fd5b8251866020820283011164010000000082111715616c6157600080fd5b8083526020830192505050908051906020019060200280838360005b83811015616c98578082015181840152602081019050616c7d565b50505050905001604052505050600181518110616cb157fe5b602002602001015161574590919063ffffffff16565b6157cb90919063ffffffff16565b91505095945050505050565b600e60009054906101000a900473ffffffffffffffffffffffffffffffffffffffff1673ffffffffffffffffffffffffffffffffffffffff168673ffffffffffffffffffffffffffffffffffffffff161415616e5957600760009054906101000a900473ffffffffffffffffffffffffffffffffffffffff1673ffffffffffffffffffffffffffffffffffffffff1663f305d71983878460008030426040518863ffffffff1660e01b8152600401808773ffffffffffffffffffffffffffffffffffffffff1681526020018681526020018581526020018481526020018373ffffffffffffffffffffffffffffffffffffffff16815260200182815260200196505050505050506060604051808303818588803b158015616e0157600080fd5b505af1158015616e15573d6000803e3d6000fd5b50505050506040513d6060811015616e2c57600080fd5b81019080805190602001909291908051906020019092919080519060200190929190505050505050616f9c565b600760009054906101000a900473ffffffffffffffffffffffffffffffffffffffff1673ffffffffffffffffffffffffffffffffffffffff1663e8e337008787858560008030426040518963ffffffff1660e01b8152600401808973ffffffffffffffffffffffffffffffffffffffff1681526020018873ffffffffffffffffffffffffffffffffffffffff1681526020018781526020018681526020018581526020018481526020018373ffffffffffffffffffffffffffffffffffffffff16815260200182815260200198505050505050505050606060405180830381600087803b158015616f4957600080fd5b505af1158015616f5d573d6000803e3d6000fd5b505050506040513d6060811015616f7357600080fd5b810190808051906020019092919080519060200190929190805190602001909291905050505050505b6000600e60009054906101000a900473ffffffffffffffffffffffffffffffffffffffff1673ffffffffffffffffffffffffffffffffffffffff168773ffffffffffffffffffffffffffffffffffffffff16146170ac576170a7858873ffffffffffffffffffffffffffffffffffffffff166370a08231306040518263ffffffff1660e01b8152600401808273ffffffffffffffffffffffffffffffffffffffff16815260200191505060206040518083038186803b15801561705e57600080fd5b505afa158015617072573d6000803e3d6000fd5b505050506040513d602081101561708857600080fd5b81019080805190602001909291905050506156fb90919063ffffffff16565b6170d2565b6170d16170c289876156fb90919063ffffffff16565b476156fb90919063ffffffff16565b5b9050600061718a858873ffffffffffffffffffffffffffffffffffffffff166370a08231306040518263ffffffff1660e01b8152600401808273ffffffffffffffffffffffffffffffffffffffff16815260200191505060206040518083038186803b15801561714157600080fd5b505afa158015617155573d6000803e3d6000fd5b505050506040513d602081101561716b57600080fd5b81019080805190602001909291905050506156fb90919063ffffffff16565b905060008211801561719a575089155b15617251578773ffffffffffffffffffffffffffffffffffffffff1663a9059cbb8c846040518363ffffffff1660e01b8152600401808373ffffffffffffffffffffffffffffffffffffffff16815260200182815260200192505050602060405180830381600087803b15801561721057600080fd5b505af1158015617224573d6000803e3d6000fd5b505050506040513d602081101561723a57600080fd5b8101908080519060200190929190505050506172ac565b60008211801561725e5750895b156172ab578a73ffffffffffffffffffffffffffffffffffffffff166108fc839081150290604051600060405180830381858888f193505050501580156172a9573d6000803e3d6000fd5b505b5b6000811115617363578673ffffffffffffffffffffffffffffffffffffffff1663a9059cbb8c836040518363ffffffff1660e01b8152600401808373ffffffffffffffffffffffffffffffffffffffff16815260200182815260200192505050602060405180830381600087803b15801561732657600080fd5b505af115801561733a573d6000803e3d6000fd5b505050506040513d602081101561735057600080fd5b8101908080519060200190929190505050505b5050505050505050505050565b606061737f8484600085617388565b90509392505050565b60606173938561758e565b617405576040517f08c379a000000000000000000000000000000000000000000000000000000000815260040180806020018281038252601d8152602001807f416464726573733a2063616c6c20746f206e6f6e2d636f6e747261637400000081525060200191505060405180910390fd5b600060608673ffffffffffffffffffffffffffffffffffffffff1685876040518082805190602001908083835b602083106174555780518252602082019150602081019050602083039250617432565b6001836020036101000a03801982511681845116808217855250505050505090500191505060006040518083038185875af1925050503d80600081146174b7576040519150601f19603f3d011682016040523d82523d6000602084013e6174bc565b606091505b509150915081156174d1578092505050617586565b6000815111156174e45780518082602001fd5b836040517f08c379a00000000000000000000000000000000000000000000000000000000081526004018080602001828103825283818151815260200191508051906020019080838360005b8381101561754b578082015181840152602081019050617530565b50505050905090810190601f1680156175785780820380516001836020036101000a031916815260200191505b509250505060405180910390fd5b949350505050565b60008060007fc5d2460186f7233c927e7db2dcc703c0e500b653ca82273b7bfad8045d85a47060001b9050833f91508082141580156175d057506000801b8214155b92505050919050565b828054828255906000526020600020908101928215617652579160200282015b828111156176515782518260006101000a81548173ffffffffffffffffffffffffffffffffffffffff021916908373ffffffffffffffffffffffffffffffffffffffff160217905550916020019190600101906175f9565b5b50905061765f9190617663565b5090565b5b8082111561769a57600081816101000a81549073ffffffffffffffffffffffffffffffffffffffff021916905550600101617664565b509056fe5361666542455032303a204245503230206f7065726174696f6e20646964206e6f7420737563636565644f776e61626c653a206e6577206f776e657220697320746865207a65726f2061646472657373736c6970706167652072616e6765206e6f742067726561746572207468616e203225536166654d6174683a206d756c7469706c69636174696f6e206f766572666c6f775f66726f6d2063616e206e6f74206c657373207468616e207374617274426c6f636b21a26469706673582212201eee4b02ed68384891311657035bed64f407ce2b1285654d4fdbe091a7d1167664736f6c634300060c0033",
  "immutableReferences": {},
  "source": "pragma solidity 0.6.12;\r\n\r\nimport './utils/Ownable.sol';\r\nimport './utils/ReentrancyGuard.sol';\r\n\r\nimport './lib/SafeERC20.sol';\r\n\r\nimport './interface/ILibre.sol';\r\nimport './interface/IWETH.sol';\r\nimport './interface/IUniswapRouter.sol';\r\nimport './interface/IUniswapPair.sol';\r\nimport './interface/IUniswapFactory.sol';\r\ncontract MasterChefV2 is Ownable,ReentrancyGuard {\r\n    using SafeMath for uint256;\r\n    using SafeERC20 for IERC20;\r\n    // Info of each user.\r\n    struct UserInfo {\r\n        uint256 amount; // How many LP tokens the user has provided.\r\n        uint256 rewardDebt; // Reward debt. See explanation below.\r\n        //\r\n        // We do some fancy math here. Basically, any point in time, the amount of SUSHIs\r\n        // entitled to a user but is pending to be distributed is:\r\n        //\r\n        //   pending reward = (user.amount * pool.accSushiPerShare) - user.rewardDebt\r\n        //\r\n        // Whenever a user deposits or withdraws LP tokens to a pool. Here's what happens:\r\n        //   1. The pool's `accSushiPerShare` (and `lastRewardBlock`) gets updated.\r\n        //   2. User receives the pending reward sent to his/her address.\r\n        //   3. User's `amount` gets updated.\r\n        //   4. User's `rewardDebt` gets updated.\r\n    }\r\n    // Info of each pool.\r\n    struct PoolInfo {\r\n        IERC20 lpToken; // Address of LP token contract.\r\n        uint256 allocPoint; // How many allocation points assigned to this pool. SUSHIs to distribute per block.\r\n        uint256 lastRewardBlock; // Last block number that SUSHIs distribution occurs.\r\n        address[] lpPath;\r\n        address routerAddress;\r\n        uint256 accLibPerShare; // Accumulated LIBs per share, times 1e12. See below.\r\n        bool isETHPair; // non-Libre LP will be charged 5% fee on withdraw\r\n    }\r\n    // The LIB TOKEN!\r\n    ILibre public lib;\r\n    // Dev address.\r\n    address public devaddr;\r\n    // Lib tokens created per block.\r\n    uint256 public libPerBlock;\r\n    // Lib tokens burn per block.\r\n    IUniswapRouter public uniRouter;\r\n    IUniswapRouter public libreRouter;\r\n    // Info of each pool.\r\n    PoolInfo[] public poolInfo;\r\n    // Info of each user that stakes LP tokens.\r\n    mapping(uint256 => mapping(address => UserInfo)) public userInfo;\r\n    //set true after a new lp be added\r\n    mapping (address=>uint256) public pidMapping;\r\n    // Total allocation poitns. Must be the sum of all allocation points in all pools.\r\n    uint256 public totalAllocPoint = 0;\r\n    // The block number when SUSHI mining starts.\r\n    uint256 public startBlock;\r\n    uint256 public totalStaked = 0;\r\n    event Deposit(address indexed user, uint256 indexed pid, uint256 amount, uint256 token1Amount);\r\n    event Withdraw(address indexed user, uint256 indexed pid, uint256 amount);\r\n    event EmergencyWithdraw(\r\n        address indexed user,\r\n        uint256 indexed pid,\r\n        uint256 amount\r\n    );\r\n    IWETH public WETH;\r\n    constructor(\r\n        address[]memory _lib,\r\n        address _devaddr,\r\n        address _libRouter,\r\n        address _uniRouter,\r\n        uint256 _libPerBlock\r\n    ) public {\r\n        require(_devaddr != address(0),\"_devaddr cannot be 0\");\r\n        lib = ILibre(_lib[0]);\r\n        libreRouter = IUniswapRouter(_libRouter);\r\n        uniRouter = IUniswapRouter(_uniRouter);\r\n        devaddr = _devaddr;\r\n        // startBlock = block.number;\r\n        libPerBlock = _libPerBlock;\r\n        totalAllocPoint = totalAllocPoint.add(10);\r\n        WETH = IWETH(uniRouter.WETH());\r\n        poolInfo.push(\r\n            PoolInfo({\r\n                lpToken: lib,\r\n                allocPoint: 10,\r\n                routerAddress: address(0),\r\n                lpPath:_lib,\r\n                lastRewardBlock: 0,\r\n                accLibPerShare: 0,\r\n                isETHPair: false\r\n            })\r\n        );\r\n    }\r\n    function setLibrePerBlock(uint256 _libPerBlock) external onlyOwner{\r\n        libPerBlock = _libPerBlock;\r\n    }\r\n    function poolLength() external view returns (uint256) {\r\n        return poolInfo.length;\r\n    }\r\n    function getPoolInfo(uint256 _pid)external view returns(address lp, uint256 allocPoint, uint256 lastRewardBlock, address[]memory lpPath, uint256 accLibPerShare, bool isETHpair, address router){\r\n        PoolInfo storage pool = poolInfo[_pid];\r\n        return (address(pool.lpToken), pool.allocPoint, pool.lastRewardBlock, pool.lpPath, pool.accLibPerShare, pool.isETHPair, pool.routerAddress);\r\n    }\r\n    function setRouter(address _router, uint8 index)external onlyOwner{\r\n        require(_router != address(0),\"_uniRouter cannot be 0\");\r\n        if(index == 0) uniRouter = IUniswapRouter(_router);\r\n        else if(index == 1)libreRouter = IUniswapRouter(_router);\r\n    }\r\n    function forAPYC(uint8 _pid)external view returns(IERC20, address[]memory, uint256){\r\n        return (poolInfo[_pid].lpToken, poolInfo[_pid].lpPath, poolInfo[_pid].allocPoint);\r\n    }\r\n\r\n    // Add a new lp to the pool. Can only be called by the owner.\r\n    // XXX DO NOT add the same LP token more than once. Rewards will be messed up if you do.\r\n    function add(\r\n        uint256 _allocPoint,\r\n        IERC20 _lpToken,\r\n        address[] memory _lpPath,\r\n        bool _withUpdate,\r\n        bool _isETHPair\r\n    ) external onlyOwner {\r\n        require(pidMapping[address(_lpToken)]==0,\"LP already in pool\");\r\n        require(address(_lpToken) != address(lib), \"LP cannot be LIBRE\");\r\n        pidMapping[address(_lpToken)] = poolInfo.length;\r\n        if (_withUpdate) {\r\n            massUpdatePools();\r\n        }\r\n        uint256 lastRewardBlock =\r\n            block.number > startBlock ? block.number : startBlock;\r\n        totalAllocPoint = totalAllocPoint.add(_allocPoint);\r\n        IERC20 token0 = IERC20(_lpPath[0]);\r\n        IERC20 token1 = IERC20(_lpPath[1]);\r\n        IUniswapPair pair = IUniswapPair(address(_lpToken));\r\n        require((pair.token0() == _lpPath[0] && pair.token1() == _lpPath[1]) || (pair.token0() == _lpPath[1] && pair.token1() == _lpPath[0]), \"pair does not exist\");\r\n        token0.approve(address(uniRouter),2**95);\r\n        token1.approve(address(uniRouter),2**95);\r\n        token0.approve(address(libreRouter),2**95);\r\n        token1.approve(address(libreRouter),2**95);\r\n        _lpToken.approve(address(uniRouter),2**95);\r\n        _lpToken.approve(address(libreRouter),2**95);\r\n        poolInfo.push(\r\n            PoolInfo({\r\n                lpToken: _lpToken,\r\n                allocPoint: _allocPoint,\r\n                lpPath:_lpPath,\r\n                lastRewardBlock: lastRewardBlock,\r\n                routerAddress: address(uniRouter),\r\n                accLibPerShare: 0,\r\n                isETHPair: _isETHPair\r\n            })\r\n        );\r\n    }\r\n    \r\n    // Update the given pool's allocation point. Can only be called by the owner.\r\n    function set(\r\n        uint256 _pid,\r\n        uint256 _allocPoint,\r\n        address[] memory _lpPath,\r\n        address _router,\r\n        bool _withUpdate\r\n    ) external onlyOwner validatePoolByPid(_pid){\r\n        if (_withUpdate) {\r\n            massUpdatePools();\r\n        }\r\n        totalAllocPoint = totalAllocPoint.sub(poolInfo[_pid].allocPoint).add(\r\n            _allocPoint\r\n        );\r\n        poolInfo[_pid].allocPoint = _allocPoint;\r\n        poolInfo[_pid].lpPath = _lpPath;\r\n        poolInfo[_pid].routerAddress = _router;\r\n    }\r\n\r\n    // Return reward multiplier over the given _from to _to block.\r\n    function getMultiplier(uint256 _from, uint256 _to) internal view returns (uint256){\r\n        require(_from >= startBlock, \"_from can not less than startBlock!\");\r\n        return _to.sub(_from);\r\n    }\r\n    // View function to see pending SUSHIs on frontend.\r\n    function pendingLib(uint256 _pid, address _user)\r\n        external\r\n        view validatePoolByPid(_pid)\r\n        returns (uint256)\r\n    {\r\n        PoolInfo storage pool = poolInfo[_pid];\r\n        UserInfo storage user = userInfo[_pid][_user];\r\n        uint256 accLibPerShare = pool.accLibPerShare;\r\n        uint256 lpSupply = pool.lpToken.balanceOf(address(this));\r\n        if (block.number > pool.lastRewardBlock && lpSupply != 0) {\r\n            uint256 multiplier = getMultiplier(pool.lastRewardBlock, block.number);\r\n            uint256 libReward =  multiplier.mul(libPerBlock).mul(pool.allocPoint).div(totalAllocPoint);\r\n            accLibPerShare = accLibPerShare.add(\r\n                libReward.mul(1e12).div(lpSupply)\r\n            );\r\n        }\r\n        return user.amount.mul(accLibPerShare).div(1e12).sub(user.rewardDebt);\r\n    }\r\n\r\n    // Update reward vairables for all pools. Be careful of gas spending!\r\n    function massUpdatePools() public {\r\n        uint256 length = poolInfo.length;\r\n        for (uint256 pid = 0; pid < length; ++pid) {\r\n            updatePool(pid);\r\n        }\r\n    }\r\n\r\n    // Update reward variables of the given pool to be up-to-date.\r\n    function updatePool(uint256 _pid) public validatePoolByPid(_pid){\r\n        PoolInfo storage pool = poolInfo[_pid];\r\n        if (block.number <= pool.lastRewardBlock) {\r\n            return;\r\n        }\r\n        uint256 lpSupply = _pid == 0 ?totalStaked :pool.lpToken.balanceOf(address(this));\r\n        if (lpSupply == 0) {\r\n            pool.lastRewardBlock = block.number;\r\n            return;\r\n        }\r\n        uint256 multiplier = getMultiplier(pool.lastRewardBlock, block.number);\r\n        uint256 libReward =\r\n            multiplier.mul(libPerBlock).mul(pool.allocPoint).div(\r\n                totalAllocPoint\r\n            );\r\n\r\n        lib.mint(address(this),libReward);\r\n        pool.accLibPerShare = pool.accLibPerShare.add(\r\n            libReward.mul(1e12).div(lpSupply)\r\n        );\r\n        pool.lastRewardBlock = block.number;\r\n    }\r\n    function stake(uint256 _amount) public nonReentrant{\r\n        lib.transferFrom(msg.sender, address(this), _amount);\r\n        updatePool(0);\r\n        totalStaked = totalStaked.add(_amount);\r\n        PoolInfo storage pool = poolInfo[0];\r\n        UserInfo storage user = userInfo[0][msg.sender];\r\n        if (user.amount > 0) {\r\n            uint256 pending =\r\n                user.amount.mul(pool.accLibPerShare).div(1e12).sub(\r\n                    user.rewardDebt\r\n                );\r\n            uint256 fee = pending.mul(2).div(100);\r\n\r\n            safeLibreTransfer(msg.sender, pending.sub(fee));\r\n            safeLibreTransfer(devaddr, fee);\r\n        }\r\n        user.amount = user.amount.add(_amount);\r\n        user.rewardDebt = user.amount.mul(pool.accLibPerShare).div(1e12);\r\n        emit Deposit(msg.sender, 0, _amount, 0);\r\n    }\r\n    function unstake(uint256 _amount)public nonReentrant{\r\n        PoolInfo storage pool = poolInfo[0];\r\n        UserInfo storage user = userInfo[0][msg.sender];\r\n        if(lib.chef() == address(this))updatePool(0);\r\n        totalStaked = totalStaked.sub(_amount);\r\n        require(user.amount >= _amount, \"withdraw: not good\");\r\n        uint256 pending =\r\n            user.amount.mul(pool.accLibPerShare).div(1e12).sub(\r\n                user.rewardDebt\r\n            );\r\n        uint256 fee = pending.mul(2).div(100);\r\n\r\n        user.amount = user.amount.sub(_amount);\r\n        safeLibreTransfer(msg.sender, pending.sub(fee));\r\n        safeLibreTransfer(devaddr, fee);\r\n        user.rewardDebt = user.amount.mul(pool.accLibPerShare).div(1e12);\r\n        safeLibreTransfer(address(msg.sender),_amount);\r\n        emit Withdraw(msg.sender, 0, _amount);\r\n    }\r\n    function claimReward(uint256 _pid)public validatePoolByPid(_pid) nonReentrant{\r\n        PoolInfo storage pool = poolInfo[_pid];\r\n        UserInfo storage user = userInfo[_pid][msg.sender];\r\n        require(lib.chef() == address(this),\"Libre: Farm is closed\");\r\n        updatePool(_pid);\r\n        if (user.amount > 0) {\r\n            uint256 pending =\r\n                user.amount.mul(pool.accLibPerShare).div(1e12).sub(\r\n                    user.rewardDebt\r\n                );\r\n            uint256 fee = pending.mul(2).div(100);\r\n\r\n            safeLibreTransfer(msg.sender, pending.sub(fee));\r\n            safeLibreTransfer(devaddr, fee);\r\n        }\r\n        user.rewardDebt = user.amount.mul(pool.accLibPerShare).div(1e12);\r\n        \r\n    }\r\n    function restake()public nonReentrant{\r\n        PoolInfo storage pool = poolInfo[0];\r\n        UserInfo storage user = userInfo[0][msg.sender];\r\n        require(lib.chef() == address(this),\"Libre: Farm is closed\");\r\n        updatePool(0);\r\n\r\n        if (user.amount > 0) {\r\n            uint256 pending =\r\n                user.amount.mul(pool.accLibPerShare).div(1e12).sub(\r\n                    user.rewardDebt\r\n                );\r\n            uint256 fee = pending.mul(2).div(100);\r\n\r\n            // safeLibreTransfer(msg.sender, pending.sub(fee));\r\n            safeLibreTransfer(devaddr, fee);\r\n            uint256 amount = pending.sub(fee);\r\n            user.amount = user.amount.add(amount);        \r\n            totalStaked = totalStaked.add(amount);\r\n        }\r\n        user.rewardDebt = user.amount.mul(pool.accLibPerShare).div(1e12);\r\n\r\n    }\r\n    function depositLP(uint256 _pid, uint256 _amount)public validatePoolByPid(_pid) nonReentrant {\r\n        require(_pid>0,\"pool 0 is for staking\");\r\n        PoolInfo storage pool = poolInfo[_pid];\r\n        UserInfo storage user = userInfo[_pid][msg.sender];\r\n        IUniswapPair poolLP = IUniswapPair(address(pool.lpToken));\r\n        updatePool(_pid);\r\n        if (user.amount > 0) {\r\n            uint256 pending =\r\n                user.amount.mul(pool.accLibPerShare).div(1e12).sub(\r\n                    user.rewardDebt\r\n                );\r\n            uint256 fee = pending.mul(2).div(100);\r\n\r\n            safeLibreTransfer(msg.sender, pending.sub(fee));\r\n            safeLibreTransfer(devaddr, fee);\r\n        }\r\n        if (_amount > 0) {\r\n            pool.lpToken.safeTransferFrom(address(msg.sender), address(this), _amount);\r\n            user.amount = user.amount.add(_amount);\r\n        }\r\n        user.rewardDebt = user.amount.mul(pool.accLibPerShare).div(1e12);\r\n    }\r\n    // function depositBoth(uint256 _pid, uint _amount0, uint _amount1) public validatePoolByPid(_pid) nonReentrant payable{\r\n    //     require(_pid>0,\"pool 0 is for staking\");\r\n    //     PoolInfo storage pool = poolInfo[_pid];\r\n    //     UserInfo storage user = userInfo[_pid][msg.sender];\r\n    //     uint256 lpBefore = pool.lpToken.balanceOf(address(this));\r\n    //     if(pool.lpPath[0]!= address(WETH))IERC20(pool.lpPath[0]).transferFrom(msg.sender, address(this), _amount0);\r\n    //     if(pool.lpPath[1]!= address(WETH))IERC20(pool.lpPath[1]).transferFrom(msg.sender, address(this), _amount1);\r\n    //     uint256 token0init = pool.isETHPair ?address(this).balance :IERC20(pool.lpPath[0]).balanceOf(address(this));\r\n    //     uint256 token1Before = pool.isETHPair ?address(this).balance :IERC20(pool.lpPath[1]).balanceOf(address(this));\r\n    //     _addLibLiquidity(msg.sender, pool.isETHPair, msg.value, IERC20(pool.lpPath[0]), IERC20(pool.lpPath[1]), token0init, token1Before, _amount0, _amount1);\r\n    //     uint256 lpAmount = pool.lpToken.balanceOf(address(this)).sub(lpBefore);\r\n    //     uint256 fee = lpAmount.mul(2).div(100);\r\n    //     lpAmount = lpAmount.sub(fee);\r\n    //     pool.lpToken.transfer(devaddr,fee);\r\n    //     user.amount = user.amount.add(lpAmount);\r\n    //     user.rewardDebt = user.amount.mul(pool.accLibPerShare).div(1e12);\r\n    //     emit Deposit(msg.sender, _pid, _amount0, lpAmount);\r\n    // }\r\n    function deposit(uint256 _pid, uint256 _amount, uint8 _slippage, bool _revert) public validatePoolByPid(_pid) nonReentrant payable{\r\n        require(_pid>0,\"pool 0 is for staking\");\r\n        require(_slippage<=20,\"slippage range not greater than 2%\");\r\n        PoolInfo storage pool = poolInfo[_pid];\r\n        UserInfo storage user = userInfo[_pid][msg.sender];\r\n        updatePool(_pid);\r\n        if (user.amount > 0) {\r\n            uint256 pending =\r\n                user.amount.mul(pool.accLibPerShare).div(1e12).sub(\r\n                    user.rewardDebt\r\n                );\r\n            uint256 fee = pending.mul(2).div(100);\r\n\r\n            safeLibreTransfer(msg.sender, pending.sub(fee));\r\n            safeLibreTransfer(devaddr, fee);\r\n        }\r\n        uint256 lpBefore = pool.lpToken.balanceOf(address(this));\r\n        if(msg.value>0 && pool.isETHPair && !_revert) _amount = msg.value;\r\n\r\n        address[] memory lpPath = new address[](2);\r\n        lpPath[0] = _revert ?pool.lpPath[1]:pool.lpPath[0];\r\n        lpPath[1] = _revert ?pool.lpPath[0]:pool.lpPath[1];\r\n        \r\n        uint256 token1Amount=_swap(msg.sender, lpPath, _amount,_slippage, IUniswapRouter(pool.routerAddress));\r\n        uint256 lpAmount = pool.lpToken.balanceOf(address(this)).sub(lpBefore);\r\n\r\n        uint256 fee = lpAmount.mul(2).div(100);\r\n        lpAmount = lpAmount.sub(fee);\r\n        pool.lpToken.transfer(devaddr,fee);\r\n        user.amount = user.amount.add(lpAmount);\r\n        user.rewardDebt = user.amount.mul(pool.accLibPerShare).div(1e12);\r\n        emit Deposit(msg.sender, _pid, _amount, token1Amount);\r\n    }\r\n\r\n    function _swap(address payable _to, address[]memory lpPath, uint256 _amount, uint8 _slippage, IUniswapRouter _uniRouter)private returns (uint256){\r\n        IERC20 token0 = IERC20(lpPath[0]);\r\n        IERC20 token1 = IERC20(lpPath[1]);\r\n        // bool _isETH = lpPath[0] == address(WETH);\r\n        uint256 token0init = lpPath[0] == address(WETH)?address(this).balance :token0.balanceOf(address(this));\r\n        if(lpPath[0] != address(WETH))token0.transferFrom(_to, address(this), _amount);\r\n    \r\n        uint256 token1Before = lpPath[1] == address(WETH)? address(this).balance:token1.balanceOf(address(this));\r\n\r\n        uint256 minAmount = _slippageCalculate(token0, token1, _amount.div(2), _slippage, _uniRouter);\r\n        if(lpPath[0] == address(WETH)) _uniRouter.swapExactETHForTokens{value: _amount.div(2)}(minAmount, lpPath, address(this), block.timestamp);\r\n        else _uniRouter.swapExactTokensForTokens(_amount.div(2), minAmount, lpPath, address(this), block.timestamp);\r\n        \r\n       \r\n        uint256 token0Amount = lpPath[0] == address(WETH) ?_amount.div(2) :token0init.add(_amount).sub(token0.balanceOf(address(this))); \r\n        uint256 token1Amount = token1.balanceOf(address(this)).sub(token1Before);\r\n        bool _isETH = lpPath[0] == address(WETH);\r\n        _addLibLiquidity(_to, _isETH, _amount, token0, token1, token0init, token1Before, token0Amount, token1Amount);\r\n\r\n        return token1Amount;\r\n    }\r\n    function _addLibLiquidity(address payable _to, bool _isETH, uint256 _amount, IERC20 token0, IERC20 token1, uint256 token0init, uint256 token1Before,uint256 token0Amount, uint256 token1Amount)private{\r\n        if(address(token0) == address(WETH)) libreRouter.addLiquidityETH{value: token0Amount}(address(token1),token1Amount,0,0,address(this), block.timestamp);\r\n        else libreRouter.addLiquidity(address(token0), address(token1), token0Amount, token1Amount, 0 , 0, address(this), block.timestamp);\r\n        uint256 token0leftOver = address(token0) == address(WETH) ?address(this).balance.sub(token0init.sub(_amount)) :token0.balanceOf(address(this)).sub(token0init); \r\n        uint256 token1leftOver = token1.balanceOf(address(this)).sub(token1Before); \r\n        \r\n        if(token0leftOver>0 && !_isETH)token0.transfer(_to, token0leftOver);\r\n        else if(token0leftOver>0 && _isETH)_to.transfer(token0leftOver);\r\n        if(token1leftOver>0)token1.transfer(_to, token1leftOver);\r\n\r\n    }\r\n    function _slippageCalculate(IERC20 token0, IERC20 token1, uint256 input, uint8 _slippage, IUniswapRouter _uniRouter)private view returns(uint256){\r\n        address[] memory t = new address[](2);\r\n        t[0] = address(token0);\r\n        t[1] = address(token1);\r\n        // uint256 exceptedAmount = uniRouter.getAmountsOut(input, t)[1].mul(1000-_slippage).div(1000);\r\n        return _uniRouter.getAmountsOut(input, t)[1].mul(1000-_slippage).div(1000);\r\n    }\r\n    // Withdraw LP tokens from MasterChef.\r\n    function withdraw(uint256 _pid, uint256 _amount) public validatePoolByPid(_pid) nonReentrant payable{\r\n        require(_pid>0,\"pool 0 is for staking\");\r\n        PoolInfo storage pool = poolInfo[_pid];\r\n        UserInfo storage user = userInfo[_pid][msg.sender];\r\n        IERC20 token0 = IERC20(pool.lpPath[0]);\r\n        IERC20 token1 = IERC20(pool.lpPath[1]);\r\n\r\n        require(user.amount >= _amount, \"withdraw: not good\");\r\n        if(lib.chef() == address(this))updatePool(_pid);\r\n        uint256 pending =\r\n            user.amount.mul(pool.accLibPerShare).div(1e12).sub(\r\n                user.rewardDebt\r\n            );\r\n        uint256 fee = pending.mul(2).div(100);\r\n        uint256 token0Before = token0.balanceOf(address(this));\r\n        uint256 token1Before = token1.balanceOf(address(this));\r\n\r\n        libreRouter.removeLiquidity(address(token0), address(token1), _amount, 0 , 0, address(this), block.timestamp);\r\n        uint256 token0Amount = token0.balanceOf(address(this)).sub(token0Before);\r\n        uint256 token1Amount = token1.balanceOf(address(this)).sub(token1Before);\r\n        user.amount = user.amount.sub(_amount);\r\n        safeLibreTransfer(msg.sender, pending.sub(fee));\r\n        safeLibreTransfer(devaddr, fee);\r\n        user.rewardDebt = user.amount.mul(pool.accLibPerShare).div(1e12);\r\n        if(pool.isETHPair){\r\n            WETH.withdraw(uint(token0Amount));\r\n            msg.sender.transfer(token0Amount);\r\n            // token0.transfer(address(msg.sender),token0Amount);\r\n        }\r\n        else token0.transfer(address(msg.sender),token0Amount);\r\n        token1.transfer(address(msg.sender),token1Amount);\r\n        emit Withdraw(msg.sender, _pid, _amount);\r\n    }\r\n\r\n    receive() external payable {}\r\n    \r\n    // Safe sushi transfer function, just in case if rounding error causes pool to not have enough Libres.\r\n    function safeLibreTransfer(address _to, uint256 _amount) internal {\r\n        uint256 libBal = lib.balanceOf(address(this));\r\n        if (_amount > libBal) {\r\n            lib.transfer(_to, libBal);\r\n        } else {\r\n            lib.transfer(_to, _amount);\r\n        }\r\n    }\r\n\r\n   \r\n    // Withdraw without caring about rewards. EMERGENCY ONLY.\r\n    function emergencyWithdraw(uint256 _pid) public nonReentrant{\r\n        PoolInfo storage pool = poolInfo[_pid];\r\n        UserInfo storage user = userInfo[_pid][msg.sender];\r\n        if(_pid>0) pool.lpToken.safeTransfer(address(msg.sender), user.amount);\r\n        else{\r\n            safeLibreTransfer(address(msg.sender),user.amount);\r\n            totalStaked = totalStaked.sub(user.amount);\r\n        }\r\n        emit EmergencyWithdraw(msg.sender, _pid, user.amount);\r\n        \r\n        user.amount = 0;\r\n        user.rewardDebt = 0;\r\n    }\r\n    modifier validatePoolByPid(uint256 _pid){\r\n        require(_pid<poolInfo.length, \"Pool does not exist\");\r\n        _;\r\n    }\r\n    // Update dev address by the previous dev.\r\n    function dev(address _devaddr) public {\r\n        require(msg.sender == devaddr, \"dev: wut?\");\r\n        devaddr = _devaddr;\r\n    }\r\n}",
  "sourcePath": "D:/User/Ethereum/LibreV2/contracts/MasterChef.sol",
  "compiler": {
    "name": "solc",
    "version": "0.6.12+commit.27d51765.Emscripten.clang"
  },
  "schemaVersion": "3.3.4",
  "updatedAt": "2021-12-30T02:37:20.881Z",
  "devdoc": {
    "kind": "dev",
    "methods": {
      "owner()": {
        "details": "Returns the address of the current owner."
      },
      "renounceOwnership()": {
        "details": "Leaves the contract without owner. It will not be possible to call `onlyOwner` functions anymore. Can only be called by the current owner. NOTE: Renouncing ownership will leave the contract without an owner, thereby removing any functionality that is only available to the owner."
      },
      "transferOwnership(address)": {
        "details": "Transfers ownership of the contract to a new account (`newOwner`). Can only be called by the current owner."
      }
    },
    "version": 1
  },
  "userdoc": {
    "kind": "user",
    "methods": {},
    "version": 1
  }
}