{
  "contractName": "MasterChef",
  "abi": [
    {
      "inputs": [
        {
          "internalType": "address[]",
          "name": "_lib",
          "type": "address[]"
        },
        {
          "internalType": "address",
          "name": "_devaddr",
          "type": "address"
        },
        {
          "internalType": "address",
          "name": "_libRouter",
          "type": "address"
        },
        {
          "internalType": "address",
          "name": "_uniRouter",
          "type": "address"
        },
        {
          "internalType": "uint256",
          "name": "_libPerBlock",
          "type": "uint256"
        }
      ],
      "stateMutability": "nonpayable",
      "type": "constructor"
    },
    {
      "anonymous": false,
      "inputs": [
        {
          "indexed": true,
          "internalType": "address",
          "name": "user",
          "type": "address"
        },
        {
          "indexed": true,
          "internalType": "uint256",
          "name": "pid",
          "type": "uint256"
        },
        {
          "indexed": false,
          "internalType": "uint256",
          "name": "amount",
          "type": "uint256"
        },
        {
          "indexed": false,
          "internalType": "uint256",
          "name": "token1Amount",
          "type": "uint256"
        }
      ],
      "name": "Deposit",
      "type": "event"
    },
    {
      "anonymous": false,
      "inputs": [
        {
          "indexed": true,
          "internalType": "address",
          "name": "user",
          "type": "address"
        },
        {
          "indexed": true,
          "internalType": "uint256",
          "name": "pid",
          "type": "uint256"
        },
        {
          "indexed": false,
          "internalType": "uint256",
          "name": "amount",
          "type": "uint256"
        }
      ],
      "name": "EmergencyWithdraw",
      "type": "event"
    },
    {
      "anonymous": false,
      "inputs": [
        {
          "indexed": true,
          "internalType": "address",
          "name": "previousOwner",
          "type": "address"
        },
        {
          "indexed": true,
          "internalType": "address",
          "name": "newOwner",
          "type": "address"
        }
      ],
      "name": "OwnershipTransferred",
      "type": "event"
    },
    {
      "anonymous": false,
      "inputs": [
        {
          "indexed": true,
          "internalType": "address",
          "name": "user",
          "type": "address"
        },
        {
          "indexed": true,
          "internalType": "uint256",
          "name": "pid",
          "type": "uint256"
        },
        {
          "indexed": false,
          "internalType": "uint256",
          "name": "amount",
          "type": "uint256"
        }
      ],
      "name": "Withdraw",
      "type": "event"
    },
    {
      "inputs": [],
      "name": "WETH",
      "outputs": [
        {
          "internalType": "contract IWETH",
          "name": "",
          "type": "address"
        }
      ],
      "stateMutability": "view",
      "type": "function"
    },
    {
      "inputs": [],
      "name": "devaddr",
      "outputs": [
        {
          "internalType": "address",
          "name": "",
          "type": "address"
        }
      ],
      "stateMutability": "view",
      "type": "function"
    },
    {
      "inputs": [],
      "name": "lib",
      "outputs": [
        {
          "internalType": "contract ILibre",
          "name": "",
          "type": "address"
        }
      ],
      "stateMutability": "view",
      "type": "function"
    },
    {
      "inputs": [],
      "name": "libPerBlock",
      "outputs": [
        {
          "internalType": "uint256",
          "name": "",
          "type": "uint256"
        }
      ],
      "stateMutability": "view",
      "type": "function"
    },
    {
      "inputs": [],
      "name": "libreRouter",
      "outputs": [
        {
          "internalType": "contract IUniswapRouter",
          "name": "",
          "type": "address"
        }
      ],
      "stateMutability": "view",
      "type": "function"
    },
    {
      "inputs": [],
      "name": "owner",
      "outputs": [
        {
          "internalType": "address",
          "name": "",
          "type": "address"
        }
      ],
      "stateMutability": "view",
      "type": "function"
    },
    {
      "inputs": [
        {
          "internalType": "address",
          "name": "",
          "type": "address"
        }
      ],
      "name": "pidMapping",
      "outputs": [
        {
          "internalType": "uint256",
          "name": "",
          "type": "uint256"
        }
      ],
      "stateMutability": "view",
      "type": "function"
    },
    {
      "inputs": [
        {
          "internalType": "uint256",
          "name": "",
          "type": "uint256"
        }
      ],
      "name": "poolInfo",
      "outputs": [
        {
          "internalType": "contract IERC20",
          "name": "lpToken",
          "type": "address"
        },
        {
          "internalType": "uint256",
          "name": "allocPoint",
          "type": "uint256"
        },
        {
          "internalType": "uint256",
          "name": "lastRewardBlock",
          "type": "uint256"
        },
        {
          "internalType": "uint256",
          "name": "accLibPerShare",
          "type": "uint256"
        },
        {
          "internalType": "bool",
          "name": "isETHPair",
          "type": "bool"
        }
      ],
      "stateMutability": "view",
      "type": "function"
    },
    {
      "inputs": [],
      "name": "renounceOwnership",
      "outputs": [],
      "stateMutability": "nonpayable",
      "type": "function"
    },
    {
      "inputs": [],
      "name": "startBlock",
      "outputs": [
        {
          "internalType": "uint256",
          "name": "",
          "type": "uint256"
        }
      ],
      "stateMutability": "view",
      "type": "function"
    },
    {
      "inputs": [],
      "name": "totalAllocPoint",
      "outputs": [
        {
          "internalType": "uint256",
          "name": "",
          "type": "uint256"
        }
      ],
      "stateMutability": "view",
      "type": "function"
    },
    {
      "inputs": [],
      "name": "totalStaked",
      "outputs": [
        {
          "internalType": "uint256",
          "name": "",
          "type": "uint256"
        }
      ],
      "stateMutability": "view",
      "type": "function"
    },
    {
      "inputs": [
        {
          "internalType": "address",
          "name": "newOwner",
          "type": "address"
        }
      ],
      "name": "transferOwnership",
      "outputs": [],
      "stateMutability": "nonpayable",
      "type": "function"
    },
    {
      "inputs": [],
      "name": "uniRouter",
      "outputs": [
        {
          "internalType": "contract IUniswapRouter",
          "name": "",
          "type": "address"
        }
      ],
      "stateMutability": "view",
      "type": "function"
    },
    {
      "inputs": [
        {
          "internalType": "uint256",
          "name": "",
          "type": "uint256"
        },
        {
          "internalType": "address",
          "name": "",
          "type": "address"
        }
      ],
      "name": "userInfo",
      "outputs": [
        {
          "internalType": "uint256",
          "name": "amount",
          "type": "uint256"
        },
        {
          "internalType": "uint256",
          "name": "rewardDebt",
          "type": "uint256"
        }
      ],
      "stateMutability": "view",
      "type": "function"
    },
    {
      "stateMutability": "payable",
      "type": "receive"
    },
    {
      "inputs": [
        {
          "internalType": "uint256",
          "name": "_libPerBlock",
          "type": "uint256"
        }
      ],
      "name": "setLibrePerBlock",
      "outputs": [],
      "stateMutability": "nonpayable",
      "type": "function"
    },
    {
      "inputs": [],
      "name": "poolLength",
      "outputs": [
        {
          "internalType": "uint256",
          "name": "",
          "type": "uint256"
        }
      ],
      "stateMutability": "view",
      "type": "function"
    },
    {
      "inputs": [
        {
          "internalType": "uint256",
          "name": "_pid",
          "type": "uint256"
        }
      ],
      "name": "getPoolInfo",
      "outputs": [
        {
          "internalType": "address",
          "name": "lp",
          "type": "address"
        },
        {
          "internalType": "uint256",
          "name": "allocPoint",
          "type": "uint256"
        },
        {
          "internalType": "uint256",
          "name": "lastRewardBlock",
          "type": "uint256"
        },
        {
          "internalType": "address[]",
          "name": "lpPath",
          "type": "address[]"
        },
        {
          "internalType": "uint256",
          "name": "accLibPerShare",
          "type": "uint256"
        },
        {
          "internalType": "bool",
          "name": "isETHpair",
          "type": "bool"
        }
      ],
      "stateMutability": "view",
      "type": "function"
    },
    {
      "inputs": [
        {
          "internalType": "address",
          "name": "_router",
          "type": "address"
        },
        {
          "internalType": "uint8",
          "name": "index",
          "type": "uint8"
        }
      ],
      "name": "setRouter",
      "outputs": [],
      "stateMutability": "nonpayable",
      "type": "function"
    },
    {
      "inputs": [
        {
          "internalType": "uint8",
          "name": "_pid",
          "type": "uint8"
        }
      ],
      "name": "forAPYC",
      "outputs": [
        {
          "internalType": "contract IERC20",
          "name": "",
          "type": "address"
        },
        {
          "internalType": "address[]",
          "name": "",
          "type": "address[]"
        },
        {
          "internalType": "uint256",
          "name": "",
          "type": "uint256"
        }
      ],
      "stateMutability": "view",
      "type": "function"
    },
    {
      "inputs": [
        {
          "internalType": "uint256",
          "name": "_allocPoint",
          "type": "uint256"
        },
        {
          "internalType": "contract IERC20",
          "name": "_lpToken",
          "type": "address"
        },
        {
          "internalType": "address[]",
          "name": "_lpPath",
          "type": "address[]"
        },
        {
          "internalType": "bool",
          "name": "_withUpdate",
          "type": "bool"
        },
        {
          "internalType": "bool",
          "name": "_isETHPair",
          "type": "bool"
        }
      ],
      "name": "add",
      "outputs": [],
      "stateMutability": "nonpayable",
      "type": "function"
    },
    {
      "inputs": [
        {
          "internalType": "uint256",
          "name": "_pid",
          "type": "uint256"
        },
        {
          "internalType": "uint256",
          "name": "_allocPoint",
          "type": "uint256"
        },
        {
          "internalType": "address[]",
          "name": "_lpPath",
          "type": "address[]"
        },
        {
          "internalType": "bool",
          "name": "_withUpdate",
          "type": "bool"
        }
      ],
      "name": "set",
      "outputs": [],
      "stateMutability": "nonpayable",
      "type": "function"
    },
    {
      "inputs": [
        {
          "internalType": "address payable",
          "name": "_newFarm",
          "type": "address"
        }
      ],
      "name": "setNewFarm",
      "outputs": [],
      "stateMutability": "nonpayable",
      "type": "function"
    },
    {
      "inputs": [
        {
          "internalType": "address payable",
          "name": "_oldFarm",
          "type": "address"
        }
      ],
      "name": "setOldFarm",
      "outputs": [],
      "stateMutability": "nonpayable",
      "type": "function"
    },
    {
      "inputs": [
        {
          "internalType": "uint256",
          "name": "_pid",
          "type": "uint256"
        }
      ],
      "name": "migrate",
      "outputs": [],
      "stateMutability": "nonpayable",
      "type": "function"
    },
    {
      "inputs": [
        {
          "internalType": "address",
          "name": "user",
          "type": "address"
        },
        {
          "internalType": "address",
          "name": "lp",
          "type": "address"
        },
        {
          "internalType": "uint256",
          "name": "_amount",
          "type": "uint256"
        },
        {
          "internalType": "uint256",
          "name": "_reward",
          "type": "uint256"
        }
      ],
      "name": "migrateReceiver",
      "outputs": [],
      "stateMutability": "nonpayable",
      "type": "function"
    },
    {
      "inputs": [
        {
          "internalType": "uint256",
          "name": "_pid",
          "type": "uint256"
        },
        {
          "internalType": "address",
          "name": "_user",
          "type": "address"
        }
      ],
      "name": "pendingLib",
      "outputs": [
        {
          "internalType": "uint256",
          "name": "",
          "type": "uint256"
        }
      ],
      "stateMutability": "view",
      "type": "function"
    },
    {
      "inputs": [],
      "name": "massUpdatePools",
      "outputs": [],
      "stateMutability": "nonpayable",
      "type": "function"
    },
    {
      "inputs": [
        {
          "internalType": "uint256",
          "name": "_pid",
          "type": "uint256"
        }
      ],
      "name": "updatePool",
      "outputs": [],
      "stateMutability": "nonpayable",
      "type": "function"
    },
    {
      "inputs": [
        {
          "internalType": "uint256",
          "name": "_amount",
          "type": "uint256"
        }
      ],
      "name": "stake",
      "outputs": [],
      "stateMutability": "nonpayable",
      "type": "function"
    },
    {
      "inputs": [
        {
          "internalType": "uint256",
          "name": "_amount",
          "type": "uint256"
        }
      ],
      "name": "unstake",
      "outputs": [],
      "stateMutability": "nonpayable",
      "type": "function"
    },
    {
      "inputs": [
        {
          "internalType": "uint256",
          "name": "_pid",
          "type": "uint256"
        },
        {
          "internalType": "uint256",
          "name": "_amount",
          "type": "uint256"
        },
        {
          "internalType": "uint8",
          "name": "_slippage",
          "type": "uint8"
        },
        {
          "internalType": "bool",
          "name": "_revert",
          "type": "bool"
        }
      ],
      "name": "deposit",
      "outputs": [],
      "stateMutability": "payable",
      "type": "function"
    },
    {
      "inputs": [
        {
          "internalType": "uint256",
          "name": "_pid",
          "type": "uint256"
        },
        {
          "internalType": "uint256",
          "name": "_amount",
          "type": "uint256"
        }
      ],
      "name": "withdraw",
      "outputs": [],
      "stateMutability": "payable",
      "type": "function"
    },
    {
      "inputs": [
        {
          "internalType": "uint256",
          "name": "_pid",
          "type": "uint256"
        }
      ],
      "name": "emergencyWithdraw",
      "outputs": [],
      "stateMutability": "nonpayable",
      "type": "function"
    },
    {
      "inputs": [
        {
          "internalType": "address",
          "name": "_devaddr",
          "type": "address"
        }
      ],
      "name": "dev",
      "outputs": [],
      "stateMutability": "nonpayable",
      "type": "function"
    }
  ],
  "bytecode": "0x60806040526000600b556000600d553480156200001b57600080fd5b50604051620074ea380380620074ea833981810160405260a08110156200004157600080fd5b81019080805160405193929190846401000000008211156200006257600080fd5b838201915060208201858111156200007957600080fd5b82518660208202830111640100000000821117156200009757600080fd5b8083526020830192505050908051906020019060200280838360005b83811015620000d0578082015181840152602081019050620000b3565b505050509050016040526020018051906020019092919080519060200190929190805190602001909291908051906020019092919050505060006200011a620005dc60201b60201c565b9050806000806101000a81548173ffffffffffffffffffffffffffffffffffffffff021916908373ffffffffffffffffffffffffffffffffffffffff1602179055508073ffffffffffffffffffffffffffffffffffffffff16600073ffffffffffffffffffffffffffffffffffffffff167f8be0079c531659141344cd1fd0a4f28419497f9722a3daafe3b4186f6b6457e060405160405180910390a3506001600281905550600073ffffffffffffffffffffffffffffffffffffffff168473ffffffffffffffffffffffffffffffffffffffff16141562000264576040517f08c379a00000000000000000000000000000000000000000000000000000000081526004018080602001828103825260148152602001807f5f646576616464722063616e6e6f74206265203000000000000000000000000081525060200191505060405180910390fd5b846000815181106200027257fe5b6020026020010151600360006101000a81548173ffffffffffffffffffffffffffffffffffffffff021916908373ffffffffffffffffffffffffffffffffffffffff16021790555082600760006101000a81548173ffffffffffffffffffffffffffffffffffffffff021916908373ffffffffffffffffffffffffffffffffffffffff16021790555081600660006101000a81548173ffffffffffffffffffffffffffffffffffffffff021916908373ffffffffffffffffffffffffffffffffffffffff16021790555083600460006101000a81548173ffffffffffffffffffffffffffffffffffffffff021916908373ffffffffffffffffffffffffffffffffffffffff16021790555043600c8190555080600581905550620003a8600a600b54620005e460201b62004ff11790919060201c565b600b81905550600660009054906101000a900473ffffffffffffffffffffffffffffffffffffffff1673ffffffffffffffffffffffffffffffffffffffff1663ad5c46486040518163ffffffff1660e01b815260040160206040518083038186803b1580156200041757600080fd5b505afa1580156200042c573d6000803e3d6000fd5b505050506040513d60208110156200044357600080fd5b8101908080519060200190929190505050601060006101000a81548173ffffffffffffffffffffffffffffffffffffffff021916908373ffffffffffffffffffffffffffffffffffffffff16021790555060086040518060c00160405280600360009054906101000a900473ffffffffffffffffffffffffffffffffffffffff1673ffffffffffffffffffffffffffffffffffffffff168152602001600a8152602001600c5481526020018781526020016000815260200160001515815250908060018154018082558091505060019003906000526020600020906006020160009091909190915060008201518160000160006101000a81548173ffffffffffffffffffffffffffffffffffffffff021916908373ffffffffffffffffffffffffffffffffffffffff16021790555060208201518160010155604082015181600201556060820151816003019080519060200190620005a49291906200066d565b506080820151816004015560a08201518160050160006101000a81548160ff0219169083151502179055505050505050505062000739565b600033905090565b60008082840190508381101562000663576040517f08c379a000000000000000000000000000000000000000000000000000000000815260040180806020018281038252601b8152602001807f536166654d6174683a206164646974696f6e206f766572666c6f77000000000081525060200191505060405180910390fd5b8091505092915050565b828054828255906000526020600020908101928215620006e9579160200282015b82811115620006e85782518260006101000a81548173ffffffffffffffffffffffffffffffffffffffff021916908373ffffffffffffffffffffffffffffffffffffffff160217905550916020019190600101906200068e565b5b509050620006f89190620006fc565b5090565b5b808211156200073557600081816101000a81549073ffffffffffffffffffffffffffffffffffffffff021916905550600101620006fd565b5090565b616da180620007496000396000f3fe6080604052600436106102085760003560e01c8063817b1cd211610118578063ad5c4648116100a0578063c31ed3971161006f578063c31ed39714610c49578063c5d131b314610c9a578063d49e77cd14610d1f578063d603320614610d60578063f2fde38b14610d9b5761020f565b8063ad5c464814610b27578063b170050314610b68578063b7055c3d14610b93578063b7521b7f14610be45761020f565b806392801230116100e757806392801230146109855780639381ff58146109c657806393f1a40b14610a35578063a0e47bf614610aab578063a694fc3a14610aec5761020f565b8063817b1cd21461086a57806383f1d681146108955780638d88a90e146108f35780638da5cb5b146109445761020f565b806348cd4cb11161019b5780635de98a011161016a5780635de98a011461060f578063630b5ba1146107165780636fc3af571461072d578063715018a61461081257806371663c8a146108295761020f565b806348cd4cb11461051d57806351eb05a6146105485780635312ea8e146105835780635b4131b3146105be5761020f565b80632f380b35116101d75780632f380b35146103285780633abb7810146103f3578063441a3e70146104aa578063454b0608146104e25761020f565b8063081e3eda146102145780631526fe271461023f57806317caf6f1146102c25780632e17de78146102ed5761020f565b3661020f57005b600080fd5b34801561022057600080fd5b50610229610dec565b6040518082815260200191505060405180910390f35b34801561024b57600080fd5b506102786004803603602081101561026257600080fd5b8101908080359060200190929190505050610df9565b604051808673ffffffffffffffffffffffffffffffffffffffff16815260200185815260200184815260200183815260200182151581526020019550505050505060405180910390f35b3480156102ce57600080fd5b506102d7610e69565b6040518082815260200191505060405180910390f35b3480156102f957600080fd5b506103266004803603602081101561031057600080fd5b8101908080359060200190929190505050610e6f565b005b34801561033457600080fd5b506103616004803603602081101561034b57600080fd5b8101908080359060200190929190505050611182565b604051808773ffffffffffffffffffffffffffffffffffffffff168152602001868152602001858152602001806020018481526020018315158152602001828103825285818151815260200191508051906020019060200280838360005b838110156103da5780820151818401526020810190506103bf565b5050505090500197505050505050505060405180910390f35b3480156103ff57600080fd5b5061042f6004803603602081101561041657600080fd5b81019080803560ff169060200190929190505050611293565b604051808473ffffffffffffffffffffffffffffffffffffffff16815260200180602001838152602001828103825284818151815260200191508051906020019060200280838360005b83811015610494578082015181840152602081019050610479565b5050505090500194505050505060405180910390f35b6104e0600480360360408110156104c057600080fd5b8101908080359060200190929190803590602001909291905050506113b3565b005b3480156104ee57600080fd5b5061051b6004803603602081101561050557600080fd5b8101908080359060200190929190505050611e4a565b005b34801561052957600080fd5b506105326120a6565b6040518082815260200191505060405180910390f35b34801561055457600080fd5b506105816004803603602081101561056b57600080fd5b81019080803590602001909291905050506120ac565b005b34801561058f57600080fd5b506105bc600480360360208110156105a657600080fd5b81019080803590602001909291905050506123a4565b005b3480156105ca57600080fd5b5061060d600480360360208110156105e157600080fd5b81019080803573ffffffffffffffffffffffffffffffffffffffff169060200190929190505050612599565b005b34801561061b57600080fd5b50610714600480360360a081101561063257600080fd5b8101908080359060200190929190803573ffffffffffffffffffffffffffffffffffffffff1690602001909291908035906020019064010000000081111561067957600080fd5b82018360208201111561068b57600080fd5b803590602001918460208302840111640100000000831117156106ad57600080fd5b919080806020026020016040519081016040528093929190818152602001838360200280828437600081840152601f19601f8201169050808301925050505050505091929192908035151590602001909291908035151590602001909291905050506126a5565b005b34801561072257600080fd5b5061072b61337e565b005b34801561073957600080fd5b506108106004803603608081101561075057600080fd5b8101908080359060200190929190803590602001909291908035906020019064010000000081111561078157600080fd5b82018360208201111561079357600080fd5b803590602001918460208302840111640100000000831117156107b557600080fd5b919080806020026020016040519081016040528093929190818152602001838360200280828437600081840152601f19601f8201169050808301925050505050505091929192908035151590602001909291905050506133ab565b005b34801561081e57600080fd5b506108276135a5565b005b34801561083557600080fd5b5061083e61372b565b604051808273ffffffffffffffffffffffffffffffffffffffff16815260200191505060405180910390f35b34801561087657600080fd5b5061087f613751565b6040518082815260200191505060405180910390f35b3480156108a157600080fd5b506108f1600480360360408110156108b857600080fd5b81019080803573ffffffffffffffffffffffffffffffffffffffff169060200190929190803560ff169060200190929190505050613757565b005b3480156108ff57600080fd5b506109426004803603602081101561091657600080fd5b81019080803573ffffffffffffffffffffffffffffffffffffffff169060200190929190505050613967565b005b34801561095057600080fd5b50610959613a6e565b604051808273ffffffffffffffffffffffffffffffffffffffff16815260200191505060405180910390f35b34801561099157600080fd5b5061099a613a97565b604051808273ffffffffffffffffffffffffffffffffffffffff16815260200191505060405180910390f35b3480156109d257600080fd5b50610a1f600480360360408110156109e957600080fd5b8101908080359060200190929190803573ffffffffffffffffffffffffffffffffffffffff169060200190929190505050613abd565b6040518082815260200191505060405180910390f35b348015610a4157600080fd5b50610a8e60048036036040811015610a5857600080fd5b8101908080359060200190929190803573ffffffffffffffffffffffffffffffffffffffff169060200190929190505050613d80565b604051808381526020018281526020019250505060405180910390f35b348015610ab757600080fd5b50610ac0613db1565b604051808273ffffffffffffffffffffffffffffffffffffffff16815260200191505060405180910390f35b348015610af857600080fd5b50610b2560048036036020811015610b0f57600080fd5b8101908080359060200190929190505050613dd7565b005b348015610b3357600080fd5b50610b3c61416a565b604051808273ffffffffffffffffffffffffffffffffffffffff16815260200191505060405180910390f35b348015610b7457600080fd5b50610b7d614190565b6040518082815260200191505060405180910390f35b348015610b9f57600080fd5b50610be260048036036020811015610bb657600080fd5b81019080803573ffffffffffffffffffffffffffffffffffffffff169060200190929190505050614196565b005b348015610bf057600080fd5b50610c3360048036036020811015610c0757600080fd5b81019080803573ffffffffffffffffffffffffffffffffffffffff1690602001909291905050506142a2565b6040518082815260200191505060405180910390f35b610c9860048036036080811015610c5f57600080fd5b810190808035906020019092919080359060200190929190803560ff1690602001909291908035151590602001909291905050506142ba565b005b348015610ca657600080fd5b50610d1d60048036036080811015610cbd57600080fd5b81019080803573ffffffffffffffffffffffffffffffffffffffff169060200190929190803573ffffffffffffffffffffffffffffffffffffffff1690602001909291908035906020019092919080359060200190929190505050614b40565b005b348015610d2b57600080fd5b50610d34614e25565b604051808273ffffffffffffffffffffffffffffffffffffffff16815260200191505060405180910390f35b348015610d6c57600080fd5b50610d9960048036036020811015610d8357600080fd5b8101908080359060200190929190505050614e4b565b005b348015610da757600080fd5b50610dea60048036036020811015610dbe57600080fd5b81019080803573ffffffffffffffffffffffffffffffffffffffff169060200190929190505050614f1d565b005b6000600880549050905090565b60088181548110610e0657fe5b90600052602060002090600602016000915090508060000160009054906101000a900473ffffffffffffffffffffffffffffffffffffffff16908060010154908060020154908060040154908060050160009054906101000a900460ff16905085565b600b5481565b600280541415610ee7576040517f08c379a000000000000000000000000000000000000000000000000000000000815260040180806020018281038252601f8152602001807f5265656e7472616e637947756172643a207265656e7472616e742063616c6c0081525060200191505060405180910390fd5b6002808190555060006008600081548110610efe57fe5b9060005260206000209060060201905060006009600080815260200190815260200160002060003373ffffffffffffffffffffffffffffffffffffffff1673ffffffffffffffffffffffffffffffffffffffff1681526020019081526020016000209050610f6c60006120ac565b610f8183600d5461507990919063ffffffff16565b600d819055508281600001541015611001576040517f08c379a00000000000000000000000000000000000000000000000000000000081526004018080602001828103825260128152602001807f77697468647261773a206e6f7420676f6f64000000000000000000000000000081525060200191505060405180910390fd5b600061104b826001015461103d64e8d4a5100061102f876004015487600001546150c390919063ffffffff16565b61514990919063ffffffff16565b61507990919063ffffffff16565b9050600061107660646110686002856150c390919063ffffffff16565b61514990919063ffffffff16565b905061108f85846000015461507990919063ffffffff16565b83600001819055506110b3336110ae838561507990919063ffffffff16565b615193565b6110df600460009054906101000a900473ffffffffffffffffffffffffffffffffffffffff1682615193565b61111164e8d4a51000611103866004015486600001546150c390919063ffffffff16565b61514990919063ffffffff16565b83600101819055506111233386615193565b60003373ffffffffffffffffffffffffffffffffffffffff167ff279e6a1f5e320cca91135676d9cb6e44ca8a08c0b88342bcdb1144f6511b568876040518082815260200191505060405180910390a350505050600160028190555050565b6000806000606060008060006008888154811061119b57fe5b906000526020600020906006020190508060000160009054906101000a900473ffffffffffffffffffffffffffffffffffffffff16816001015482600201548360030184600401548560050160009054906101000a900460ff168280548060200260200160405190810160405280929190818152602001828054801561127657602002820191906000526020600020905b8160009054906101000a900473ffffffffffffffffffffffffffffffffffffffff1673ffffffffffffffffffffffffffffffffffffffff168152602001906001019080831161122c575b505050505092509650965096509650965096505091939550919395565b60006060600060088460ff16815481106112a957fe5b906000526020600020906006020160000160009054906101000a900473ffffffffffffffffffffffffffffffffffffffff1660088560ff16815481106112eb57fe5b906000526020600020906006020160030160088660ff168154811061130c57fe5b9060005260206000209060060201600101548180548060200260200160405190810160405280929190818152602001828054801561139f57602002820191906000526020600020905b8160009054906101000a900473ffffffffffffffffffffffffffffffffffffffff1673ffffffffffffffffffffffffffffffffffffffff1681526020019060010190808311611355575b505050505091509250925092509193909250565b81600880549050811061142e576040517f08c379a00000000000000000000000000000000000000000000000000000000081526004018080602001828103825260138152602001807f506f6f6c20646f6573206e6f742065786973740000000000000000000000000081525060200191505060405180910390fd5b6002805414156114a6576040517f08c379a000000000000000000000000000000000000000000000000000000000815260040180806020018281038252601f8152602001807f5265656e7472616e637947756172643a207265656e7472616e742063616c6c0081525060200191505060405180910390fd5b6002808190555060008311611523576040517f08c379a00000000000000000000000000000000000000000000000000000000081526004018080602001828103825260158152602001807f706f6f6c203020697320666f72207374616b696e67000000000000000000000081525060200191505060405180910390fd5b60006008848154811061153257fe5b9060005260206000209060060201905060006009600086815260200190815260200160002060003373ffffffffffffffffffffffffffffffffffffffff1673ffffffffffffffffffffffffffffffffffffffff16815260200190815260200160002090506000826003016000815481106115a857fe5b9060005260206000200160009054906101000a900473ffffffffffffffffffffffffffffffffffffffff1690506000836003016001815481106115e757fe5b9060005260206000200160009054906101000a900473ffffffffffffffffffffffffffffffffffffffff169050858360000154101561168e576040517f08c379a00000000000000000000000000000000000000000000000000000000081526004018080602001828103825260128152602001807f77697468647261773a206e6f7420676f6f64000000000000000000000000000081525060200191505060405180910390fd5b611697876120ac565b60006116e184600101546116d364e8d4a510006116c5896004015489600001546150c390919063ffffffff16565b61514990919063ffffffff16565b61507990919063ffffffff16565b9050600061170c60646116fe6002856150c390919063ffffffff16565b61514990919063ffffffff16565b905060008473ffffffffffffffffffffffffffffffffffffffff166370a08231306040518263ffffffff1660e01b8152600401808273ffffffffffffffffffffffffffffffffffffffff16815260200191505060206040518083038186803b15801561177757600080fd5b505afa15801561178b573d6000803e3d6000fd5b505050506040513d60208110156117a157600080fd5b8101908080519060200190929190505050905060008473ffffffffffffffffffffffffffffffffffffffff166370a08231306040518263ffffffff1660e01b8152600401808273ffffffffffffffffffffffffffffffffffffffff16815260200191505060206040518083038186803b15801561181d57600080fd5b505afa158015611831573d6000803e3d6000fd5b505050506040513d602081101561184757600080fd5b81019080805190602001909291905050509050600760009054906101000a900473ffffffffffffffffffffffffffffffffffffffff1673ffffffffffffffffffffffffffffffffffffffff1663baa2abde87878d60008030426040518863ffffffff1660e01b8152600401808873ffffffffffffffffffffffffffffffffffffffff1681526020018773ffffffffffffffffffffffffffffffffffffffff1681526020018681526020018581526020018481526020018373ffffffffffffffffffffffffffffffffffffffff1681526020018281526020019750505050505050506040805180830381600087803b15801561194157600080fd5b505af1158015611955573d6000803e3d6000fd5b505050506040513d604081101561196b57600080fd5b81019080805190602001909291908051906020019092919050505050506000611a3e838873ffffffffffffffffffffffffffffffffffffffff166370a08231306040518263ffffffff1660e01b8152600401808273ffffffffffffffffffffffffffffffffffffffff16815260200191505060206040518083038186803b1580156119f557600080fd5b505afa158015611a09573d6000803e3d6000fd5b505050506040513d6020811015611a1f57600080fd5b810190808051906020019092919050505061507990919063ffffffff16565b90506000611af6838873ffffffffffffffffffffffffffffffffffffffff166370a08231306040518263ffffffff1660e01b8152600401808273ffffffffffffffffffffffffffffffffffffffff16815260200191505060206040518083038186803b158015611aad57600080fd5b505afa158015611ac1573d6000803e3d6000fd5b505050506040513d6020811015611ad757600080fd5b810190808051906020019092919050505061507990919063ffffffff16565b9050611b0f8c8a6000015461507990919063ffffffff16565b8960000181905550611b3333611b2e878961507990919063ffffffff16565b615193565b611b5f600460009054906101000a900473ffffffffffffffffffffffffffffffffffffffff1686615193565b611b9164e8d4a51000611b838c600401548c600001546150c390919063ffffffff16565b61514990919063ffffffff16565b89600101819055508960050160009054906101000a900460ff1615611c8957601060009054906101000a900473ffffffffffffffffffffffffffffffffffffffff1673ffffffffffffffffffffffffffffffffffffffff16632e1a7d4d836040518263ffffffff1660e01b815260040180828152602001915050600060405180830381600087803b158015611c2557600080fd5b505af1158015611c39573d6000803e3d6000fd5b505050503373ffffffffffffffffffffffffffffffffffffffff166108fc839081150290604051600060405180830381858888f19350505050158015611c83573d6000803e3d6000fd5b50611d37565b8773ffffffffffffffffffffffffffffffffffffffff1663a9059cbb33846040518363ffffffff1660e01b8152600401808373ffffffffffffffffffffffffffffffffffffffff16815260200182815260200192505050602060405180830381600087803b158015611cfa57600080fd5b505af1158015611d0e573d6000803e3d6000fd5b505050506040513d6020811015611d2457600080fd5b8101908080519060200190929190505050505b8673ffffffffffffffffffffffffffffffffffffffff1663a9059cbb33836040518363ffffffff1660e01b8152600401808373ffffffffffffffffffffffffffffffffffffffff16815260200182815260200192505050602060405180830381600087803b158015611da857600080fd5b505af1158015611dbc573d6000803e3d6000fd5b505050506040513d6020811015611dd257600080fd5b8101908080519060200190929190505050508c3373ffffffffffffffffffffffffffffffffffffffff167ff279e6a1f5e320cca91135676d9cb6e44ca8a08c0b88342bcdb1144f6511b5688e6040518082815260200191505060405180910390a3505050505050505050506001600281905550505050565b600073ffffffffffffffffffffffffffffffffffffffff16600e60009054906101000a900473ffffffffffffffffffffffffffffffffffffffff1673ffffffffffffffffffffffffffffffffffffffff161415611f0f576040517f08c379a00000000000000000000000000000000000000000000000000000000081526004018080602001828103825260148152602001807f6d6967726174653a206e6f206e6577206661726d00000000000000000000000081525060200191505060405180910390fd5b600060088281548110611f1e57fe5b9060005260206000209060060201905060006009600084815260200190815260200160002060003373ffffffffffffffffffffffffffffffffffffffff1673ffffffffffffffffffffffffffffffffffffffff1681526020019081526020016000209050600083111561200557612000600e60009054906101000a900473ffffffffffffffffffffffffffffffffffffffff1682600001548460000160009054906101000a900473ffffffffffffffffffffffffffffffffffffffff1673ffffffffffffffffffffffffffffffffffffffff1661540c9092919063ffffffff16565b612055565b612035600e60009054906101000a900473ffffffffffffffffffffffffffffffffffffffff168260000154615193565b61204e8160000154600d5461507990919063ffffffff16565b600d819055505b61208d338360000160009054906101000a900473ffffffffffffffffffffffffffffffffffffffff1683600001548460010154614b40565b6000816000018190555060008160010181905550505050565b600c5481565b806008805490508110612127576040517f08c379a00000000000000000000000000000000000000000000000000000000081526004018080602001828103825260138152602001807f506f6f6c20646f6573206e6f742065786973740000000000000000000000000081525060200191505060405180910390fd5b60006008838154811061213657fe5b906000526020600020906006020190508060020154431161215757506123a0565b600080841461222b578160000160009054906101000a900473ffffffffffffffffffffffffffffffffffffffff1673ffffffffffffffffffffffffffffffffffffffff166370a08231306040518263ffffffff1660e01b8152600401808273ffffffffffffffffffffffffffffffffffffffff16815260200191505060206040518083038186803b1580156121eb57600080fd5b505afa1580156121ff573d6000803e3d6000fd5b505050506040513d602081101561221557600080fd5b810190808051906020019092919050505061222f565b600d545b9050600081141561224a5743826002018190555050506123a0565b600061225a8360020154436154ae565b9050600061229d600b5461228f8660010154612281600554876150c390919063ffffffff16565b6150c390919063ffffffff16565b61514990919063ffffffff16565b9050600360009054906101000a900473ffffffffffffffffffffffffffffffffffffffff1673ffffffffffffffffffffffffffffffffffffffff166340c10f1930836040518363ffffffff1660e01b8152600401808373ffffffffffffffffffffffffffffffffffffffff16815260200182815260200192505050600060405180830381600087803b15801561233257600080fd5b505af1158015612346573d6000803e3d6000fd5b5050505061238a6123778461236964e8d4a51000856150c390919063ffffffff16565b61514990919063ffffffff16565b8560040154614ff190919063ffffffff16565b8460040181905550438460020181905550505050505b5050565b60028054141561241c576040517f08c379a000000000000000000000000000000000000000000000000000000000815260040180806020018281038252601f8152602001807f5265656e7472616e637947756172643a207265656e7472616e742063616c6c0081525060200191505060405180910390fd5b6002808190555060006008828154811061243257fe5b9060005260206000209060060201905060006009600084815260200190815260200160002060003373ffffffffffffffffffffffffffffffffffffffff1673ffffffffffffffffffffffffffffffffffffffff168152602001908152602001600020905060008311156124f7576124f23382600001548460000160009054906101000a900473ffffffffffffffffffffffffffffffffffffffff1673ffffffffffffffffffffffffffffffffffffffff1661540c9092919063ffffffff16565b612525565b612505338260000154615193565b61251e8160000154600d5461507990919063ffffffff16565b600d819055505b823373ffffffffffffffffffffffffffffffffffffffff167fbb757047c2b5f3974fe26b7c10f732e7bce710b0952a71082702781e62ae059583600001546040518082815260200191505060405180910390a360008160000181905550600081600101819055505050600160028190555050565b6125a1615526565b73ffffffffffffffffffffffffffffffffffffffff1660008054906101000a900473ffffffffffffffffffffffffffffffffffffffff1673ffffffffffffffffffffffffffffffffffffffff1614612661576040517f08c379a00000000000000000000000000000000000000000000000000000000081526004018080602001828103825260208152602001807f4f776e61626c653a2063616c6c6572206973206e6f7420746865206f776e657281525060200191505060405180910390fd5b80600e60006101000a81548173ffffffffffffffffffffffffffffffffffffffff021916908373ffffffffffffffffffffffffffffffffffffffff16021790555050565b6126ad615526565b73ffffffffffffffffffffffffffffffffffffffff1660008054906101000a900473ffffffffffffffffffffffffffffffffffffffff1673ffffffffffffffffffffffffffffffffffffffff161461276d576040517f08c379a00000000000000000000000000000000000000000000000000000000081526004018080602001828103825260208152602001807f4f776e61626c653a2063616c6c6572206973206e6f7420746865206f776e657281525060200191505060405180910390fd5b6000600a60008673ffffffffffffffffffffffffffffffffffffffff1673ffffffffffffffffffffffffffffffffffffffff1681526020019081526020016000205414612822576040517f08c379a00000000000000000000000000000000000000000000000000000000081526004018080602001828103825260128152602001807f4c5020616c726561647920696e20706f6f6c000000000000000000000000000081525060200191505060405180910390fd5b600360009054906101000a900473ffffffffffffffffffffffffffffffffffffffff1673ffffffffffffffffffffffffffffffffffffffff168473ffffffffffffffffffffffffffffffffffffffff1614156128e6576040517f08c379a00000000000000000000000000000000000000000000000000000000081526004018080602001828103825260128152602001807f4c502063616e6e6f74206265204c49425245000000000000000000000000000081525060200191505060405180910390fd5b600880549050600a60008673ffffffffffffffffffffffffffffffffffffffff1673ffffffffffffffffffffffffffffffffffffffff16815260200190815260200160002081905550811561293e5761293d61337e565b5b6000600c54431161295157600c54612953565b435b905061296a86600b54614ff190919063ffffffff16565b600b8190555060008460008151811061297f57fe5b6020026020010151905060008560018151811061299857fe5b602002602001015190506000879050866000815181106129b457fe5b602002602001015173ffffffffffffffffffffffffffffffffffffffff168173ffffffffffffffffffffffffffffffffffffffff16630dfe16816040518163ffffffff1660e01b815260040160206040518083038186803b158015612a1857600080fd5b505afa158015612a2c573d6000803e3d6000fd5b505050506040513d6020811015612a4257600080fd5b810190808051906020019092919050505073ffffffffffffffffffffffffffffffffffffffff16148015612b35575086600181518110612a7e57fe5b602002602001015173ffffffffffffffffffffffffffffffffffffffff168173ffffffffffffffffffffffffffffffffffffffff1663d21220a76040518163ffffffff1660e01b815260040160206040518083038186803b158015612ae257600080fd5b505afa158015612af6573d6000803e3d6000fd5b505050506040513d6020811015612b0c57600080fd5b810190808051906020019092919050505073ffffffffffffffffffffffffffffffffffffffff16145b80612cca575086600181518110612b4857fe5b602002602001015173ffffffffffffffffffffffffffffffffffffffff168173ffffffffffffffffffffffffffffffffffffffff16630dfe16816040518163ffffffff1660e01b815260040160206040518083038186803b158015612bac57600080fd5b505afa158015612bc0573d6000803e3d6000fd5b505050506040513d6020811015612bd657600080fd5b810190808051906020019092919050505073ffffffffffffffffffffffffffffffffffffffff16148015612cc9575086600081518110612c1257fe5b602002602001015173ffffffffffffffffffffffffffffffffffffffff168173ffffffffffffffffffffffffffffffffffffffff1663d21220a76040518163ffffffff1660e01b815260040160206040518083038186803b158015612c7657600080fd5b505afa158015612c8a573d6000803e3d6000fd5b505050506040513d6020811015612ca057600080fd5b810190808051906020019092919050505073ffffffffffffffffffffffffffffffffffffffff16145b5b612d3c576040517f08c379a00000000000000000000000000000000000000000000000000000000081526004018080602001828103825260138152602001807f7061697220646f6573206e6f742065786973740000000000000000000000000081525060200191505060405180910390fd5b8273ffffffffffffffffffffffffffffffffffffffff1663095ea7b3600660009054906101000a900473ffffffffffffffffffffffffffffffffffffffff166b8000000000000000000000006040518363ffffffff1660e01b8152600401808373ffffffffffffffffffffffffffffffffffffffff16815260200182815260200192505050602060405180830381600087803b158015612ddb57600080fd5b505af1158015612def573d6000803e3d6000fd5b505050506040513d6020811015612e0557600080fd5b8101908080519060200190929190505050508173ffffffffffffffffffffffffffffffffffffffff1663095ea7b3600660009054906101000a900473ffffffffffffffffffffffffffffffffffffffff166b8000000000000000000000006040518363ffffffff1660e01b8152600401808373ffffffffffffffffffffffffffffffffffffffff16815260200182815260200192505050602060405180830381600087803b158015612eb657600080fd5b505af1158015612eca573d6000803e3d6000fd5b505050506040513d6020811015612ee057600080fd5b8101908080519060200190929190505050508273ffffffffffffffffffffffffffffffffffffffff1663095ea7b3600760009054906101000a900473ffffffffffffffffffffffffffffffffffffffff166b8000000000000000000000006040518363ffffffff1660e01b8152600401808373ffffffffffffffffffffffffffffffffffffffff16815260200182815260200192505050602060405180830381600087803b158015612f9157600080fd5b505af1158015612fa5573d6000803e3d6000fd5b505050506040513d6020811015612fbb57600080fd5b8101908080519060200190929190505050508173ffffffffffffffffffffffffffffffffffffffff1663095ea7b3600760009054906101000a900473ffffffffffffffffffffffffffffffffffffffff166b8000000000000000000000006040518363ffffffff1660e01b8152600401808373ffffffffffffffffffffffffffffffffffffffff16815260200182815260200192505050602060405180830381600087803b15801561306c57600080fd5b505af1158015613080573d6000803e3d6000fd5b505050506040513d602081101561309657600080fd5b8101908080519060200190929190505050508773ffffffffffffffffffffffffffffffffffffffff1663095ea7b3600660009054906101000a900473ffffffffffffffffffffffffffffffffffffffff166b8000000000000000000000006040518363ffffffff1660e01b8152600401808373ffffffffffffffffffffffffffffffffffffffff16815260200182815260200192505050602060405180830381600087803b15801561314757600080fd5b505af115801561315b573d6000803e3d6000fd5b505050506040513d602081101561317157600080fd5b8101908080519060200190929190505050508773ffffffffffffffffffffffffffffffffffffffff1663095ea7b3600760009054906101000a900473ffffffffffffffffffffffffffffffffffffffff166b8000000000000000000000006040518363ffffffff1660e01b8152600401808373ffffffffffffffffffffffffffffffffffffffff16815260200182815260200192505050602060405180830381600087803b15801561322257600080fd5b505af1158015613236573d6000803e3d6000fd5b505050506040513d602081101561324c57600080fd5b81019080805190602001909291905050505060086040518060c001604052808a73ffffffffffffffffffffffffffffffffffffffff1681526020018b815260200186815260200189815260200160008152602001871515815250908060018154018082558091505060019003906000526020600020906006020160009091909190915060008201518160000160006101000a81548173ffffffffffffffffffffffffffffffffffffffff021916908373ffffffffffffffffffffffffffffffffffffffff16021790555060208201518160010155604082015181600201556060820151816003019080519060200190613346929190616bf0565b506080820151816004015560a08201518160050160006101000a81548160ff0219169083151502179055505050505050505050505050565b6000600880549050905060005b818110156133a75761339c816120ac565b80600101905061338b565b5050565b6133b3615526565b73ffffffffffffffffffffffffffffffffffffffff1660008054906101000a900473ffffffffffffffffffffffffffffffffffffffff1673ffffffffffffffffffffffffffffffffffffffff1614613473576040517f08c379a00000000000000000000000000000000000000000000000000000000081526004018080602001828103825260208152602001807f4f776e61626c653a2063616c6c6572206973206e6f7420746865206f776e657281525060200191505060405180910390fd5b8360088054905081106134ee576040517f08c379a00000000000000000000000000000000000000000000000000000000081526004018080602001828103825260138152602001807f506f6f6c20646f6573206e6f742065786973740000000000000000000000000081525060200191505060405180910390fd5b81156134fd576134fc61337e565b5b613542846135346008888154811061351157fe5b906000526020600020906006020160010154600b5461507990919063ffffffff16565b614ff190919063ffffffff16565b600b81905550836008868154811061355657fe5b906000526020600020906006020160010181905550826008868154811061357957fe5b9060005260206000209060060201600301908051906020019061359d929190616bf0565b505050505050565b6135ad615526565b73ffffffffffffffffffffffffffffffffffffffff1660008054906101000a900473ffffffffffffffffffffffffffffffffffffffff1673ffffffffffffffffffffffffffffffffffffffff161461366d576040517f08c379a00000000000000000000000000000000000000000000000000000000081526004018080602001828103825260208152602001807f4f776e61626c653a2063616c6c6572206973206e6f7420746865206f776e657281525060200191505060405180910390fd5b600073ffffffffffffffffffffffffffffffffffffffff1660008054906101000a900473ffffffffffffffffffffffffffffffffffffffff1673ffffffffffffffffffffffffffffffffffffffff167f8be0079c531659141344cd1fd0a4f28419497f9722a3daafe3b4186f6b6457e060405160405180910390a360008060006101000a81548173ffffffffffffffffffffffffffffffffffffffff021916908373ffffffffffffffffffffffffffffffffffffffff160217905550565b600760009054906101000a900473ffffffffffffffffffffffffffffffffffffffff1681565b600d5481565b61375f615526565b73ffffffffffffffffffffffffffffffffffffffff1660008054906101000a900473ffffffffffffffffffffffffffffffffffffffff1673ffffffffffffffffffffffffffffffffffffffff161461381f576040517f08c379a00000000000000000000000000000000000000000000000000000000081526004018080602001828103825260208152602001807f4f776e61626c653a2063616c6c6572206973206e6f7420746865206f776e657281525060200191505060405180910390fd5b600073ffffffffffffffffffffffffffffffffffffffff168273ffffffffffffffffffffffffffffffffffffffff1614156138c2576040517f08c379a00000000000000000000000000000000000000000000000000000000081526004018080602001828103825260168152602001807f5f756e69526f757465722063616e6e6f7420626520300000000000000000000081525060200191505060405180910390fd5b60008160ff1614156139145781600660006101000a81548173ffffffffffffffffffffffffffffffffffffffff021916908373ffffffffffffffffffffffffffffffffffffffff160217905550613963565b60018160ff1614156139625781600760006101000a81548173ffffffffffffffffffffffffffffffffffffffff021916908373ffffffffffffffffffffffffffffffffffffffff1602179055505b5b5050565b600460009054906101000a900473ffffffffffffffffffffffffffffffffffffffff1673ffffffffffffffffffffffffffffffffffffffff163373ffffffffffffffffffffffffffffffffffffffff1614613a2a576040517f08c379a00000000000000000000000000000000000000000000000000000000081526004018080602001828103825260098152602001807f6465763a207775743f000000000000000000000000000000000000000000000081525060200191505060405180910390fd5b80600460006101000a81548173ffffffffffffffffffffffffffffffffffffffff021916908373ffffffffffffffffffffffffffffffffffffffff16021790555050565b60008060009054906101000a900473ffffffffffffffffffffffffffffffffffffffff16905090565b600360009054906101000a900473ffffffffffffffffffffffffffffffffffffffff1681565b6000826008805490508110613b3a576040517f08c379a00000000000000000000000000000000000000000000000000000000081526004018080602001828103825260138152602001807f506f6f6c20646f6573206e6f742065786973740000000000000000000000000081525060200191505060405180910390fd5b600060088581548110613b4957fe5b9060005260206000209060060201905060006009600087815260200190815260200160002060008673ffffffffffffffffffffffffffffffffffffffff1673ffffffffffffffffffffffffffffffffffffffff168152602001908152602001600020905060008260040154905060008360000160009054906101000a900473ffffffffffffffffffffffffffffffffffffffff1673ffffffffffffffffffffffffffffffffffffffff166370a08231306040518263ffffffff1660e01b8152600401808273ffffffffffffffffffffffffffffffffffffffff16815260200191505060206040518083038186803b158015613c4357600080fd5b505afa158015613c57573d6000803e3d6000fd5b505050506040513d6020811015613c6d57600080fd5b81019080805190602001909291905050509050836002015443118015613c94575060008114155b15613d2f576000613ca98560020154436154ae565b90506000613cec600b54613cde8860010154613cd0600554876150c390919063ffffffff16565b6150c390919063ffffffff16565b61514990919063ffffffff16565b9050613d2a613d1b84613d0d64e8d4a51000856150c390919063ffffffff16565b61514990919063ffffffff16565b85614ff190919063ffffffff16565b935050505b613d738360010154613d6564e8d4a51000613d578688600001546150c390919063ffffffff16565b61514990919063ffffffff16565b61507990919063ffffffff16565b9550505050505092915050565b6009602052816000526040600020602052806000526040600020600091509150508060000154908060010154905082565b600660009054906101000a900473ffffffffffffffffffffffffffffffffffffffff1681565b600280541415613e4f576040517f08c379a000000000000000000000000000000000000000000000000000000000815260040180806020018281038252601f8152602001807f5265656e7472616e637947756172643a207265656e7472616e742063616c6c0081525060200191505060405180910390fd5b60028081905550600360009054906101000a900473ffffffffffffffffffffffffffffffffffffffff1673ffffffffffffffffffffffffffffffffffffffff166323b872dd3330846040518463ffffffff1660e01b8152600401808473ffffffffffffffffffffffffffffffffffffffff1681526020018373ffffffffffffffffffffffffffffffffffffffff1681526020018281526020019350505050602060405180830381600087803b158015613f0757600080fd5b505af1158015613f1b573d6000803e3d6000fd5b505050506040513d6020811015613f3157600080fd5b810190808051906020019092919050505050613f4d60006120ac565b613f6281600d54614ff190919063ffffffff16565b600d8190555060006008600081548110613f7857fe5b9060005260206000209060060201905060006009600080815260200190815260200160002060003373ffffffffffffffffffffffffffffffffffffffff1673ffffffffffffffffffffffffffffffffffffffff16815260200190815260200160002090506000816000015411156140ab576000614033826001015461402564e8d4a51000614017876004015487600001546150c390919063ffffffff16565b61514990919063ffffffff16565b61507990919063ffffffff16565b9050600061405e60646140506002856150c390919063ffffffff16565b61514990919063ffffffff16565b905061407c33614077838561507990919063ffffffff16565b615193565b6140a8600460009054906101000a900473ffffffffffffffffffffffffffffffffffffffff1682615193565b50505b6140c2838260000154614ff190919063ffffffff16565b81600001819055506140fc64e8d4a510006140ee846004015484600001546150c390919063ffffffff16565b61514990919063ffffffff16565b816001018190555060003373ffffffffffffffffffffffffffffffffffffffff167f36af321ec8d3c75236829c5317affd40ddb308863a1236d2d277a4025cccee1e856000604051808381526020018281526020019250505060405180910390a35050600160028190555050565b601060009054906101000a900473ffffffffffffffffffffffffffffffffffffffff1681565b60055481565b61419e615526565b73ffffffffffffffffffffffffffffffffffffffff1660008054906101000a900473ffffffffffffffffffffffffffffffffffffffff1673ffffffffffffffffffffffffffffffffffffffff161461425e576040517f08c379a00000000000000000000000000000000000000000000000000000000081526004018080602001828103825260208152602001807f4f776e61626c653a2063616c6c6572206973206e6f7420746865206f776e657281525060200191505060405180910390fd5b80600f60006101000a81548173ffffffffffffffffffffffffffffffffffffffff021916908373ffffffffffffffffffffffffffffffffffffffff16021790555050565b600a6020528060005260406000206000915090505481565b836008805490508110614335576040517f08c379a00000000000000000000000000000000000000000000000000000000081526004018080602001828103825260138152602001807f506f6f6c20646f6573206e6f742065786973740000000000000000000000000081525060200191505060405180910390fd5b6002805414156143ad576040517f08c379a000000000000000000000000000000000000000000000000000000000815260040180806020018281038252601f8152602001807f5265656e7472616e637947756172643a207265656e7472616e742063616c6c0081525060200191505060405180910390fd5b600280819055506000851161442a576040517f08c379a00000000000000000000000000000000000000000000000000000000081526004018080602001828103825260158152602001807f706f6f6c203020697320666f72207374616b696e67000000000000000000000081525060200191505060405180910390fd5b60148360ff161115614487576040517f08c379a0000000000000000000000000000000000000000000000000000000008152600401808060200182810382526022815260200180616d066022913960400191505060405180910390fd5b60006008868154811061449657fe5b9060005260206000209060060201905060006009600088815260200190815260200160002060003373ffffffffffffffffffffffffffffffffffffffff1673ffffffffffffffffffffffffffffffffffffffff1681526020019081526020016000209050614503876120ac565b6000816000015411156145d257600061455a826001015461454c64e8d4a5100061453e876004015487600001546150c390919063ffffffff16565b61514990919063ffffffff16565b61507990919063ffffffff16565b9050600061458560646145776002856150c390919063ffffffff16565b61514990919063ffffffff16565b90506145a33361459e838561507990919063ffffffff16565b615193565b6145cf600460009054906101000a900473ffffffffffffffffffffffffffffffffffffffff1682615193565b50505b60008260000160009054906101000a900473ffffffffffffffffffffffffffffffffffffffff1673ffffffffffffffffffffffffffffffffffffffff166370a08231306040518263ffffffff1660e01b8152600401808273ffffffffffffffffffffffffffffffffffffffff16815260200191505060206040518083038186803b15801561465f57600080fd5b505afa158015614673573d6000803e3d6000fd5b505050506040513d602081101561468957600080fd5b810190808051906020019092919050505090508260050160009054906101000a900460ff16156146b7573496505b6060856146fe57836003016000815481106146ce57fe5b9060005260206000200160009054906101000a900473ffffffffffffffffffffffffffffffffffffffff1661473a565b8360030160018154811061470e57fe5b9060005260206000200160009054906101000a900473ffffffffffffffffffffffffffffffffffffffff165b8160008151811061474757fe5b602002602001019073ffffffffffffffffffffffffffffffffffffffff16908173ffffffffffffffffffffffffffffffffffffffff1681525050856147c6578360030160018154811061479657fe5b9060005260206000200160009054906101000a900473ffffffffffffffffffffffffffffffffffffffff16614802565b836003016000815481106147d657fe5b9060005260206000200160009054906101000a900473ffffffffffffffffffffffffffffffffffffffff165b8160018151811061480f57fe5b602002602001019073ffffffffffffffffffffffffffffffffffffffff16908173ffffffffffffffffffffffffffffffffffffffff1681525050600061486933838760050160009054906101000a900460ff168c8c61552e565b90506000614945848760000160009054906101000a900473ffffffffffffffffffffffffffffffffffffffff1673ffffffffffffffffffffffffffffffffffffffff166370a08231306040518263ffffffff1660e01b8152600401808273ffffffffffffffffffffffffffffffffffffffff16815260200191505060206040518083038186803b1580156148fc57600080fd5b505afa158015614910573d6000803e3d6000fd5b505050506040513d602081101561492657600080fd5b810190808051906020019092919050505061507990919063ffffffff16565b9050600061497060646149626002856150c390919063ffffffff16565b61514990919063ffffffff16565b9050614985818361507990919063ffffffff16565b91508660000160009054906101000a900473ffffffffffffffffffffffffffffffffffffffff1673ffffffffffffffffffffffffffffffffffffffff1663a9059cbb600460009054906101000a900473ffffffffffffffffffffffffffffffffffffffff16836040518363ffffffff1660e01b8152600401808373ffffffffffffffffffffffffffffffffffffffff16815260200182815260200192505050602060405180830381600087803b158015614a3e57600080fd5b505af1158015614a52573d6000803e3d6000fd5b505050506040513d6020811015614a6857600080fd5b810190808051906020019092919050505050614a91828760000154614ff190919063ffffffff16565b8660000181905550614acb64e8d4a51000614abd896004015489600001546150c390919063ffffffff16565b61514990919063ffffffff16565b86600101819055508b3373ffffffffffffffffffffffffffffffffffffffff167f36af321ec8d3c75236829c5317affd40ddb308863a1236d2d277a4025cccee1e8d86604051808381526020018281526020019250505060405180910390a35050505050505060016002819055505050505050565b600f60009054906101000a900473ffffffffffffffffffffffffffffffffffffffff1673ffffffffffffffffffffffffffffffffffffffff163373ffffffffffffffffffffffffffffffffffffffff1614614c03576040517f08c379a00000000000000000000000000000000000000000000000000000000081526004018080602001828103825260208152602001807f6d6967726174653a206d7573742073656e642066726f6d206f6c64206661726d81525060200191505060405180910390fd5b6000600a60008573ffffffffffffffffffffffffffffffffffffffff1673ffffffffffffffffffffffffffffffffffffffff168152602001908152602001600020549050600060088281548110614c5657fe5b9060005260206000209060060201905060006009600084815260200190815260200160002060003373ffffffffffffffffffffffffffffffffffffffff1673ffffffffffffffffffffffffffffffffffffffff16815260200190815260200160002090506000831415614cdf57614cd885600d54614ff190919063ffffffff16565b600d819055505b600081600001541115614dc3576000614d368260010154614d2864e8d4a51000614d1a876004015487600001546150c390919063ffffffff16565b61514990919063ffffffff16565b61507990919063ffffffff16565b9050614d4b8582614ff190919063ffffffff16565b90506000614d766064614d686002856150c390919063ffffffff16565b61514990919063ffffffff16565b9050614d9433614d8f838561507990919063ffffffff16565b615193565b614dc0600460009054906101000a900473ffffffffffffffffffffffffffffffffffffffff1682615193565b50505b614dda858260000154614ff190919063ffffffff16565b8160000181905550614e1464e8d4a51000614e06846004015484600001546150c390919063ffffffff16565b61514990919063ffffffff16565b816001018190555050505050505050565b600460009054906101000a900473ffffffffffffffffffffffffffffffffffffffff1681565b614e53615526565b73ffffffffffffffffffffffffffffffffffffffff1660008054906101000a900473ffffffffffffffffffffffffffffffffffffffff1673ffffffffffffffffffffffffffffffffffffffff1614614f13576040517f08c379a00000000000000000000000000000000000000000000000000000000081526004018080602001828103825260208152602001807f4f776e61626c653a2063616c6c6572206973206e6f7420746865206f776e657281525060200191505060405180910390fd5b8060058190555050565b614f25615526565b73ffffffffffffffffffffffffffffffffffffffff1660008054906101000a900473ffffffffffffffffffffffffffffffffffffffff1673ffffffffffffffffffffffffffffffffffffffff1614614fe5576040517f08c379a00000000000000000000000000000000000000000000000000000000081526004018080602001828103825260208152602001807f4f776e61626c653a2063616c6c6572206973206e6f7420746865206f776e657281525060200191505060405180910390fd5b614fee81615d21565b50565b60008082840190508381101561506f576040517f08c379a000000000000000000000000000000000000000000000000000000000815260040180806020018281038252601b8152602001807f536166654d6174683a206164646974696f6e206f766572666c6f77000000000081525060200191505060405180910390fd5b8091505092915050565b60006150bb83836040518060400160405280601e81526020017f536166654d6174683a207375627472616374696f6e206f766572666c6f770000815250615e64565b905092915050565b6000808314156150d65760009050615143565b60008284029050828482816150e757fe5b041461513e576040517f08c379a0000000000000000000000000000000000000000000000000000000008152600401808060200182810382526021815260200180616d286021913960400191505060405180910390fd5b809150505b92915050565b600061518b83836040518060400160405280601a81526020017f536166654d6174683a206469766973696f6e206279207a65726f000000000000815250615f24565b905092915050565b6000600360009054906101000a900473ffffffffffffffffffffffffffffffffffffffff1673ffffffffffffffffffffffffffffffffffffffff166370a08231306040518263ffffffff1660e01b8152600401808273ffffffffffffffffffffffffffffffffffffffff16815260200191505060206040518083038186803b15801561521e57600080fd5b505afa158015615232573d6000803e3d6000fd5b505050506040513d602081101561524857600080fd5b810190808051906020019092919050505090508082111561533757600360009054906101000a900473ffffffffffffffffffffffffffffffffffffffff1673ffffffffffffffffffffffffffffffffffffffff1663a9059cbb84836040518363ffffffff1660e01b8152600401808373ffffffffffffffffffffffffffffffffffffffff16815260200182815260200192505050602060405180830381600087803b1580156152f657600080fd5b505af115801561530a573d6000803e3d6000fd5b505050506040513d602081101561532057600080fd5b810190808051906020019092919050505050615407565b600360009054906101000a900473ffffffffffffffffffffffffffffffffffffffff1673ffffffffffffffffffffffffffffffffffffffff1663a9059cbb84846040518363ffffffff1660e01b8152600401808373ffffffffffffffffffffffffffffffffffffffff16815260200182815260200192505050602060405180830381600087803b1580156153ca57600080fd5b505af11580156153de573d6000803e3d6000fd5b505050506040513d60208110156153f457600080fd5b8101908080519060200190929190505050505b505050565b6154a98363a9059cbb60e01b8484604051602401808373ffffffffffffffffffffffffffffffffffffffff16815260200182815260200192505050604051602081830303815290604052907bffffffffffffffffffffffffffffffffffffffffffffffffffffffff19166020820180517bffffffffffffffffffffffffffffffffffffffffffffffffffffffff8381831617835250505050615fea565b505050565b6000600c5483101561550b576040517f08c379a0000000000000000000000000000000000000000000000000000000008152600401808060200182810382526023815260200180616d496023913960400191505060405180910390fd5b61551e838361507990919063ffffffff16565b905092915050565b600033905090565b6000808560008151811061553e57fe5b6020026020010151905060008660018151811061555757fe5b6020026020010151905060008661560f578273ffffffffffffffffffffffffffffffffffffffff166370a08231306040518263ffffffff1660e01b8152600401808273ffffffffffffffffffffffffffffffffffffffff16815260200191505060206040518083038186803b1580156155cf57600080fd5b505afa1580156155e3573d6000803e3d6000fd5b505050506040513d60208110156155f957600080fd5b8101908080519060200190929190505050615611565b475b9050866156e4578273ffffffffffffffffffffffffffffffffffffffff166323b872dd8a30896040518463ffffffff1660e01b8152600401808473ffffffffffffffffffffffffffffffffffffffff1681526020018373ffffffffffffffffffffffffffffffffffffffff1681526020018281526020019350505050602060405180830381600087803b1580156156a757600080fd5b505af11580156156bb573d6000803e3d6000fd5b505050506040513d60208110156156d157600080fd5b8101908080519060200190929190505050505b60008273ffffffffffffffffffffffffffffffffffffffff166370a08231306040518263ffffffff1660e01b8152600401808273ffffffffffffffffffffffffffffffffffffffff16815260200191505060206040518083038186803b15801561574d57600080fd5b505afa158015615761573d6000803e3d6000fd5b505050506040513d602081101561577757600080fd5b8101908080519060200190929190505050905060006157ab85856157a560028c61514990919063ffffffff16565b8a6160d9565b9050881561598657600660009054906101000a900473ffffffffffffffffffffffffffffffffffffffff1673ffffffffffffffffffffffffffffffffffffffff16637ff36ab561580560028b61514990919063ffffffff16565b838d30426040518663ffffffff1660e01b815260040180858152602001806020018473ffffffffffffffffffffffffffffffffffffffff168152602001838152602001828103825285818151815260200191508051906020019060200280838360005b83811015615883578082015181840152602081019050615868565b50505050905001955050505050506000604051808303818588803b1580156158aa57600080fd5b505af11580156158be573d6000803e3d6000fd5b50505050506040513d6000823e3d601f19601f8201168201806040525060208110156158e957600080fd5b810190808051604051939291908464010000000082111561590957600080fd5b8382019150602082018581111561591f57600080fd5b825186602082028301116401000000008211171561593c57600080fd5b8083526020830192505050908051906020019060200280838360005b83811015615973578082015181840152602081019050615958565b5050505090500160405250505050615b5c565b600660009054906101000a900473ffffffffffffffffffffffffffffffffffffffff1673ffffffffffffffffffffffffffffffffffffffff166338ed17396159d860028b61514990919063ffffffff16565b838d30426040518663ffffffff1660e01b815260040180868152602001858152602001806020018473ffffffffffffffffffffffffffffffffffffffff168152602001838152602001828103825285818151815260200191508051906020019060200280838360005b83811015615a5c578082015181840152602081019050615a41565b505050509050019650505050505050600060405180830381600087803b158015615a8557600080fd5b505af1158015615a99573d6000803e3d6000fd5b505050506040513d6000823e3d601f19601f820116820180604052506020811015615ac357600080fd5b8101908080516040519392919084640100000000821115615ae357600080fd5b83820191506020820185811115615af957600080fd5b8251866020820283011164010000000082111715615b1657600080fd5b8083526020830192505050908051906020019060200280838360005b83811015615b4d578082015181840152602081019050615b32565b50505050905001604052505050505b600089615c2e57615c298673ffffffffffffffffffffffffffffffffffffffff166370a08231306040518263ffffffff1660e01b8152600401808273ffffffffffffffffffffffffffffffffffffffff16815260200191505060206040518083038186803b158015615bcd57600080fd5b505afa158015615be1573d6000803e3d6000fd5b505050506040513d6020811015615bf757600080fd5b8101908080519060200190929190505050615c1b8b87614ff190919063ffffffff16565b61507990919063ffffffff16565b615c43565b615c4260028a61514990919063ffffffff16565b5b90506000615cfb848773ffffffffffffffffffffffffffffffffffffffff166370a08231306040518263ffffffff1660e01b8152600401808273ffffffffffffffffffffffffffffffffffffffff16815260200191505060206040518083038186803b158015615cb257600080fd5b505afa158015615cc6573d6000803e3d6000fd5b505050506040513d6020811015615cdc57600080fd5b810190808051906020019092919050505061507990919063ffffffff16565b9050615d0e8d8c8c8a8a8a8a8989616398565b8097505050505050505095945050505050565b600073ffffffffffffffffffffffffffffffffffffffff168173ffffffffffffffffffffffffffffffffffffffff161415615da7576040517f08c379a0000000000000000000000000000000000000000000000000000000008152600401808060200182810382526026815260200180616ce06026913960400191505060405180910390fd5b8073ffffffffffffffffffffffffffffffffffffffff1660008054906101000a900473ffffffffffffffffffffffffffffffffffffffff1673ffffffffffffffffffffffffffffffffffffffff167f8be0079c531659141344cd1fd0a4f28419497f9722a3daafe3b4186f6b6457e060405160405180910390a3806000806101000a81548173ffffffffffffffffffffffffffffffffffffffff021916908373ffffffffffffffffffffffffffffffffffffffff16021790555050565b6000838311158290615f11576040517f08c379a00000000000000000000000000000000000000000000000000000000081526004018080602001828103825283818151815260200191508051906020019080838360005b83811015615ed6578082015181840152602081019050615ebb565b50505050905090810190601f168015615f035780820380516001836020036101000a031916815260200191505b509250505060405180910390fd5b5060008385039050809150509392505050565b60008083118290615fd0576040517f08c379a00000000000000000000000000000000000000000000000000000000081526004018080602001828103825283818151815260200191508051906020019080838360005b83811015615f95578082015181840152602081019050615f7a565b50505050905090810190601f168015615fc25780820380516001836020036101000a031916815260200191505b509250505060405180910390fd5b506000838581615fdc57fe5b049050809150509392505050565b606061604c826040518060400160405280602081526020017f5361666542455032303a206c6f772d6c6576656c2063616c6c206661696c65648152508573ffffffffffffffffffffffffffffffffffffffff166169879092919063ffffffff16565b90506000815111156160d45780806020019051602081101561606d57600080fd5b81019080805190602001909291905050506160d3576040517f08c379a000000000000000000000000000000000000000000000000000000000815260040180806020018281038252602a815260200180616cb6602a913960400191505060405180910390fd5b5b505050565b60006060600267ffffffffffffffff811180156160f557600080fd5b506040519080825280602002602001820160405280156161245781602001602082028036833780820191505090505b509050858160008151811061613557fe5b602002602001019073ffffffffffffffffffffffffffffffffffffffff16908173ffffffffffffffffffffffffffffffffffffffff1681525050848160018151811061617d57fe5b602002602001019073ffffffffffffffffffffffffffffffffffffffff16908173ffffffffffffffffffffffffffffffffffffffff168152505061638d6103e861637f8560ff166103e80361ffff16600660009054906101000a900473ffffffffffffffffffffffffffffffffffffffff1673ffffffffffffffffffffffffffffffffffffffff1663d06ca61f89876040518363ffffffff1660e01b81526004018083815260200180602001828103825283818151815260200191508051906020019060200280838360005b83811015616264578082015181840152602081019050616249565b50505050905001935050505060006040518083038186803b15801561628857600080fd5b505afa15801561629c573d6000803e3d6000fd5b505050506040513d6000823e3d601f19601f8201168201806040525060208110156162c657600080fd5b81019080805160405193929190846401000000008211156162e657600080fd5b838201915060208201858111156162fc57600080fd5b825186602082028301116401000000008211171561631957600080fd5b8083526020830192505050908051906020019060200280838360005b83811015616350578082015181840152602081019050616335565b5050505090500160405250505060018151811061636957fe5b60200260200101516150c390919063ffffffff16565b61514990919063ffffffff16565b915050949350505050565b87156164c057600760009054906101000a900473ffffffffffffffffffffffffffffffffffffffff1673ffffffffffffffffffffffffffffffffffffffff1663f305d71983878460008030426040518863ffffffff1660e01b8152600401808773ffffffffffffffffffffffffffffffffffffffff1681526020018681526020018581526020018481526020018373ffffffffffffffffffffffffffffffffffffffff16815260200182815260200196505050505050506060604051808303818588803b15801561646857600080fd5b505af115801561647c573d6000803e3d6000fd5b50505050506040513d606081101561649357600080fd5b81019080805190602001909291908051906020019092919080519060200190929190505050505050616603565b600760009054906101000a900473ffffffffffffffffffffffffffffffffffffffff1673ffffffffffffffffffffffffffffffffffffffff1663e8e337008787858560008030426040518963ffffffff1660e01b8152600401808973ffffffffffffffffffffffffffffffffffffffff1681526020018873ffffffffffffffffffffffffffffffffffffffff1681526020018781526020018681526020018581526020018481526020018373ffffffffffffffffffffffffffffffffffffffff16815260200182815260200198505050505050505050606060405180830381600087803b1580156165b057600080fd5b505af11580156165c4573d6000803e3d6000fd5b505050506040513d60608110156165da57600080fd5b810190808051906020019092919080519060200190929190805190602001909291905050505050505b6000886166c3576166be858873ffffffffffffffffffffffffffffffffffffffff166370a08231306040518263ffffffff1660e01b8152600401808273ffffffffffffffffffffffffffffffffffffffff16815260200191505060206040518083038186803b15801561667557600080fd5b505afa158015616689573d6000803e3d6000fd5b505050506040513d602081101561669f57600080fd5b810190808051906020019092919050505061507990919063ffffffff16565b6166e9565b6166e86166d9898761507990919063ffffffff16565b4761507990919063ffffffff16565b5b905060006167a1858873ffffffffffffffffffffffffffffffffffffffff166370a08231306040518263ffffffff1660e01b8152600401808273ffffffffffffffffffffffffffffffffffffffff16815260200191505060206040518083038186803b15801561675857600080fd5b505afa15801561676c573d6000803e3d6000fd5b505050506040513d602081101561678257600080fd5b810190808051906020019092919050505061507990919063ffffffff16565b90506000821180156167b1575089155b15616868578773ffffffffffffffffffffffffffffffffffffffff1663a9059cbb8c846040518363ffffffff1660e01b8152600401808373ffffffffffffffffffffffffffffffffffffffff16815260200182815260200192505050602060405180830381600087803b15801561682757600080fd5b505af115801561683b573d6000803e3d6000fd5b505050506040513d602081101561685157600080fd5b8101908080519060200190929190505050506168c3565b6000821180156168755750895b156168c2578a73ffffffffffffffffffffffffffffffffffffffff166108fc839081150290604051600060405180830381858888f193505050501580156168c0573d6000803e3d6000fd5b505b5b600081111561697a578673ffffffffffffffffffffffffffffffffffffffff1663a9059cbb8c836040518363ffffffff1660e01b8152600401808373ffffffffffffffffffffffffffffffffffffffff16815260200182815260200192505050602060405180830381600087803b15801561693d57600080fd5b505af1158015616951573d6000803e3d6000fd5b505050506040513d602081101561696757600080fd5b8101908080519060200190929190505050505b5050505050505050505050565b6060616996848460008561699f565b90509392505050565b60606169aa85616ba5565b616a1c576040517f08c379a000000000000000000000000000000000000000000000000000000000815260040180806020018281038252601d8152602001807f416464726573733a2063616c6c20746f206e6f6e2d636f6e747261637400000081525060200191505060405180910390fd5b600060608673ffffffffffffffffffffffffffffffffffffffff1685876040518082805190602001908083835b60208310616a6c5780518252602082019150602081019050602083039250616a49565b6001836020036101000a03801982511681845116808217855250505050505090500191505060006040518083038185875af1925050503d8060008114616ace576040519150601f19603f3d011682016040523d82523d6000602084013e616ad3565b606091505b50915091508115616ae8578092505050616b9d565b600081511115616afb5780518082602001fd5b836040517f08c379a00000000000000000000000000000000000000000000000000000000081526004018080602001828103825283818151815260200191508051906020019080838360005b83811015616b62578082015181840152602081019050616b47565b50505050905090810190601f168015616b8f5780820380516001836020036101000a031916815260200191505b509250505060405180910390fd5b949350505050565b60008060007fc5d2460186f7233c927e7db2dcc703c0e500b653ca82273b7bfad8045d85a47060001b9050833f9150808214158015616be757506000801b8214155b92505050919050565b828054828255906000526020600020908101928215616c69579160200282015b82811115616c685782518260006101000a81548173ffffffffffffffffffffffffffffffffffffffff021916908373ffffffffffffffffffffffffffffffffffffffff16021790555091602001919060010190616c10565b5b509050616c769190616c7a565b5090565b5b80821115616cb157600081816101000a81549073ffffffffffffffffffffffffffffffffffffffff021916905550600101616c7b565b509056fe5361666542455032303a204245503230206f7065726174696f6e20646964206e6f7420737563636565644f776e61626c653a206e6577206f776e657220697320746865207a65726f2061646472657373736c6970706167652072616e6765206e6f742067726561746572207468616e203225536166654d6174683a206d756c7469706c69636174696f6e206f766572666c6f775f66726f6d2063616e206e6f74206c657373207468616e207374617274426c6f636b21a2646970667358221220e9a23535e5c7c573480d58a31c23827c41f8f4b9652635def6c3e92788a2f7fa64736f6c634300060c0033",
  "immutableReferences": {},
  "source": "pragma solidity 0.6.12;\r\n\r\nimport './utils/Ownable.sol';\r\nimport './utils/ReentrancyGuard.sol';\r\n\r\nimport './lib/SafeERC20.sol';\r\n\r\nimport './interface/ILibre.sol';\r\nimport './interface/IWETH.sol';\r\nimport './interface/IUniswapRouter.sol';\r\nimport './interface/IUniswapPair.sol';\r\n\r\ncontract MasterChef is Ownable,ReentrancyGuard {\r\n    using SafeMath for uint256;\r\n    using SafeERC20 for IERC20;\r\n    // Info of each user.\r\n    struct UserInfo {\r\n        uint256 amount; // How many LP tokens the user has provided.\r\n        uint256 rewardDebt; // Reward debt. See explanation below.\r\n        //\r\n        // We do some fancy math here. Basically, any point in time, the amount of SUSHIs\r\n        // entitled to a user but is pending to be distributed is:\r\n        //\r\n        //   pending reward = (user.amount * pool.accSushiPerShare) - user.rewardDebt\r\n        //\r\n        // Whenever a user deposits or withdraws LP tokens to a pool. Here's what happens:\r\n        //   1. The pool's `accSushiPerShare` (and `lastRewardBlock`) gets updated.\r\n        //   2. User receives the pending reward sent to his/her address.\r\n        //   3. User's `amount` gets updated.\r\n        //   4. User's `rewardDebt` gets updated.\r\n    }\r\n    // Info of each pool.\r\n    struct PoolInfo {\r\n        IERC20 lpToken; // Address of LP token contract.\r\n        uint256 allocPoint; // How many allocation points assigned to this pool. SUSHIs to distribute per block.\r\n        uint256 lastRewardBlock; // Last block number that SUSHIs distribution occurs.\r\n        address[] lpPath;\r\n        uint256 accLibPerShare; // Accumulated LIBs per share, times 1e12. See below.\r\n        bool isETHPair; // non-Libre LP will be charged 5% fee on withdraw\r\n    }\r\n    // The LIB TOKEN!\r\n    ILibre public lib;\r\n    // Dev address.\r\n    address public devaddr;\r\n    // Lib tokens created per block.\r\n    uint256 public libPerBlock;\r\n    // Lib tokens burn per block.\r\n    IUniswapRouter public uniRouter;\r\n    IUniswapRouter public libreRouter;\r\n    // Info of each pool.\r\n    PoolInfo[] public poolInfo;\r\n    // Info of each user that stakes LP tokens.\r\n    mapping(uint256 => mapping(address => UserInfo)) public userInfo;\r\n    //set true after a new lp be added\r\n    mapping (address=>uint256) public pidMapping;\r\n    // Total allocation poitns. Must be the sum of all allocation points in all pools.\r\n    uint256 public totalAllocPoint = 0;\r\n    // The block number when SUSHI mining starts.\r\n    uint256 public startBlock;\r\n    uint256 public totalStaked = 0;\r\n    MasterChef newFarm;\r\n    MasterChef oldFarm;\r\n    event Deposit(address indexed user, uint256 indexed pid, uint256 amount, uint256 token1Amount);\r\n    event Withdraw(address indexed user, uint256 indexed pid, uint256 amount);\r\n    event EmergencyWithdraw(\r\n        address indexed user,\r\n        uint256 indexed pid,\r\n        uint256 amount\r\n    );\r\n    IWETH public WETH;\r\n    constructor(\r\n        address[]memory _lib,\r\n        address _devaddr,\r\n        address _libRouter,\r\n        address _uniRouter,\r\n        uint256 _libPerBlock\r\n    ) public {\r\n        require(_devaddr != address(0),\"_devaddr cannot be 0\");\r\n        lib = ILibre(_lib[0]);\r\n        libreRouter = IUniswapRouter(_libRouter);\r\n        uniRouter = IUniswapRouter(_uniRouter);\r\n        devaddr = _devaddr;\r\n        startBlock = block.number;\r\n        libPerBlock = _libPerBlock;\r\n        totalAllocPoint = totalAllocPoint.add(10);\r\n        WETH = IWETH(uniRouter.WETH());\r\n        poolInfo.push(\r\n            PoolInfo({\r\n                lpToken: lib,\r\n                allocPoint: 10,\r\n                lpPath:_lib,\r\n                lastRewardBlock: startBlock,\r\n                accLibPerShare: 0,\r\n                isETHPair: false\r\n            })\r\n        );\r\n    }\r\n    function setLibrePerBlock(uint256 _libPerBlock) external onlyOwner{\r\n        libPerBlock = _libPerBlock;\r\n    }\r\n    function poolLength() external view returns (uint256) {\r\n        return poolInfo.length;\r\n    }\r\n    function getPoolInfo(uint256 _pid)external view returns(address lp, uint256 allocPoint, uint256 lastRewardBlock, address[]memory lpPath, uint256 accLibPerShare, bool isETHpair){\r\n        PoolInfo storage pool = poolInfo[_pid];\r\n        return (address(pool.lpToken), pool.allocPoint, pool.lastRewardBlock, pool.lpPath, pool.accLibPerShare, pool.isETHPair);\r\n    }\r\n    function setRouter(address _router, uint8 index)external onlyOwner{\r\n        require(_router != address(0),\"_uniRouter cannot be 0\");\r\n        if(index == 0) uniRouter = IUniswapRouter(_router);\r\n        else if(index == 1)libreRouter = IUniswapRouter(_router);\r\n    }\r\n    function forAPYC(uint8 _pid)external view returns(IERC20, address[]memory, uint256){\r\n        return (poolInfo[_pid].lpToken, poolInfo[_pid].lpPath, poolInfo[_pid].allocPoint);\r\n    }\r\n\r\n    // Add a new lp to the pool. Can only be called by the owner.\r\n    // XXX DO NOT add the same LP token more than once. Rewards will be messed up if you do.\r\n    function add(\r\n        uint256 _allocPoint,\r\n        IERC20 _lpToken,\r\n        address[] memory _lpPath,\r\n        bool _withUpdate,\r\n        bool _isETHPair\r\n    ) external onlyOwner {\r\n        require(pidMapping[address(_lpToken)]==0,\"LP already in pool\");\r\n        require(address(_lpToken) != address(lib), \"LP cannot be LIBRE\");\r\n        pidMapping[address(_lpToken)] = poolInfo.length;\r\n        if (_withUpdate) {\r\n            massUpdatePools();\r\n        }\r\n        uint256 lastRewardBlock =\r\n            block.number > startBlock ? block.number : startBlock;\r\n        totalAllocPoint = totalAllocPoint.add(_allocPoint);\r\n        IERC20 token0 = IERC20(_lpPath[0]);\r\n        IERC20 token1 = IERC20(_lpPath[1]);\r\n        IUniswapPair pair = IUniswapPair(address(_lpToken));\r\n        require((pair.token0() == _lpPath[0] && pair.token1() == _lpPath[1]) || (pair.token0() == _lpPath[1] && pair.token1() == _lpPath[0]), \"pair does not exist\");\r\n        token0.approve(address(uniRouter),2**95);\r\n        token1.approve(address(uniRouter),2**95);\r\n        token0.approve(address(libreRouter),2**95);\r\n        token1.approve(address(libreRouter),2**95);\r\n        _lpToken.approve(address(uniRouter),2**95);\r\n        _lpToken.approve(address(libreRouter),2**95);\r\n        poolInfo.push(\r\n            PoolInfo({\r\n                lpToken: _lpToken,\r\n                allocPoint: _allocPoint,\r\n                lpPath:_lpPath,\r\n                lastRewardBlock: lastRewardBlock,\r\n                accLibPerShare: 0,\r\n                isETHPair: _isETHPair\r\n            })\r\n        );\r\n    }\r\n    \r\n    // Update the given pool's allocation point. Can only be called by the owner.\r\n    function set(\r\n        uint256 _pid,\r\n        uint256 _allocPoint,\r\n        address[] memory _lpPath,\r\n        bool _withUpdate\r\n    ) external onlyOwner validatePoolByPid(_pid){\r\n        if (_withUpdate) {\r\n            massUpdatePools();\r\n        }\r\n        totalAllocPoint = totalAllocPoint.sub(poolInfo[_pid].allocPoint).add(\r\n            _allocPoint\r\n        );\r\n        poolInfo[_pid].allocPoint = _allocPoint;\r\n        poolInfo[_pid].lpPath = _lpPath;\r\n    }\r\n\r\n    function setNewFarm(address payable _newFarm) public onlyOwner {\r\n        newFarm = MasterChef(_newFarm);\r\n    }\r\n    function setOldFarm(address payable _oldFarm) public onlyOwner {\r\n        oldFarm = MasterChef(_oldFarm);\r\n    }\r\n    function migrate(uint256 _pid) public {\r\n        require(address(newFarm) != address(0), \"migrate: no new farm\");\r\n        PoolInfo storage pool = poolInfo[_pid];\r\n        UserInfo storage user = userInfo[_pid][msg.sender];\r\n        if(_pid>0){\r\n            pool.lpToken.safeTransfer(address(newFarm), user.amount);\r\n        } \r\n        else{\r\n            safeLibreTransfer(address(newFarm),user.amount);\r\n            totalStaked = totalStaked.sub(user.amount);\r\n        }\r\n        migrateReceiver(msg.sender,address(pool.lpToken), user.amount, user.rewardDebt);\r\n        user.amount = 0;\r\n        user.rewardDebt = 0;\r\n    }\r\n    function migrateReceiver(address user, address lp, uint256 _amount, uint256 _reward) public {\r\n        require(msg.sender == address(oldFarm), \"migrate: must send from old farm\");\r\n        uint256 _pid = pidMapping[lp];\r\n        PoolInfo storage pool = poolInfo[_pid];\r\n        UserInfo storage user = userInfo[_pid][msg.sender];\r\n        if(_pid ==0) totalStaked = totalStaked.add(_amount);\r\n        if (user.amount > 0) {\r\n            uint256 pending =\r\n                user.amount.mul(pool.accLibPerShare).div(1e12).sub(\r\n                    user.rewardDebt\r\n                );\r\n            pending = pending.add(_reward);\r\n            uint256 fee = pending.mul(2).div(100);\r\n\r\n            safeLibreTransfer(msg.sender, pending.sub(fee));\r\n            safeLibreTransfer(devaddr, fee);\r\n        }\r\n        user.amount = user.amount.add(_amount);\r\n        user.rewardDebt = user.amount.mul(pool.accLibPerShare).div(1e12);\r\n    }\r\n    // Return reward multiplier over the given _from to _to block.\r\n    function getMultiplier(uint256 _from, uint256 _to) internal view returns (uint256){\r\n        require(_from >= startBlock, \"_from can not less than startBlock!\");\r\n        return _to.sub(_from);\r\n    }\r\n    // View function to see pending SUSHIs on frontend.\r\n    function pendingLib(uint256 _pid, address _user)\r\n        external\r\n        view validatePoolByPid(_pid)\r\n        returns (uint256)\r\n    {\r\n        PoolInfo storage pool = poolInfo[_pid];\r\n        UserInfo storage user = userInfo[_pid][_user];\r\n        uint256 accLibPerShare = pool.accLibPerShare;\r\n        uint256 lpSupply = pool.lpToken.balanceOf(address(this));\r\n        if (block.number > pool.lastRewardBlock && lpSupply != 0) {\r\n            uint256 multiplier = getMultiplier(pool.lastRewardBlock, block.number);\r\n            uint256 libReward =  multiplier.mul(libPerBlock).mul(pool.allocPoint).div(totalAllocPoint);\r\n            accLibPerShare = accLibPerShare.add(\r\n                libReward.mul(1e12).div(lpSupply)\r\n            );\r\n        }\r\n        return user.amount.mul(accLibPerShare).div(1e12).sub(user.rewardDebt);\r\n    }\r\n\r\n    // Update reward vairables for all pools. Be careful of gas spending!\r\n    function massUpdatePools() public {\r\n        uint256 length = poolInfo.length;\r\n        for (uint256 pid = 0; pid < length; ++pid) {\r\n            updatePool(pid);\r\n        }\r\n    }\r\n\r\n    // Update reward variables of the given pool to be up-to-date.\r\n    function updatePool(uint256 _pid) public validatePoolByPid(_pid){\r\n        PoolInfo storage pool = poolInfo[_pid];\r\n        if (block.number <= pool.lastRewardBlock) {\r\n            return;\r\n        }\r\n        uint256 lpSupply = _pid == 0 ?totalStaked :pool.lpToken.balanceOf(address(this));\r\n        if (lpSupply == 0) {\r\n            pool.lastRewardBlock = block.number;\r\n            return;\r\n        }\r\n        uint256 multiplier = getMultiplier(pool.lastRewardBlock, block.number);\r\n        uint256 libReward =\r\n            multiplier.mul(libPerBlock).mul(pool.allocPoint).div(\r\n                totalAllocPoint\r\n            );\r\n\r\n        lib.mint(address(this),libReward);\r\n        pool.accLibPerShare = pool.accLibPerShare.add(\r\n            libReward.mul(1e12).div(lpSupply)\r\n        );\r\n        pool.lastRewardBlock = block.number;\r\n    }\r\n    function stake(uint256 _amount) public nonReentrant{\r\n        lib.transferFrom(msg.sender, address(this), _amount);\r\n        updatePool(0);\r\n        totalStaked = totalStaked.add(_amount);\r\n        PoolInfo storage pool = poolInfo[0];\r\n        UserInfo storage user = userInfo[0][msg.sender];\r\n        if (user.amount > 0) {\r\n            uint256 pending =\r\n                user.amount.mul(pool.accLibPerShare).div(1e12).sub(\r\n                    user.rewardDebt\r\n                );\r\n            uint256 fee = pending.mul(2).div(100);\r\n\r\n            safeLibreTransfer(msg.sender, pending.sub(fee));\r\n            safeLibreTransfer(devaddr, fee);\r\n        }\r\n        user.amount = user.amount.add(_amount);\r\n        user.rewardDebt = user.amount.mul(pool.accLibPerShare).div(1e12);\r\n        emit Deposit(msg.sender, 0, _amount, 0);\r\n    }\r\n    function unstake(uint256 _amount)public nonReentrant{\r\n        PoolInfo storage pool = poolInfo[0];\r\n        UserInfo storage user = userInfo[0][msg.sender];\r\n        updatePool(0);\r\n        totalStaked = totalStaked.sub(_amount);\r\n        require(user.amount >= _amount, \"withdraw: not good\");\r\n        uint256 pending =\r\n            user.amount.mul(pool.accLibPerShare).div(1e12).sub(\r\n                user.rewardDebt\r\n            );\r\n        uint256 fee = pending.mul(2).div(100);\r\n\r\n        user.amount = user.amount.sub(_amount);\r\n        safeLibreTransfer(msg.sender, pending.sub(fee));\r\n        safeLibreTransfer(devaddr, fee);\r\n        user.rewardDebt = user.amount.mul(pool.accLibPerShare).div(1e12);\r\n        safeLibreTransfer(address(msg.sender),_amount);\r\n        emit Withdraw(msg.sender, 0, _amount);\r\n    }\r\n    // Deposit LP tokens to MasterChef for SUSHI allocation.\r\n    function deposit(uint256 _pid, uint256 _amount, uint8 _slippage, bool _revert) public validatePoolByPid(_pid) nonReentrant payable{\r\n        require(_pid>0,\"pool 0 is for staking\");\r\n        require(_slippage<=20,\"slippage range not greater than 2%\");\r\n        // require(_slippage<0,\"slippage value must\");\r\n        PoolInfo storage pool = poolInfo[_pid];\r\n        UserInfo storage user = userInfo[_pid][msg.sender];\r\n        updatePool(_pid);\r\n        if (user.amount > 0) {\r\n            uint256 pending =\r\n                user.amount.mul(pool.accLibPerShare).div(1e12).sub(\r\n                    user.rewardDebt\r\n                );\r\n            uint256 fee = pending.mul(2).div(100);\r\n\r\n            safeLibreTransfer(msg.sender, pending.sub(fee));\r\n            safeLibreTransfer(devaddr, fee);\r\n        }\r\n        uint256 lpBefore = pool.lpToken.balanceOf(address(this));\r\n        if(pool.isETHPair) _amount = msg.value;\r\n        address[] memory lpPath;\r\n        lpPath[0] = _revert ?pool.lpPath[1]:pool.lpPath[0];\r\n        lpPath[1] = _revert ?pool.lpPath[0]:pool.lpPath[1];\r\n        uint256 token1Amount=_swap(msg.sender, lpPath, pool.isETHPair, _amount,_slippage);\r\n        uint256 lpAmount = pool.lpToken.balanceOf(address(this)).sub(lpBefore);\r\n\r\n        uint256 fee = lpAmount.mul(2).div(100);\r\n        lpAmount = lpAmount.sub(fee);\r\n        pool.lpToken.transfer(devaddr,fee);\r\n        user.amount = user.amount.add(lpAmount);\r\n        user.rewardDebt = user.amount.mul(pool.accLibPerShare).div(1e12);\r\n        emit Deposit(msg.sender, _pid, _amount, token1Amount);\r\n    }\r\n    function _swap(address payable _to, address[]memory lpPath, bool _isETH, uint256 _amount, uint8 _slippage)private returns (uint256){\r\n        IERC20 token0 = IERC20(lpPath[0]);\r\n        IERC20 token1 = IERC20(lpPath[1]);\r\n        uint256 token0init = _isETH?address(this).balance :token0.balanceOf(address(this));\r\n        if(!_isETH)token0.transferFrom(_to, address(this), _amount);\r\n    \r\n        uint256 token1Before = token1.balanceOf(address(this));\r\n\r\n        uint256 minAmount = _slippageCalculate(token0, token1, _amount.div(2), _slippage);\r\n        if(_isETH) uniRouter.swapExactETHForTokens{value: _amount.div(2)}(minAmount, lpPath, address(this), block.timestamp);\r\n        else uniRouter.swapExactTokensForTokens(_amount.div(2), minAmount, lpPath, address(this), block.timestamp);\r\n       \r\n        uint256 token0Amount = _isETH ?_amount.div(2) :token0init.add(_amount).sub(token0.balanceOf(address(this))); \r\n        uint256 token1Amount = token1.balanceOf(address(this)).sub(token1Before);\r\n        _addLibLiquidity(_to, _isETH, _amount, token0, token1, token0init, token1Before, token0Amount, token1Amount);\r\n        return token1Amount;\r\n    }\r\n    function _addLibLiquidity(address payable _to, bool _isETH, uint256 _amount, IERC20 token0, IERC20 token1, uint256 token0init, uint256 token1Before,uint256 token0Amount, uint256 token1Amount)private{\r\n        if(_isETH) libreRouter.addLiquidityETH{value: token0Amount}(address(token1),token1Amount,0,0,address(this), block.timestamp);\r\n        else libreRouter.addLiquidity(address(token0), address(token1), token0Amount, token1Amount, 0 , 0, address(this), block.timestamp);\r\n        uint256 token0leftOver = _isETH?address(this).balance.sub(token0init.sub(_amount)):token0.balanceOf(address(this)).sub(token0init); \r\n        uint256 token1leftOver = token1.balanceOf(address(this)).sub(token1Before); \r\n        \r\n        if(token0leftOver>0 && !_isETH)token0.transfer(_to, token0leftOver);\r\n        else if(token0leftOver>0 && _isETH)_to.transfer(token0leftOver);\r\n        if(token1leftOver>0)token1.transfer(_to, token1leftOver);\r\n\r\n    }\r\n    function _slippageCalculate(IERC20 token0, IERC20 token1, uint256 input, uint8 _slippage)private view returns(uint256){\r\n        address[] memory t = new address[](2);\r\n        t[0] = address(token0);\r\n        t[1] = address(token1);\r\n        // uint256 exceptedAmount = uniRouter.getAmountsOut(input, t)[1].mul(1000-_slippage).div(1000);\r\n        return uniRouter.getAmountsOut(input, t)[1].mul(1000-_slippage).div(1000);\r\n    }\r\n    // Withdraw LP tokens from MasterChef.\r\n    function withdraw(uint256 _pid, uint256 _amount) public validatePoolByPid(_pid) nonReentrant payable{\r\n        require(_pid>0,\"pool 0 is for staking\");\r\n        PoolInfo storage pool = poolInfo[_pid];\r\n        UserInfo storage user = userInfo[_pid][msg.sender];\r\n        IERC20 token0 = IERC20(pool.lpPath[0]);\r\n        IERC20 token1 = IERC20(pool.lpPath[1]);\r\n\r\n        require(user.amount >= _amount, \"withdraw: not good\");\r\n        updatePool(_pid);\r\n        uint256 pending =\r\n            user.amount.mul(pool.accLibPerShare).div(1e12).sub(\r\n                user.rewardDebt\r\n            );\r\n        uint256 fee = pending.mul(2).div(100);\r\n        uint256 token0Before = token0.balanceOf(address(this));\r\n        uint256 token1Before = token1.balanceOf(address(this));\r\n\r\n        libreRouter.removeLiquidity(address(token0), address(token1), _amount, 0 , 0, address(this), block.timestamp);\r\n        uint256 token0Amount = token0.balanceOf(address(this)).sub(token0Before);\r\n        uint256 token1Amount = token1.balanceOf(address(this)).sub(token1Before);\r\n        user.amount = user.amount.sub(_amount);\r\n        safeLibreTransfer(msg.sender, pending.sub(fee));\r\n        safeLibreTransfer(devaddr, fee);\r\n        user.rewardDebt = user.amount.mul(pool.accLibPerShare).div(1e12);\r\n        if(pool.isETHPair){\r\n            WETH.withdraw(uint(token0Amount));\r\n            msg.sender.transfer(token0Amount);\r\n            // token0.transfer(address(msg.sender),token0Amount);\r\n        }\r\n        else token0.transfer(address(msg.sender),token0Amount);\r\n        token1.transfer(address(msg.sender),token1Amount);\r\n        emit Withdraw(msg.sender, _pid, _amount);\r\n    }\r\n\r\n    receive() external payable {}\r\n    \r\n    // Safe sushi transfer function, just in case if rounding error causes pool to not have enough Libres.\r\n    function safeLibreTransfer(address _to, uint256 _amount) internal {\r\n        uint256 libBal = lib.balanceOf(address(this));\r\n        if (_amount > libBal) {\r\n            lib.transfer(_to, libBal);\r\n        } else {\r\n            lib.transfer(_to, _amount);\r\n        }\r\n    }\r\n\r\n   \r\n    // Withdraw without caring about rewards. EMERGENCY ONLY.\r\n    function emergencyWithdraw(uint256 _pid) public nonReentrant{\r\n        PoolInfo storage pool = poolInfo[_pid];\r\n        UserInfo storage user = userInfo[_pid][msg.sender];\r\n        if(_pid>0) pool.lpToken.safeTransfer(address(msg.sender), user.amount);\r\n        else{\r\n            safeLibreTransfer(address(msg.sender),user.amount);\r\n            totalStaked = totalStaked.sub(user.amount);\r\n        }\r\n        emit EmergencyWithdraw(msg.sender, _pid, user.amount);\r\n        \r\n        user.amount = 0;\r\n        user.rewardDebt = 0;\r\n    }\r\n    modifier validatePoolByPid(uint256 _pid){\r\n        require(_pid<poolInfo.length, \"Pool does not exist\");\r\n        _;\r\n    }\r\n    // Update dev address by the previous dev.\r\n    function dev(address _devaddr) public {\r\n        require(msg.sender == devaddr, \"dev: wut?\");\r\n        devaddr = _devaddr;\r\n    }\r\n}",
  "sourcePath": "D:\\User\\Ethereum\\LibreV2\\contracts\\MasterChef.sol",
  "compiler": {
    "name": "solc",
    "version": "0.6.12+commit.27d51765.Emscripten.clang"
  },
  "schemaVersion": "3.3.4",
  "updatedAt": "2021-12-04T13:09:51.964Z",
  "devdoc": {
    "kind": "dev",
    "methods": {
      "owner()": {
        "details": "Returns the address of the current owner."
      },
      "renounceOwnership()": {
        "details": "Leaves the contract without owner. It will not be possible to call `onlyOwner` functions anymore. Can only be called by the current owner. NOTE: Renouncing ownership will leave the contract without an owner, thereby removing any functionality that is only available to the owner."
      },
      "transferOwnership(address)": {
        "details": "Transfers ownership of the contract to a new account (`newOwner`). Can only be called by the current owner."
      }
    },
    "version": 1
  },
  "userdoc": {
    "kind": "user",
    "methods": {},
    "version": 1
  }
}